{
	"contracts/Stom.sol": {
		"Stom": {
			"abi": [
				{
					"inputs": [
						{
							"internalType": "uint256",
							"name": "initialSupply",
							"type": "uint256"
						}
					],
					"stateMutability": "nonpayable",
					"type": "constructor"
				},
				{
					"anonymous": false,
					"inputs": [
						{
							"indexed": true,
							"internalType": "address",
							"name": "owner",
							"type": "address"
						},
						{
							"indexed": true,
							"internalType": "address",
							"name": "spender",
							"type": "address"
						},
						{
							"indexed": false,
							"internalType": "uint256",
							"name": "value",
							"type": "uint256"
						}
					],
					"name": "Approval",
					"type": "event"
				},
				{
					"anonymous": false,
					"inputs": [
						{
							"indexed": true,
							"internalType": "address",
							"name": "from",
							"type": "address"
						},
						{
							"indexed": true,
							"internalType": "address",
							"name": "to",
							"type": "address"
						},
						{
							"indexed": false,
							"internalType": "uint256",
							"name": "value",
							"type": "uint256"
						}
					],
					"name": "Transfer",
					"type": "event"
				},
				{
					"inputs": [
						{
							"internalType": "string",
							"name": "_name",
							"type": "string"
						},
						{
							"internalType": "string",
							"name": "_surName",
							"type": "string"
						}
					],
					"name": "addPatient",
					"outputs": [],
					"stateMutability": "nonpayable",
					"type": "function"
				},
				{
					"inputs": [
						{
							"internalType": "address",
							"name": "owner",
							"type": "address"
						},
						{
							"internalType": "address",
							"name": "spender",
							"type": "address"
						}
					],
					"name": "allowance",
					"outputs": [
						{
							"internalType": "uint256",
							"name": "",
							"type": "uint256"
						}
					],
					"stateMutability": "view",
					"type": "function"
				},
				{
					"inputs": [
						{
							"internalType": "address",
							"name": "spender",
							"type": "address"
						},
						{
							"internalType": "uint256",
							"name": "amount",
							"type": "uint256"
						}
					],
					"name": "approve",
					"outputs": [
						{
							"internalType": "bool",
							"name": "",
							"type": "bool"
						}
					],
					"stateMutability": "nonpayable",
					"type": "function"
				},
				{
					"inputs": [
						{
							"internalType": "address",
							"name": "account",
							"type": "address"
						}
					],
					"name": "balanceOf",
					"outputs": [
						{
							"internalType": "uint256",
							"name": "",
							"type": "uint256"
						}
					],
					"stateMutability": "view",
					"type": "function"
				},
				{
					"inputs": [],
					"name": "decimals",
					"outputs": [
						{
							"internalType": "uint8",
							"name": "",
							"type": "uint8"
						}
					],
					"stateMutability": "view",
					"type": "function"
				},
				{
					"inputs": [
						{
							"internalType": "address",
							"name": "spender",
							"type": "address"
						},
						{
							"internalType": "uint256",
							"name": "subtractedValue",
							"type": "uint256"
						}
					],
					"name": "decreaseAllowance",
					"outputs": [
						{
							"internalType": "bool",
							"name": "",
							"type": "bool"
						}
					],
					"stateMutability": "nonpayable",
					"type": "function"
				},
				{
					"inputs": [
						{
							"internalType": "address",
							"name": "_who",
							"type": "address"
						}
					],
					"name": "getCount",
					"outputs": [
						{
							"internalType": "uint256",
							"name": "count",
							"type": "uint256"
						}
					],
					"stateMutability": "view",
					"type": "function"
				},
				{
					"inputs": [
						{
							"internalType": "address",
							"name": "spender",
							"type": "address"
						},
						{
							"internalType": "uint256",
							"name": "addedValue",
							"type": "uint256"
						}
					],
					"name": "increaseAllowance",
					"outputs": [
						{
							"internalType": "bool",
							"name": "",
							"type": "bool"
						}
					],
					"stateMutability": "nonpayable",
					"type": "function"
				},
				{
					"inputs": [],
					"name": "name",
					"outputs": [
						{
							"internalType": "string",
							"name": "",
							"type": "string"
						}
					],
					"stateMutability": "view",
					"type": "function"
				},
				{
					"inputs": [
						{
							"internalType": "address",
							"name": "",
							"type": "address"
						}
					],
					"name": "patients",
					"outputs": [
						{
							"internalType": "string",
							"name": "name",
							"type": "string"
						},
						{
							"internalType": "string",
							"name": "surName",
							"type": "string"
						}
					],
					"stateMutability": "view",
					"type": "function"
				},
				{
					"inputs": [
						{
							"internalType": "enum Stom.ServiceEnum",
							"name": "",
							"type": "uint8"
						}
					],
					"name": "price",
					"outputs": [
						{
							"internalType": "uint256",
							"name": "",
							"type": "uint256"
						}
					],
					"stateMutability": "view",
					"type": "function"
				},
				{
					"inputs": [
						{
							"internalType": "string",
							"name": "_name",
							"type": "string"
						},
						{
							"internalType": "string",
							"name": "_surName",
							"type": "string"
						},
						{
							"internalType": "enum Stom.ServiceEnum",
							"name": "_whatService",
							"type": "uint8"
						}
					],
					"name": "serve",
					"outputs": [],
					"stateMutability": "nonpayable",
					"type": "function"
				},
				{
					"inputs": [],
					"name": "symbol",
					"outputs": [
						{
							"internalType": "string",
							"name": "",
							"type": "string"
						}
					],
					"stateMutability": "view",
					"type": "function"
				},
				{
					"inputs": [],
					"name": "totalSupply",
					"outputs": [
						{
							"internalType": "uint256",
							"name": "",
							"type": "uint256"
						}
					],
					"stateMutability": "view",
					"type": "function"
				},
				{
					"inputs": [
						{
							"internalType": "address",
							"name": "to",
							"type": "address"
						},
						{
							"internalType": "uint256",
							"name": "amount",
							"type": "uint256"
						}
					],
					"name": "transfer",
					"outputs": [
						{
							"internalType": "bool",
							"name": "",
							"type": "bool"
						}
					],
					"stateMutability": "nonpayable",
					"type": "function"
				},
				{
					"inputs": [
						{
							"internalType": "address",
							"name": "from",
							"type": "address"
						},
						{
							"internalType": "address",
							"name": "to",
							"type": "address"
						},
						{
							"internalType": "uint256",
							"name": "amount",
							"type": "uint256"
						}
					],
					"name": "transferFrom",
					"outputs": [
						{
							"internalType": "bool",
							"name": "",
							"type": "bool"
						}
					],
					"stateMutability": "nonpayable",
					"type": "function"
				},
				{
					"inputs": [
						{
							"internalType": "address",
							"name": "",
							"type": "address"
						},
						{
							"internalType": "uint256",
							"name": "",
							"type": "uint256"
						}
					],
					"name": "visit",
					"outputs": [
						{
							"internalType": "uint256",
							"name": "",
							"type": "uint256"
						}
					],
					"stateMutability": "view",
					"type": "function"
				}
			],
			"devdoc": {
				"events": {
					"Approval(address,address,uint256)": {
						"details": "Emitted when the allowance of a `spender` for an `owner` is set by a call to {approve}. `value` is the new allowance."
					},
					"Transfer(address,address,uint256)": {
						"details": "Emitted when `value` tokens are moved from one account (`from`) to another (`to`). Note that `value` may be zero."
					}
				},
				"kind": "dev",
				"methods": {
					"allowance(address,address)": {
						"details": "See {IERC20-allowance}."
					},
					"approve(address,uint256)": {
						"details": "See {IERC20-approve}. NOTE: If `amount` is the maximum `uint256`, the allowance is not updated on `transferFrom`. This is semantically equivalent to an infinite approval. Requirements: - `spender` cannot be the zero address."
					},
					"balanceOf(address)": {
						"details": "See {IERC20-balanceOf}."
					},
					"decimals()": {
						"details": "Returns the number of decimals used to get its user representation. For example, if `decimals` equals `2`, a balance of `505` tokens should be displayed to a user as `5.05` (`505 / 10 ** 2`). Tokens usually opt for a value of 18, imitating the relationship between Ether and Wei. This is the value {ERC20} uses, unless this function is overridden; NOTE: This information is only used for _display_ purposes: it in no way affects any of the arithmetic of the contract, including {IERC20-balanceOf} and {IERC20-transfer}."
					},
					"decreaseAllowance(address,uint256)": {
						"details": "Atomically decreases the allowance granted to `spender` by the caller. This is an alternative to {approve} that can be used as a mitigation for problems described in {IERC20-approve}. Emits an {Approval} event indicating the updated allowance. Requirements: - `spender` cannot be the zero address. - `spender` must have allowance for the caller of at least `subtractedValue`."
					},
					"increaseAllowance(address,uint256)": {
						"details": "Atomically increases the allowance granted to `spender` by the caller. This is an alternative to {approve} that can be used as a mitigation for problems described in {IERC20-approve}. Emits an {Approval} event indicating the updated allowance. Requirements: - `spender` cannot be the zero address."
					},
					"name()": {
						"details": "Returns the name of the token."
					},
					"symbol()": {
						"details": "Returns the symbol of the token, usually a shorter version of the name."
					},
					"totalSupply()": {
						"details": "See {IERC20-totalSupply}."
					},
					"transfer(address,uint256)": {
						"details": "See {IERC20-transfer}. Requirements: - `to` cannot be the zero address. - the caller must have a balance of at least `amount`."
					},
					"transferFrom(address,address,uint256)": {
						"details": "See {IERC20-transferFrom}. Emits an {Approval} event indicating the updated allowance. This is not required by the EIP. See the note at the beginning of {ERC20}. NOTE: Does not update the allowance if the current allowance is the maximum `uint256`. Requirements: - `from` and `to` cannot be the zero address. - `from` must have a balance of at least `amount`. - the caller must have allowance for ``from``'s tokens of at least `amount`."
					}
				},
				"version": 1
			},
			"evm": {
				"assembly": "    /* \"contracts/Stom.sol\":137:1442  contract Stom is ERC20 {... */\n  mstore(0x40, 0x80)\n    /* \"contracts/Stom.sol\":854:871  ServiceEnum.CLEAN */\n  0x00\n    /* \"contracts/Stom.sol\":828:871  ServiceEnum serviceEnum = ServiceEnum.CLEAN */\n  0x08\n  exp(0x0100, 0x00)\n  dup2\n  sload\n  dup2\n  0xff\n  mul\n  not\n  and\n  swap1\n  dup4\n  0x03\n  dup2\n  gt\n  iszero\n  tag_1\n  jumpi\n  tag_2\n  tag_3\n  jump\t// in\ntag_2:\ntag_1:\n  mul\n  or\n  swap1\n  sstore\n  pop\n    /* \"contracts/Stom.sol\":167:451  constructor(uint256 initialSupply) ERC20(\"Tisstom\", \"TST\") {... */\n  callvalue\n  dup1\n  iszero\n  tag_4\n  jumpi\n  0x00\n  dup1\n  revert\ntag_4:\n  pop\n  mload(0x40)\n  sub(codesize, bytecodeSize)\n  dup1\n  bytecodeSize\n  dup4\n  codecopy\n  dup2\n  dup2\n  add\n  0x40\n  mstore\n  dup2\n  add\n  swap1\n  tag_5\n  swap2\n  swap1\n  tag_6\n  jump\t// in\ntag_5:\n    /* \"@openzeppelin/contracts/token/ERC20/ERC20.sol\":1976:2089  constructor(string memory name_, string memory symbol_) {... */\n  mload(0x40)\n  dup1\n  0x40\n  add\n  0x40\n  mstore\n  dup1\n  0x07\n  dup2\n  mstore\n  0x20\n  add\n  0x54697373746f6d00000000000000000000000000000000000000000000000000\n  dup2\n  mstore\n  pop\n  mload(0x40)\n  dup1\n  0x40\n  add\n  0x40\n  mstore\n  dup1\n  0x03\n  dup2\n  mstore\n  0x20\n  add\n  0x5453540000000000000000000000000000000000000000000000000000000000\n  dup2\n  mstore\n  pop\n    /* \"@openzeppelin/contracts/token/ERC20/ERC20.sol\":2050:2055  name_ */\n  dup2\n    /* \"@openzeppelin/contracts/token/ERC20/ERC20.sol\":2042:2047  _name */\n  0x03\n    /* \"@openzeppelin/contracts/token/ERC20/ERC20.sol\":2042:2055  _name = name_ */\n  swap1\n  dup2\n  tag_10\n  swap2\n  swap1\n  tag_11\n  jump\t// in\ntag_10:\n  pop\n    /* \"@openzeppelin/contracts/token/ERC20/ERC20.sol\":2075:2082  symbol_ */\n  dup1\n    /* \"@openzeppelin/contracts/token/ERC20/ERC20.sol\":2065:2072  _symbol */\n  0x04\n    /* \"@openzeppelin/contracts/token/ERC20/ERC20.sol\":2065:2082  _symbol = symbol_ */\n  swap1\n  dup2\n  tag_12\n  swap2\n  swap1\n  tag_11\n  jump\t// in\ntag_12:\n  pop\n    /* \"@openzeppelin/contracts/token/ERC20/ERC20.sol\":1976:2089  constructor(string memory name_, string memory symbol_) {... */\n  pop\n  pop\n    /* \"contracts/Stom.sol\":263:264  1 */\n  0x01\n    /* \"contracts/Stom.sol\":236:241  price */\n  0x05\n    /* \"contracts/Stom.sol\":236:260  price[ServiceEnum.CLEAN] */\n  0x00\n    /* \"contracts/Stom.sol\":242:259  ServiceEnum.CLEAN */\n  dup1\n    /* \"contracts/Stom.sol\":236:260  price[ServiceEnum.CLEAN] */\n  0x03\n  dup2\n  gt\n  iszero\n  tag_14\n  jumpi\n  tag_15\n  tag_3\n  jump\t// in\ntag_15:\ntag_14:\n  0x03\n  dup2\n  gt\n  iszero\n  tag_16\n  jumpi\n  tag_17\n  tag_3\n  jump\t// in\ntag_17:\ntag_16:\n  dup2\n  mstore\n  0x20\n  add\n  swap1\n  dup2\n  mstore\n  0x20\n  add\n  0x00\n  keccak256\n    /* \"contracts/Stom.sol\":236:264  price[ServiceEnum.CLEAN] = 1 */\n  dup2\n  swap1\n  sstore\n  pop\n    /* \"contracts/Stom.sol\":308:309  5 */\n  0x05\n    /* \"contracts/Stom.sol\":274:279  price */\n  dup1\n    /* \"contracts/Stom.sol\":274:305  price[ServiceEnum.REMOVE_TEETH] */\n  0x00\n    /* \"contracts/Stom.sol\":280:304  ServiceEnum.REMOVE_TEETH */\n  0x01\n    /* \"contracts/Stom.sol\":274:305  price[ServiceEnum.REMOVE_TEETH] */\n  0x03\n  dup2\n  gt\n  iszero\n  tag_18\n  jumpi\n  tag_19\n  tag_3\n  jump\t// in\ntag_19:\ntag_18:\n  0x03\n  dup2\n  gt\n  iszero\n  tag_20\n  jumpi\n  tag_21\n  tag_3\n  jump\t// in\ntag_21:\ntag_20:\n  dup2\n  mstore\n  0x20\n  add\n  swap1\n  dup2\n  mstore\n  0x20\n  add\n  0x00\n  keccak256\n    /* \"contracts/Stom.sol\":274:309  price[ServiceEnum.REMOVE_TEETH] = 5 */\n  dup2\n  swap1\n  sstore\n  pop\n    /* \"contracts/Stom.sol\":354:356  10 */\n  0x0a\n    /* \"contracts/Stom.sol\":319:324  price */\n  0x05\n    /* \"contracts/Stom.sol\":319:351  price[ServiceEnum.REPLACE_TEETH] */\n  0x00\n    /* \"contracts/Stom.sol\":325:350  ServiceEnum.REPLACE_TEETH */\n  0x02\n    /* \"contracts/Stom.sol\":319:351  price[ServiceEnum.REPLACE_TEETH] */\n  0x03\n  dup2\n  gt\n  iszero\n  tag_22\n  jumpi\n  tag_23\n  tag_3\n  jump\t// in\ntag_23:\ntag_22:\n  0x03\n  dup2\n  gt\n  iszero\n  tag_24\n  jumpi\n  tag_25\n  tag_3\n  jump\t// in\ntag_25:\ntag_24:\n  dup2\n  mstore\n  0x20\n  add\n  swap1\n  dup2\n  mstore\n  0x20\n  add\n  0x00\n  keccak256\n    /* \"contracts/Stom.sol\":319:356  price[ServiceEnum.REPLACE_TEETH] = 10 */\n  dup2\n  swap1\n  sstore\n  pop\n    /* \"contracts/Stom.sol\":400:402  25 */\n  0x19\n    /* \"contracts/Stom.sol\":366:371  price */\n  0x05\n    /* \"contracts/Stom.sol\":366:397  price[ServiceEnum.ADD_BRACKETS] */\n  0x00\n    /* \"contracts/Stom.sol\":372:396  ServiceEnum.ADD_BRACKETS */\n  0x03\n    /* \"contracts/Stom.sol\":366:397  price[ServiceEnum.ADD_BRACKETS] */\n  dup1\n  dup2\n  gt\n  iszero\n  tag_26\n  jumpi\n  tag_27\n  tag_3\n  jump\t// in\ntag_27:\ntag_26:\n  0x03\n  dup2\n  gt\n  iszero\n  tag_28\n  jumpi\n  tag_29\n  tag_3\n  jump\t// in\ntag_29:\ntag_28:\n  dup2\n  mstore\n  0x20\n  add\n  swap1\n  dup2\n  mstore\n  0x20\n  add\n  0x00\n  keccak256\n    /* \"contracts/Stom.sol\":366:402  price[ServiceEnum.ADD_BRACKETS] = 25 */\n  dup2\n  swap1\n  sstore\n  pop\n    /* \"contracts/Stom.sol\":412:444  _mint(msg.sender, initialSupply) */\n  tag_30\n    /* \"contracts/Stom.sol\":418:428  msg.sender */\n  caller\n    /* \"contracts/Stom.sol\":430:443  initialSupply */\n  dup3\n    /* \"contracts/Stom.sol\":412:417  _mint */\n  shl(0x20, tag_31)\n    /* \"contracts/Stom.sol\":412:444  _mint(msg.sender, initialSupply) */\n  0x20\n  shr\n  jump\t// in\ntag_30:\n    /* \"contracts/Stom.sol\":167:451  constructor(uint256 initialSupply) ERC20(\"Tisstom\", \"TST\") {... */\n  pop\n    /* \"contracts/Stom.sol\":137:1442  contract Stom is ERC20 {... */\n  jump(tag_32)\n    /* \"@openzeppelin/contracts/token/ERC20/ERC20.sol\":8567:9102  function _mint(address account, uint256 amount) internal virtual {... */\ntag_31:\n    /* \"@openzeppelin/contracts/token/ERC20/ERC20.sol\":8669:8670  0 */\n  0x00\n    /* \"@openzeppelin/contracts/token/ERC20/ERC20.sol\":8650:8671  account != address(0) */\n  0xffffffffffffffffffffffffffffffffffffffff\n  and\n    /* \"@openzeppelin/contracts/token/ERC20/ERC20.sol\":8650:8657  account */\n  dup3\n    /* \"@openzeppelin/contracts/token/ERC20/ERC20.sol\":8650:8671  account != address(0) */\n  0xffffffffffffffffffffffffffffffffffffffff\n  and\n  sub\n    /* \"@openzeppelin/contracts/token/ERC20/ERC20.sol\":8642:8707  require(account != address(0), \"ERC20: mint to the zero address\") */\n  tag_34\n  jumpi\n  mload(0x40)\n  0x08c379a000000000000000000000000000000000000000000000000000000000\n  dup2\n  mstore\n  0x04\n  add\n  tag_35\n  swap1\n  tag_36\n  jump\t// in\ntag_35:\n  mload(0x40)\n  dup1\n  swap2\n  sub\n  swap1\n  revert\ntag_34:\n    /* \"@openzeppelin/contracts/token/ERC20/ERC20.sol\":8718:8767  _beforeTokenTransfer(address(0), account, amount) */\n  tag_37\n    /* \"@openzeppelin/contracts/token/ERC20/ERC20.sol\":8747:8748  0 */\n  0x00\n    /* \"@openzeppelin/contracts/token/ERC20/ERC20.sol\":8751:8758  account */\n  dup4\n    /* \"@openzeppelin/contracts/token/ERC20/ERC20.sol\":8760:8766  amount */\n  dup4\n    /* \"@openzeppelin/contracts/token/ERC20/ERC20.sol\":8718:8738  _beforeTokenTransfer */\n  shl(0x20, tag_38)\n    /* \"@openzeppelin/contracts/token/ERC20/ERC20.sol\":8718:8767  _beforeTokenTransfer(address(0), account, amount) */\n  0x20\n  shr\n  jump\t// in\ntag_37:\n    /* \"@openzeppelin/contracts/token/ERC20/ERC20.sol\":8794:8800  amount */\n  dup1\n    /* \"@openzeppelin/contracts/token/ERC20/ERC20.sol\":8778:8790  _totalSupply */\n  0x02\n  0x00\n    /* \"@openzeppelin/contracts/token/ERC20/ERC20.sol\":8778:8800  _totalSupply += amount */\n  dup3\n  dup3\n  sload\n  tag_39\n  swap2\n  swap1\n  tag_40\n  jump\t// in\ntag_39:\n  swap3\n  pop\n  pop\n  dup2\n  swap1\n  sstore\n  pop\n    /* \"@openzeppelin/contracts/token/ERC20/ERC20.sol\":8968:8974  amount */\n  dup1\n    /* \"@openzeppelin/contracts/token/ERC20/ERC20.sol\":8946:8955  _balances */\n  0x00\n    /* \"@openzeppelin/contracts/token/ERC20/ERC20.sol\":8946:8964  _balances[account] */\n  dup1\n    /* \"@openzeppelin/contracts/token/ERC20/ERC20.sol\":8956:8963  account */\n  dup5\n    /* \"@openzeppelin/contracts/token/ERC20/ERC20.sol\":8946:8964  _balances[account] */\n  0xffffffffffffffffffffffffffffffffffffffff\n  and\n  0xffffffffffffffffffffffffffffffffffffffff\n  and\n  dup2\n  mstore\n  0x20\n  add\n  swap1\n  dup2\n  mstore\n  0x20\n  add\n  0x00\n  keccak256\n  0x00\n    /* \"@openzeppelin/contracts/token/ERC20/ERC20.sol\":8946:8974  _balances[account] += amount */\n  dup3\n  dup3\n  sload\n  add\n  swap3\n  pop\n  pop\n  dup2\n  swap1\n  sstore\n  pop\n    /* \"@openzeppelin/contracts/token/ERC20/ERC20.sol\":9020:9027  account */\n  dup2\n    /* \"@openzeppelin/contracts/token/ERC20/ERC20.sol\":8999:9036  Transfer(address(0), account, amount) */\n  0xffffffffffffffffffffffffffffffffffffffff\n  and\n    /* \"@openzeppelin/contracts/token/ERC20/ERC20.sol\":9016:9017  0 */\n  0x00\n    /* \"@openzeppelin/contracts/token/ERC20/ERC20.sol\":8999:9036  Transfer(address(0), account, amount) */\n  0xffffffffffffffffffffffffffffffffffffffff\n  and\n  0xddf252ad1be2c89b69c2b068fc378daa952ba7f163c4a11628f55a4df523b3ef\n    /* \"@openzeppelin/contracts/token/ERC20/ERC20.sol\":9029:9035  amount */\n  dup4\n    /* \"@openzeppelin/contracts/token/ERC20/ERC20.sol\":8999:9036  Transfer(address(0), account, amount) */\n  mload(0x40)\n  tag_41\n  swap2\n  swap1\n  tag_42\n  jump\t// in\ntag_41:\n  mload(0x40)\n  dup1\n  swap2\n  sub\n  swap1\n  log3\n    /* \"@openzeppelin/contracts/token/ERC20/ERC20.sol\":9047:9095  _afterTokenTransfer(address(0), account, amount) */\n  tag_43\n    /* \"@openzeppelin/contracts/token/ERC20/ERC20.sol\":9075:9076  0 */\n  0x00\n    /* \"@openzeppelin/contracts/token/ERC20/ERC20.sol\":9079:9086  account */\n  dup4\n    /* \"@openzeppelin/contracts/token/ERC20/ERC20.sol\":9088:9094  amount */\n  dup4\n    /* \"@openzeppelin/contracts/token/ERC20/ERC20.sol\":9047:9066  _afterTokenTransfer */\n  shl(0x20, tag_44)\n    /* \"@openzeppelin/contracts/token/ERC20/ERC20.sol\":9047:9095  _afterTokenTransfer(address(0), account, amount) */\n  0x20\n  shr\n  jump\t// in\ntag_43:\n    /* \"@openzeppelin/contracts/token/ERC20/ERC20.sol\":8567:9102  function _mint(address account, uint256 amount) internal virtual {... */\n  pop\n  pop\n  jump\t// out\n    /* \"@openzeppelin/contracts/token/ERC20/ERC20.sol\":12180:12301  function _beforeTokenTransfer(... */\ntag_38:\n  pop\n  pop\n  pop\n  jump\t// out\n    /* \"@openzeppelin/contracts/token/ERC20/ERC20.sol\":12889:13009  function _afterTokenTransfer(... */\ntag_44:\n  pop\n  pop\n  pop\n  jump\t// out\n    /* \"#utility.yul\":7:187   */\ntag_3:\n    /* \"#utility.yul\":55:132   */\n  0x4e487b7100000000000000000000000000000000000000000000000000000000\n    /* \"#utility.yul\":52:53   */\n  0x00\n    /* \"#utility.yul\":45:133   */\n  mstore\n    /* \"#utility.yul\":152:156   */\n  0x21\n    /* \"#utility.yul\":149:150   */\n  0x04\n    /* \"#utility.yul\":142:157   */\n  mstore\n    /* \"#utility.yul\":176:180   */\n  0x24\n    /* \"#utility.yul\":173:174   */\n  0x00\n    /* \"#utility.yul\":166:181   */\n  revert\n    /* \"#utility.yul\":274:391   */\ntag_48:\n    /* \"#utility.yul\":383:384   */\n  0x00\n    /* \"#utility.yul\":380:381   */\n  dup1\n    /* \"#utility.yul\":373:385   */\n  revert\n    /* \"#utility.yul\":520:597   */\ntag_50:\n    /* \"#utility.yul\":557:564   */\n  0x00\n    /* \"#utility.yul\":586:591   */\n  dup2\n    /* \"#utility.yul\":575:591   */\n  swap1\n  pop\n    /* \"#utility.yul\":520:597   */\n  swap2\n  swap1\n  pop\n  jump\t// out\n    /* \"#utility.yul\":603:725   */\ntag_51:\n    /* \"#utility.yul\":676:700   */\n  tag_84\n    /* \"#utility.yul\":694:699   */\n  dup2\n    /* \"#utility.yul\":676:700   */\n  tag_50\n  jump\t// in\ntag_84:\n    /* \"#utility.yul\":669:674   */\n  dup2\n    /* \"#utility.yul\":666:701   */\n  eq\n    /* \"#utility.yul\":656:719   */\n  tag_85\n  jumpi\n    /* \"#utility.yul\":715:716   */\n  0x00\n    /* \"#utility.yul\":712:713   */\n  dup1\n    /* \"#utility.yul\":705:717   */\n  revert\n    /* \"#utility.yul\":656:719   */\ntag_85:\n    /* \"#utility.yul\":603:725   */\n  pop\n  jump\t// out\n    /* \"#utility.yul\":731:874   */\ntag_52:\n    /* \"#utility.yul\":788:793   */\n  0x00\n    /* \"#utility.yul\":819:825   */\n  dup2\n    /* \"#utility.yul\":813:826   */\n  mload\n    /* \"#utility.yul\":804:826   */\n  swap1\n  pop\n    /* \"#utility.yul\":835:868   */\n  tag_87\n    /* \"#utility.yul\":862:867   */\n  dup2\n    /* \"#utility.yul\":835:868   */\n  tag_51\n  jump\t// in\ntag_87:\n    /* \"#utility.yul\":731:874   */\n  swap3\n  swap2\n  pop\n  pop\n  jump\t// out\n    /* \"#utility.yul\":880:1231   */\ntag_6:\n    /* \"#utility.yul\":950:956   */\n  0x00\n    /* \"#utility.yul\":999:1001   */\n  0x20\n    /* \"#utility.yul\":987:996   */\n  dup3\n    /* \"#utility.yul\":978:985   */\n  dup5\n    /* \"#utility.yul\":974:997   */\n  sub\n    /* \"#utility.yul\":970:1002   */\n  slt\n    /* \"#utility.yul\":967:1086   */\n  iszero\n  tag_89\n  jumpi\n    /* \"#utility.yul\":1005:1084   */\n  tag_90\n  tag_48\n  jump\t// in\ntag_90:\n    /* \"#utility.yul\":967:1086   */\ntag_89:\n    /* \"#utility.yul\":1125:1126   */\n  0x00\n    /* \"#utility.yul\":1150:1214   */\n  tag_91\n    /* \"#utility.yul\":1206:1213   */\n  dup5\n    /* \"#utility.yul\":1197:1203   */\n  dup3\n    /* \"#utility.yul\":1186:1195   */\n  dup6\n    /* \"#utility.yul\":1182:1204   */\n  add\n    /* \"#utility.yul\":1150:1214   */\n  tag_52\n  jump\t// in\ntag_91:\n    /* \"#utility.yul\":1140:1214   */\n  swap2\n  pop\n    /* \"#utility.yul\":1096:1224   */\n  pop\n    /* \"#utility.yul\":880:1231   */\n  swap3\n  swap2\n  pop\n  pop\n  jump\t// out\n    /* \"#utility.yul\":1237:1336   */\ntag_53:\n    /* \"#utility.yul\":1289:1295   */\n  0x00\n    /* \"#utility.yul\":1323:1328   */\n  dup2\n    /* \"#utility.yul\":1317:1329   */\n  mload\n    /* \"#utility.yul\":1307:1329   */\n  swap1\n  pop\n    /* \"#utility.yul\":1237:1336   */\n  swap2\n  swap1\n  pop\n  jump\t// out\n    /* \"#utility.yul\":1342:1522   */\ntag_54:\n    /* \"#utility.yul\":1390:1467   */\n  0x4e487b7100000000000000000000000000000000000000000000000000000000\n    /* \"#utility.yul\":1387:1388   */\n  0x00\n    /* \"#utility.yul\":1380:1468   */\n  mstore\n    /* \"#utility.yul\":1487:1491   */\n  0x41\n    /* \"#utility.yul\":1484:1485   */\n  0x04\n    /* \"#utility.yul\":1477:1492   */\n  mstore\n    /* \"#utility.yul\":1511:1515   */\n  0x24\n    /* \"#utility.yul\":1508:1509   */\n  0x00\n    /* \"#utility.yul\":1501:1516   */\n  revert\n    /* \"#utility.yul\":1528:1708   */\ntag_55:\n    /* \"#utility.yul\":1576:1653   */\n  0x4e487b7100000000000000000000000000000000000000000000000000000000\n    /* \"#utility.yul\":1573:1574   */\n  0x00\n    /* \"#utility.yul\":1566:1654   */\n  mstore\n    /* \"#utility.yul\":1673:1677   */\n  0x22\n    /* \"#utility.yul\":1670:1671   */\n  0x04\n    /* \"#utility.yul\":1663:1678   */\n  mstore\n    /* \"#utility.yul\":1697:1701   */\n  0x24\n    /* \"#utility.yul\":1694:1695   */\n  0x00\n    /* \"#utility.yul\":1687:1702   */\n  revert\n    /* \"#utility.yul\":1714:2034   */\ntag_56:\n    /* \"#utility.yul\":1758:1764   */\n  0x00\n    /* \"#utility.yul\":1795:1796   */\n  0x02\n    /* \"#utility.yul\":1789:1793   */\n  dup3\n    /* \"#utility.yul\":1785:1797   */\n  div\n    /* \"#utility.yul\":1775:1797   */\n  swap1\n  pop\n    /* \"#utility.yul\":1842:1843   */\n  0x01\n    /* \"#utility.yul\":1836:1840   */\n  dup3\n    /* \"#utility.yul\":1832:1844   */\n  and\n    /* \"#utility.yul\":1863:1881   */\n  dup1\n    /* \"#utility.yul\":1853:1934   */\n  tag_96\n  jumpi\n    /* \"#utility.yul\":1919:1923   */\n  0x7f\n    /* \"#utility.yul\":1911:1917   */\n  dup3\n    /* \"#utility.yul\":1907:1924   */\n  and\n    /* \"#utility.yul\":1897:1924   */\n  swap2\n  pop\n    /* \"#utility.yul\":1853:1934   */\ntag_96:\n    /* \"#utility.yul\":1981:1983   */\n  0x20\n    /* \"#utility.yul\":1973:1979   */\n  dup3\n    /* \"#utility.yul\":1970:1984   */\n  lt\n    /* \"#utility.yul\":1950:1968   */\n  dup2\n    /* \"#utility.yul\":1947:1985   */\n  sub\n    /* \"#utility.yul\":1944:2028   */\n  tag_97\n  jumpi\n    /* \"#utility.yul\":2000:2018   */\n  tag_98\n  tag_55\n  jump\t// in\ntag_98:\n    /* \"#utility.yul\":1944:2028   */\ntag_97:\n    /* \"#utility.yul\":1765:2034   */\n  pop\n    /* \"#utility.yul\":1714:2034   */\n  swap2\n  swap1\n  pop\n  jump\t// out\n    /* \"#utility.yul\":2040:2181   */\ntag_57:\n    /* \"#utility.yul\":2089:2093   */\n  0x00\n    /* \"#utility.yul\":2112:2115   */\n  dup2\n    /* \"#utility.yul\":2104:2115   */\n  swap1\n  pop\n    /* \"#utility.yul\":2135:2138   */\n  dup2\n    /* \"#utility.yul\":2132:2133   */\n  0x00\n    /* \"#utility.yul\":2125:2139   */\n  mstore\n    /* \"#utility.yul\":2169:2173   */\n  0x20\n    /* \"#utility.yul\":2166:2167   */\n  0x00\n    /* \"#utility.yul\":2156:2174   */\n  keccak256\n    /* \"#utility.yul\":2148:2174   */\n  swap1\n  pop\n    /* \"#utility.yul\":2040:2181   */\n  swap2\n  swap1\n  pop\n  jump\t// out\n    /* \"#utility.yul\":2187:2280   */\ntag_58:\n    /* \"#utility.yul\":2224:2230   */\n  0x00\n    /* \"#utility.yul\":2271:2273   */\n  0x20\n    /* \"#utility.yul\":2266:2268   */\n  0x1f\n    /* \"#utility.yul\":2259:2264   */\n  dup4\n    /* \"#utility.yul\":2255:2269   */\n  add\n    /* \"#utility.yul\":2251:2274   */\n  div\n    /* \"#utility.yul\":2241:2274   */\n  swap1\n  pop\n    /* \"#utility.yul\":2187:2280   */\n  swap2\n  swap1\n  pop\n  jump\t// out\n    /* \"#utility.yul\":2286:2393   */\ntag_59:\n    /* \"#utility.yul\":2330:2338   */\n  0x00\n    /* \"#utility.yul\":2380:2385   */\n  dup3\n    /* \"#utility.yul\":2374:2378   */\n  dup3\n    /* \"#utility.yul\":2370:2386   */\n  shl\n    /* \"#utility.yul\":2349:2386   */\n  swap1\n  pop\n    /* \"#utility.yul\":2286:2393   */\n  swap3\n  swap2\n  pop\n  pop\n  jump\t// out\n    /* \"#utility.yul\":2399:2792   */\ntag_60:\n    /* \"#utility.yul\":2468:2474   */\n  0x00\n    /* \"#utility.yul\":2518:2519   */\n  0x08\n    /* \"#utility.yul\":2506:2516   */\n  dup4\n    /* \"#utility.yul\":2502:2520   */\n  mul\n    /* \"#utility.yul\":2541:2638   */\n  tag_103\n    /* \"#utility.yul\":2571:2637   */\n  0xffffffffffffffffffffffffffffffffffffffffffffffffffffffffffffffff\n    /* \"#utility.yul\":2560:2569   */\n  dup3\n    /* \"#utility.yul\":2541:2638   */\n  tag_59\n  jump\t// in\ntag_103:\n    /* \"#utility.yul\":2659:2698   */\n  tag_104\n    /* \"#utility.yul\":2689:2697   */\n  dup7\n    /* \"#utility.yul\":2678:2687   */\n  dup4\n    /* \"#utility.yul\":2659:2698   */\n  tag_59\n  jump\t// in\ntag_104:\n    /* \"#utility.yul\":2647:2698   */\n  swap6\n  pop\n    /* \"#utility.yul\":2731:2735   */\n  dup1\n    /* \"#utility.yul\":2727:2736   */\n  not\n    /* \"#utility.yul\":2720:2725   */\n  dup5\n    /* \"#utility.yul\":2716:2737   */\n  and\n    /* \"#utility.yul\":2707:2737   */\n  swap4\n  pop\n    /* \"#utility.yul\":2780:2784   */\n  dup1\n    /* \"#utility.yul\":2770:2778   */\n  dup7\n    /* \"#utility.yul\":2766:2785   */\n  and\n    /* \"#utility.yul\":2759:2764   */\n  dup5\n    /* \"#utility.yul\":2756:2786   */\n  or\n    /* \"#utility.yul\":2746:2786   */\n  swap3\n  pop\n    /* \"#utility.yul\":2475:2792   */\n  pop\n  pop\n    /* \"#utility.yul\":2399:2792   */\n  swap4\n  swap3\n  pop\n  pop\n  pop\n  jump\t// out\n    /* \"#utility.yul\":2798:2858   */\ntag_61:\n    /* \"#utility.yul\":2826:2829   */\n  0x00\n    /* \"#utility.yul\":2847:2852   */\n  dup2\n    /* \"#utility.yul\":2840:2852   */\n  swap1\n  pop\n    /* \"#utility.yul\":2798:2858   */\n  swap2\n  swap1\n  pop\n  jump\t// out\n    /* \"#utility.yul\":2864:3006   */\ntag_62:\n    /* \"#utility.yul\":2914:2923   */\n  0x00\n    /* \"#utility.yul\":2947:3000   */\n  tag_107\n    /* \"#utility.yul\":2965:2999   */\n  tag_108\n    /* \"#utility.yul\":2974:2998   */\n  tag_109\n    /* \"#utility.yul\":2992:2997   */\n  dup5\n    /* \"#utility.yul\":2974:2998   */\n  tag_50\n  jump\t// in\ntag_109:\n    /* \"#utility.yul\":2965:2999   */\n  tag_61\n  jump\t// in\ntag_108:\n    /* \"#utility.yul\":2947:3000   */\n  tag_50\n  jump\t// in\ntag_107:\n    /* \"#utility.yul\":2934:3000   */\n  swap1\n  pop\n    /* \"#utility.yul\":2864:3006   */\n  swap2\n  swap1\n  pop\n  jump\t// out\n    /* \"#utility.yul\":3012:3087   */\ntag_63:\n    /* \"#utility.yul\":3055:3058   */\n  0x00\n    /* \"#utility.yul\":3076:3081   */\n  dup2\n    /* \"#utility.yul\":3069:3081   */\n  swap1\n  pop\n    /* \"#utility.yul\":3012:3087   */\n  swap2\n  swap1\n  pop\n  jump\t// out\n    /* \"#utility.yul\":3093:3362   */\ntag_64:\n    /* \"#utility.yul\":3203:3242   */\n  tag_112\n    /* \"#utility.yul\":3234:3241   */\n  dup4\n    /* \"#utility.yul\":3203:3242   */\n  tag_62\n  jump\t// in\ntag_112:\n    /* \"#utility.yul\":3264:3355   */\n  tag_113\n    /* \"#utility.yul\":3313:3354   */\n  tag_114\n    /* \"#utility.yul\":3337:3353   */\n  dup3\n    /* \"#utility.yul\":3313:3354   */\n  tag_63\n  jump\t// in\ntag_114:\n    /* \"#utility.yul\":3305:3311   */\n  dup5\n    /* \"#utility.yul\":3298:3302   */\n  dup5\n    /* \"#utility.yul\":3292:3303   */\n  sload\n    /* \"#utility.yul\":3264:3355   */\n  tag_60\n  jump\t// in\ntag_113:\n    /* \"#utility.yul\":3258:3262   */\n  dup3\n    /* \"#utility.yul\":3251:3356   */\n  sstore\n    /* \"#utility.yul\":3169:3362   */\n  pop\n    /* \"#utility.yul\":3093:3362   */\n  pop\n  pop\n  pop\n  jump\t// out\n    /* \"#utility.yul\":3368:3441   */\ntag_65:\n    /* \"#utility.yul\":3413:3416   */\n  0x00\n    /* \"#utility.yul\":3368:3441   */\n  swap1\n  jump\t// out\n    /* \"#utility.yul\":3447:3636   */\ntag_66:\n    /* \"#utility.yul\":3524:3556   */\n  tag_117\n  tag_65\n  jump\t// in\ntag_117:\n    /* \"#utility.yul\":3565:3630   */\n  tag_118\n    /* \"#utility.yul\":3623:3629   */\n  dup2\n    /* \"#utility.yul\":3615:3621   */\n  dup5\n    /* \"#utility.yul\":3609:3613   */\n  dup5\n    /* \"#utility.yul\":3565:3630   */\n  tag_64\n  jump\t// in\ntag_118:\n    /* \"#utility.yul\":3500:3636   */\n  pop\n    /* \"#utility.yul\":3447:3636   */\n  pop\n  pop\n  jump\t// out\n    /* \"#utility.yul\":3642:3828   */\ntag_67:\n    /* \"#utility.yul\":3702:3822   */\ntag_120:\n    /* \"#utility.yul\":3719:3722   */\n  dup2\n    /* \"#utility.yul\":3712:3717   */\n  dup2\n    /* \"#utility.yul\":3709:3723   */\n  lt\n    /* \"#utility.yul\":3702:3822   */\n  iszero\n  tag_122\n  jumpi\n    /* \"#utility.yul\":3773:3812   */\n  tag_123\n    /* \"#utility.yul\":3810:3811   */\n  0x00\n    /* \"#utility.yul\":3803:3808   */\n  dup3\n    /* \"#utility.yul\":3773:3812   */\n  tag_66\n  jump\t// in\ntag_123:\n    /* \"#utility.yul\":3746:3747   */\n  0x01\n    /* \"#utility.yul\":3739:3744   */\n  dup2\n    /* \"#utility.yul\":3735:3748   */\n  add\n    /* \"#utility.yul\":3726:3748   */\n  swap1\n  pop\n    /* \"#utility.yul\":3702:3822   */\n  jump(tag_120)\ntag_122:\n    /* \"#utility.yul\":3642:3828   */\n  pop\n  pop\n  jump\t// out\n    /* \"#utility.yul\":3834:4377   */\ntag_68:\n    /* \"#utility.yul\":3935:3937   */\n  0x1f\n    /* \"#utility.yul\":3930:3933   */\n  dup3\n    /* \"#utility.yul\":3927:3938   */\n  gt\n    /* \"#utility.yul\":3924:4370   */\n  iszero\n  tag_125\n  jumpi\n    /* \"#utility.yul\":3969:4007   */\n  tag_126\n    /* \"#utility.yul\":4001:4006   */\n  dup2\n    /* \"#utility.yul\":3969:4007   */\n  tag_57\n  jump\t// in\ntag_126:\n    /* \"#utility.yul\":4053:4082   */\n  tag_127\n    /* \"#utility.yul\":4071:4081   */\n  dup5\n    /* \"#utility.yul\":4053:4082   */\n  tag_58\n  jump\t// in\ntag_127:\n    /* \"#utility.yul\":4043:4051   */\n  dup2\n    /* \"#utility.yul\":4039:4083   */\n  add\n    /* \"#utility.yul\":4236:4238   */\n  0x20\n    /* \"#utility.yul\":4224:4234   */\n  dup6\n    /* \"#utility.yul\":4221:4239   */\n  lt\n    /* \"#utility.yul\":4218:4267   */\n  iszero\n  tag_128\n  jumpi\n    /* \"#utility.yul\":4257:4265   */\n  dup2\n    /* \"#utility.yul\":4242:4265   */\n  swap1\n  pop\n    /* \"#utility.yul\":4218:4267   */\ntag_128:\n    /* \"#utility.yul\":4280:4360   */\n  tag_129\n    /* \"#utility.yul\":4336:4358   */\n  tag_130\n    /* \"#utility.yul\":4354:4357   */\n  dup6\n    /* \"#utility.yul\":4336:4358   */\n  tag_58\n  jump\t// in\ntag_130:\n    /* \"#utility.yul\":4326:4334   */\n  dup4\n    /* \"#utility.yul\":4322:4359   */\n  add\n    /* \"#utility.yul\":4309:4320   */\n  dup3\n    /* \"#utility.yul\":4280:4360   */\n  tag_67\n  jump\t// in\ntag_129:\n    /* \"#utility.yul\":3939:4370   */\n  pop\n  pop\n    /* \"#utility.yul\":3924:4370   */\ntag_125:\n    /* \"#utility.yul\":3834:4377   */\n  pop\n  pop\n  pop\n  jump\t// out\n    /* \"#utility.yul\":4383:4500   */\ntag_69:\n    /* \"#utility.yul\":4437:4445   */\n  0x00\n    /* \"#utility.yul\":4487:4492   */\n  dup3\n    /* \"#utility.yul\":4481:4485   */\n  dup3\n    /* \"#utility.yul\":4477:4493   */\n  shr\n    /* \"#utility.yul\":4456:4493   */\n  swap1\n  pop\n    /* \"#utility.yul\":4383:4500   */\n  swap3\n  swap2\n  pop\n  pop\n  jump\t// out\n    /* \"#utility.yul\":4506:4675   */\ntag_70:\n    /* \"#utility.yul\":4550:4556   */\n  0x00\n    /* \"#utility.yul\":4583:4634   */\n  tag_133\n    /* \"#utility.yul\":4631:4632   */\n  0x00\n    /* \"#utility.yul\":4627:4633   */\n  not\n    /* \"#utility.yul\":4619:4624   */\n  dup5\n    /* \"#utility.yul\":4616:4617   */\n  0x08\n    /* \"#utility.yul\":4612:4625   */\n  mul\n    /* \"#utility.yul\":4583:4634   */\n  tag_69\n  jump\t// in\ntag_133:\n    /* \"#utility.yul\":4579:4635   */\n  not\n    /* \"#utility.yul\":4664:4668   */\n  dup1\n    /* \"#utility.yul\":4658:4662   */\n  dup4\n    /* \"#utility.yul\":4654:4669   */\n  and\n    /* \"#utility.yul\":4644:4669   */\n  swap2\n  pop\n    /* \"#utility.yul\":4557:4675   */\n  pop\n    /* \"#utility.yul\":4506:4675   */\n  swap3\n  swap2\n  pop\n  pop\n  jump\t// out\n    /* \"#utility.yul\":4680:4975   */\ntag_71:\n    /* \"#utility.yul\":4756:4760   */\n  0x00\n    /* \"#utility.yul\":4902:4931   */\n  tag_135\n    /* \"#utility.yul\":4927:4930   */\n  dup4\n    /* \"#utility.yul\":4921:4925   */\n  dup4\n    /* \"#utility.yul\":4902:4931   */\n  tag_70\n  jump\t// in\ntag_135:\n    /* \"#utility.yul\":4894:4931   */\n  swap2\n  pop\n    /* \"#utility.yul\":4964:4967   */\n  dup3\n    /* \"#utility.yul\":4961:4962   */\n  0x02\n    /* \"#utility.yul\":4957:4968   */\n  mul\n    /* \"#utility.yul\":4951:4955   */\n  dup3\n    /* \"#utility.yul\":4948:4969   */\n  or\n    /* \"#utility.yul\":4940:4969   */\n  swap1\n  pop\n    /* \"#utility.yul\":4680:4975   */\n  swap3\n  swap2\n  pop\n  pop\n  jump\t// out\n    /* \"#utility.yul\":4980:6375   */\ntag_11:\n    /* \"#utility.yul\":5097:5134   */\n  tag_137\n    /* \"#utility.yul\":5130:5133   */\n  dup3\n    /* \"#utility.yul\":5097:5134   */\n  tag_53\n  jump\t// in\ntag_137:\n    /* \"#utility.yul\":5199:5217   */\n  0xffffffffffffffff\n    /* \"#utility.yul\":5191:5197   */\n  dup2\n    /* \"#utility.yul\":5188:5218   */\n  gt\n    /* \"#utility.yul\":5185:5241   */\n  iszero\n  tag_138\n  jumpi\n    /* \"#utility.yul\":5221:5239   */\n  tag_139\n  tag_54\n  jump\t// in\ntag_139:\n    /* \"#utility.yul\":5185:5241   */\ntag_138:\n    /* \"#utility.yul\":5265:5303   */\n  tag_140\n    /* \"#utility.yul\":5297:5301   */\n  dup3\n    /* \"#utility.yul\":5291:5302   */\n  sload\n    /* \"#utility.yul\":5265:5303   */\n  tag_56\n  jump\t// in\ntag_140:\n    /* \"#utility.yul\":5350:5417   */\n  tag_141\n    /* \"#utility.yul\":5410:5416   */\n  dup3\n    /* \"#utility.yul\":5402:5408   */\n  dup3\n    /* \"#utility.yul\":5396:5400   */\n  dup6\n    /* \"#utility.yul\":5350:5417   */\n  tag_68\n  jump\t// in\ntag_141:\n    /* \"#utility.yul\":5444:5445   */\n  0x00\n    /* \"#utility.yul\":5468:5472   */\n  0x20\n    /* \"#utility.yul\":5455:5472   */\n  swap1\n  pop\n    /* \"#utility.yul\":5500:5502   */\n  0x1f\n    /* \"#utility.yul\":5492:5498   */\n  dup4\n    /* \"#utility.yul\":5489:5503   */\n  gt\n    /* \"#utility.yul\":5517:5518   */\n  0x01\n    /* \"#utility.yul\":5512:6130   */\n  dup2\n  eq\n  tag_143\n  jumpi\n    /* \"#utility.yul\":6174:6175   */\n  0x00\n    /* \"#utility.yul\":6191:6197   */\n  dup5\n    /* \"#utility.yul\":6188:6265   */\n  iszero\n  tag_144\n  jumpi\n    /* \"#utility.yul\":6240:6249   */\n  dup3\n    /* \"#utility.yul\":6235:6238   */\n  dup8\n    /* \"#utility.yul\":6231:6250   */\n  add\n    /* \"#utility.yul\":6225:6251   */\n  mload\n    /* \"#utility.yul\":6216:6251   */\n  swap1\n  pop\n    /* \"#utility.yul\":6188:6265   */\ntag_144:\n    /* \"#utility.yul\":6291:6358   */\n  tag_145\n    /* \"#utility.yul\":6351:6357   */\n  dup6\n    /* \"#utility.yul\":6344:6349   */\n  dup3\n    /* \"#utility.yul\":6291:6358   */\n  tag_71\n  jump\t// in\ntag_145:\n    /* \"#utility.yul\":6285:6289   */\n  dup7\n    /* \"#utility.yul\":6278:6359   */\n  sstore\n    /* \"#utility.yul\":6147:6369   */\n  pop\n    /* \"#utility.yul\":5482:6369   */\n  jump(tag_142)\n    /* \"#utility.yul\":5512:6130   */\ntag_143:\n    /* \"#utility.yul\":5564:5568   */\n  0x1f\n    /* \"#utility.yul\":5560:5569   */\n  not\n    /* \"#utility.yul\":5552:5558   */\n  dup5\n    /* \"#utility.yul\":5548:5570   */\n  and\n    /* \"#utility.yul\":5598:5635   */\n  tag_146\n    /* \"#utility.yul\":5630:5634   */\n  dup7\n    /* \"#utility.yul\":5598:5635   */\n  tag_57\n  jump\t// in\ntag_146:\n    /* \"#utility.yul\":5657:5658   */\n  0x00\n    /* \"#utility.yul\":5671:5879   */\ntag_147:\n    /* \"#utility.yul\":5685:5692   */\n  dup3\n    /* \"#utility.yul\":5682:5683   */\n  dup2\n    /* \"#utility.yul\":5679:5693   */\n  lt\n    /* \"#utility.yul\":5671:5879   */\n  iszero\n  tag_149\n  jumpi\n    /* \"#utility.yul\":5764:5773   */\n  dup5\n    /* \"#utility.yul\":5759:5762   */\n  dup10\n    /* \"#utility.yul\":5755:5774   */\n  add\n    /* \"#utility.yul\":5749:5775   */\n  mload\n    /* \"#utility.yul\":5741:5747   */\n  dup3\n    /* \"#utility.yul\":5734:5776   */\n  sstore\n    /* \"#utility.yul\":5815:5816   */\n  0x01\n    /* \"#utility.yul\":5807:5813   */\n  dup3\n    /* \"#utility.yul\":5803:5817   */\n  add\n    /* \"#utility.yul\":5793:5817   */\n  swap2\n  pop\n    /* \"#utility.yul\":5862:5864   */\n  0x20\n    /* \"#utility.yul\":5851:5860   */\n  dup6\n    /* \"#utility.yul\":5847:5865   */\n  add\n    /* \"#utility.yul\":5834:5865   */\n  swap5\n  pop\n    /* \"#utility.yul\":5708:5712   */\n  0x20\n    /* \"#utility.yul\":5705:5706   */\n  dup2\n    /* \"#utility.yul\":5701:5713   */\n  add\n    /* \"#utility.yul\":5696:5713   */\n  swap1\n  pop\n    /* \"#utility.yul\":5671:5879   */\n  jump(tag_147)\ntag_149:\n    /* \"#utility.yul\":5907:5913   */\n  dup7\n    /* \"#utility.yul\":5898:5905   */\n  dup4\n    /* \"#utility.yul\":5895:5914   */\n  lt\n    /* \"#utility.yul\":5892:6071   */\n  iszero\n  tag_150\n  jumpi\n    /* \"#utility.yul\":5965:5974   */\n  dup5\n    /* \"#utility.yul\":5960:5963   */\n  dup10\n    /* \"#utility.yul\":5956:5975   */\n  add\n    /* \"#utility.yul\":5950:5976   */\n  mload\n    /* \"#utility.yul\":6008:6056   */\n  tag_151\n    /* \"#utility.yul\":6050:6054   */\n  0x1f\n    /* \"#utility.yul\":6042:6048   */\n  dup10\n    /* \"#utility.yul\":6038:6055   */\n  and\n    /* \"#utility.yul\":6027:6036   */\n  dup3\n    /* \"#utility.yul\":6008:6056   */\n  tag_70\n  jump\t// in\ntag_151:\n    /* \"#utility.yul\":6000:6006   */\n  dup4\n    /* \"#utility.yul\":5993:6057   */\n  sstore\n    /* \"#utility.yul\":5915:6071   */\n  pop\n    /* \"#utility.yul\":5892:6071   */\ntag_150:\n    /* \"#utility.yul\":6117:6118   */\n  0x01\n    /* \"#utility.yul\":6113:6114   */\n  0x02\n    /* \"#utility.yul\":6105:6111   */\n  dup9\n    /* \"#utility.yul\":6101:6115   */\n  mul\n    /* \"#utility.yul\":6097:6119   */\n  add\n    /* \"#utility.yul\":6091:6095   */\n  dup9\n    /* \"#utility.yul\":6084:6120   */\n  sstore\n    /* \"#utility.yul\":5519:6130   */\n  pop\n  pop\n  pop\n    /* \"#utility.yul\":5482:6369   */\ntag_142:\n  pop\n    /* \"#utility.yul\":5072:6375   */\n  pop\n  pop\n  pop\n    /* \"#utility.yul\":4980:6375   */\n  pop\n  pop\n  jump\t// out\n    /* \"#utility.yul\":6381:6550   */\ntag_72:\n    /* \"#utility.yul\":6465:6476   */\n  0x00\n    /* \"#utility.yul\":6499:6505   */\n  dup3\n    /* \"#utility.yul\":6494:6497   */\n  dup3\n    /* \"#utility.yul\":6487:6506   */\n  mstore\n    /* \"#utility.yul\":6539:6543   */\n  0x20\n    /* \"#utility.yul\":6534:6537   */\n  dup3\n    /* \"#utility.yul\":6530:6544   */\n  add\n    /* \"#utility.yul\":6515:6544   */\n  swap1\n  pop\n    /* \"#utility.yul\":6381:6550   */\n  swap3\n  swap2\n  pop\n  pop\n  jump\t// out\n    /* \"#utility.yul\":6556:6737   */\ntag_73:\n    /* \"#utility.yul\":6696:6729   */\n  0x45524332303a206d696e7420746f20746865207a65726f206164647265737300\n    /* \"#utility.yul\":6692:6693   */\n  0x00\n    /* \"#utility.yul\":6684:6690   */\n  dup3\n    /* \"#utility.yul\":6680:6694   */\n  add\n    /* \"#utility.yul\":6673:6730   */\n  mstore\n    /* \"#utility.yul\":6556:6737   */\n  pop\n  jump\t// out\n    /* \"#utility.yul\":6743:7109   */\ntag_74:\n    /* \"#utility.yul\":6885:6888   */\n  0x00\n    /* \"#utility.yul\":6906:6973   */\n  tag_155\n    /* \"#utility.yul\":6970:6972   */\n  0x1f\n    /* \"#utility.yul\":6965:6968   */\n  dup4\n    /* \"#utility.yul\":6906:6973   */\n  tag_72\n  jump\t// in\ntag_155:\n    /* \"#utility.yul\":6899:6973   */\n  swap2\n  pop\n    /* \"#utility.yul\":6982:7075   */\n  tag_156\n    /* \"#utility.yul\":7071:7074   */\n  dup3\n    /* \"#utility.yul\":6982:7075   */\n  tag_73\n  jump\t// in\ntag_156:\n    /* \"#utility.yul\":7100:7102   */\n  0x20\n    /* \"#utility.yul\":7095:7098   */\n  dup3\n    /* \"#utility.yul\":7091:7103   */\n  add\n    /* \"#utility.yul\":7084:7103   */\n  swap1\n  pop\n    /* \"#utility.yul\":6743:7109   */\n  swap2\n  swap1\n  pop\n  jump\t// out\n    /* \"#utility.yul\":7115:7534   */\ntag_36:\n    /* \"#utility.yul\":7281:7285   */\n  0x00\n    /* \"#utility.yul\":7319:7321   */\n  0x20\n    /* \"#utility.yul\":7308:7317   */\n  dup3\n    /* \"#utility.yul\":7304:7322   */\n  add\n    /* \"#utility.yul\":7296:7322   */\n  swap1\n  pop\n    /* \"#utility.yul\":7368:7377   */\n  dup2\n    /* \"#utility.yul\":7362:7366   */\n  dup2\n    /* \"#utility.yul\":7358:7378   */\n  sub\n    /* \"#utility.yul\":7354:7355   */\n  0x00\n    /* \"#utility.yul\":7343:7352   */\n  dup4\n    /* \"#utility.yul\":7339:7356   */\n  add\n    /* \"#utility.yul\":7332:7379   */\n  mstore\n    /* \"#utility.yul\":7396:7527   */\n  tag_158\n    /* \"#utility.yul\":7522:7526   */\n  dup2\n    /* \"#utility.yul\":7396:7527   */\n  tag_74\n  jump\t// in\ntag_158:\n    /* \"#utility.yul\":7388:7527   */\n  swap1\n  pop\n    /* \"#utility.yul\":7115:7534   */\n  swap2\n  swap1\n  pop\n  jump\t// out\n    /* \"#utility.yul\":7540:7720   */\ntag_75:\n    /* \"#utility.yul\":7588:7665   */\n  0x4e487b7100000000000000000000000000000000000000000000000000000000\n    /* \"#utility.yul\":7585:7586   */\n  0x00\n    /* \"#utility.yul\":7578:7666   */\n  mstore\n    /* \"#utility.yul\":7685:7689   */\n  0x11\n    /* \"#utility.yul\":7682:7683   */\n  0x04\n    /* \"#utility.yul\":7675:7690   */\n  mstore\n    /* \"#utility.yul\":7709:7713   */\n  0x24\n    /* \"#utility.yul\":7706:7707   */\n  0x00\n    /* \"#utility.yul\":7699:7714   */\n  revert\n    /* \"#utility.yul\":7726:7917   */\ntag_40:\n    /* \"#utility.yul\":7766:7769   */\n  0x00\n    /* \"#utility.yul\":7785:7805   */\n  tag_161\n    /* \"#utility.yul\":7803:7804   */\n  dup3\n    /* \"#utility.yul\":7785:7805   */\n  tag_50\n  jump\t// in\ntag_161:\n    /* \"#utility.yul\":7780:7805   */\n  swap2\n  pop\n    /* \"#utility.yul\":7819:7839   */\n  tag_162\n    /* \"#utility.yul\":7837:7838   */\n  dup4\n    /* \"#utility.yul\":7819:7839   */\n  tag_50\n  jump\t// in\ntag_162:\n    /* \"#utility.yul\":7814:7839   */\n  swap3\n  pop\n    /* \"#utility.yul\":7862:7863   */\n  dup3\n    /* \"#utility.yul\":7859:7860   */\n  dup3\n    /* \"#utility.yul\":7855:7864   */\n  add\n    /* \"#utility.yul\":7848:7864   */\n  swap1\n  pop\n    /* \"#utility.yul\":7883:7886   */\n  dup1\n    /* \"#utility.yul\":7880:7881   */\n  dup3\n    /* \"#utility.yul\":7877:7887   */\n  gt\n    /* \"#utility.yul\":7874:7910   */\n  iszero\n  tag_163\n  jumpi\n    /* \"#utility.yul\":7890:7908   */\n  tag_164\n  tag_75\n  jump\t// in\ntag_164:\n    /* \"#utility.yul\":7874:7910   */\ntag_163:\n    /* \"#utility.yul\":7726:7917   */\n  swap3\n  swap2\n  pop\n  pop\n  jump\t// out\n    /* \"#utility.yul\":7923:8041   */\ntag_76:\n    /* \"#utility.yul\":8010:8034   */\n  tag_166\n    /* \"#utility.yul\":8028:8033   */\n  dup2\n    /* \"#utility.yul\":8010:8034   */\n  tag_50\n  jump\t// in\ntag_166:\n    /* \"#utility.yul\":8005:8008   */\n  dup3\n    /* \"#utility.yul\":7998:8035   */\n  mstore\n    /* \"#utility.yul\":7923:8041   */\n  pop\n  pop\n  jump\t// out\n    /* \"#utility.yul\":8047:8269   */\ntag_42:\n    /* \"#utility.yul\":8140:8144   */\n  0x00\n    /* \"#utility.yul\":8178:8180   */\n  0x20\n    /* \"#utility.yul\":8167:8176   */\n  dup3\n    /* \"#utility.yul\":8163:8181   */\n  add\n    /* \"#utility.yul\":8155:8181   */\n  swap1\n  pop\n    /* \"#utility.yul\":8191:8262   */\n  tag_168\n    /* \"#utility.yul\":8259:8260   */\n  0x00\n    /* \"#utility.yul\":8248:8257   */\n  dup4\n    /* \"#utility.yul\":8244:8261   */\n  add\n    /* \"#utility.yul\":8235:8241   */\n  dup5\n    /* \"#utility.yul\":8191:8262   */\n  tag_76\n  jump\t// in\ntag_168:\n    /* \"#utility.yul\":8047:8269   */\n  swap3\n  swap2\n  pop\n  pop\n  jump\t// out\n    /* \"contracts/Stom.sol\":137:1442  contract Stom is ERC20 {... */\ntag_32:\n  dataSize(sub_0)\n  dup1\n  dataOffset(sub_0)\n  0x00\n  codecopy\n  0x00\n  return\nstop\n\nsub_0: assembly {\n        /* \"contracts/Stom.sol\":137:1442  contract Stom is ERC20 {... */\n      mstore(0x40, 0x80)\n      callvalue\n      dup1\n      iszero\n      tag_1\n      jumpi\n      0x00\n      dup1\n      revert\n    tag_1:\n      pop\n      jumpi(tag_2, lt(calldatasize, 0x04))\n      shr(0xe0, calldataload(0x00))\n      dup1\n      0x4f0cd27b\n      gt\n      tag_20\n      jumpi\n      dup1\n      0xa457c2d7\n      gt\n      tag_21\n      jumpi\n      dup1\n      0xa457c2d7\n      eq\n      tag_15\n      jumpi\n      dup1\n      0xa9059cbb\n      eq\n      tag_16\n      jumpi\n      dup1\n      0xb7fafcd7\n      eq\n      tag_17\n      jumpi\n      dup1\n      0xdd62ed3e\n      eq\n      tag_18\n      jumpi\n      dup1\n      0xed69b3aa\n      eq\n      tag_19\n      jumpi\n      jump(tag_2)\n    tag_21:\n      dup1\n      0x4f0cd27b\n      eq\n      tag_11\n      jumpi\n      dup1\n      0x6ec74646\n      eq\n      tag_12\n      jumpi\n      dup1\n      0x70a08231\n      eq\n      tag_13\n      jumpi\n      dup1\n      0x95d89b41\n      eq\n      tag_14\n      jumpi\n      jump(tag_2)\n    tag_20:\n      dup1\n      0x239ee6c1\n      gt\n      tag_22\n      jumpi\n      dup1\n      0x239ee6c1\n      eq\n      tag_7\n      jumpi\n      dup1\n      0x23b872dd\n      eq\n      tag_8\n      jumpi\n      dup1\n      0x313ce567\n      eq\n      tag_9\n      jumpi\n      dup1\n      0x39509351\n      eq\n      tag_10\n      jumpi\n      jump(tag_2)\n    tag_22:\n      dup1\n      0x06fdde03\n      eq\n      tag_3\n      jumpi\n      dup1\n      0x0869cfbc\n      eq\n      tag_4\n      jumpi\n      dup1\n      0x095ea7b3\n      eq\n      tag_5\n      jumpi\n      dup1\n      0x18160ddd\n      eq\n      tag_6\n      jumpi\n    tag_2:\n      0x00\n      dup1\n      revert\n        /* \"@openzeppelin/contracts/token/ERC20/ERC20.sol\":2154:2252  function name() public view virtual override returns (string memory) {... */\n    tag_3:\n      tag_23\n      tag_24\n      jump\t// in\n    tag_23:\n      mload(0x40)\n      tag_25\n      swap2\n      swap1\n      tag_26\n      jump\t// in\n    tag_25:\n      mload(0x40)\n      dup1\n      swap2\n      sub\n      swap1\n      return\n        /* \"contracts/Stom.sol\":878:922  mapping (address => Patient) public patients */\n    tag_4:\n      tag_27\n      0x04\n      dup1\n      calldatasize\n      sub\n      dup2\n      add\n      swap1\n      tag_28\n      swap2\n      swap1\n      tag_29\n      jump\t// in\n    tag_28:\n      tag_30\n      jump\t// in\n    tag_27:\n      mload(0x40)\n      tag_31\n      swap3\n      swap2\n      swap1\n      tag_32\n      jump\t// in\n    tag_31:\n      mload(0x40)\n      dup1\n      swap2\n      sub\n      swap1\n      return\n        /* \"@openzeppelin/contracts/token/ERC20/ERC20.sol\":4431:4628  function approve(address spender, uint256 amount) public virtual override returns (bool) {... */\n    tag_5:\n      tag_33\n      0x04\n      dup1\n      calldatasize\n      sub\n      dup2\n      add\n      swap1\n      tag_34\n      swap2\n      swap1\n      tag_35\n      jump\t// in\n    tag_34:\n      tag_36\n      jump\t// in\n    tag_33:\n      mload(0x40)\n      tag_37\n      swap2\n      swap1\n      tag_38\n      jump\t// in\n    tag_37:\n      mload(0x40)\n      dup1\n      swap2\n      sub\n      swap1\n      return\n        /* \"@openzeppelin/contracts/token/ERC20/ERC20.sol\":3242:3348  function totalSupply() public view virtual override returns (uint256) {... */\n    tag_6:\n      tag_39\n      tag_40\n      jump\t// in\n    tag_39:\n      mload(0x40)\n      tag_41\n      swap2\n      swap1\n      tag_42\n      jump\t// in\n    tag_41:\n      mload(0x40)\n      dup1\n      swap2\n      sub\n      swap1\n      return\n        /* \"contracts/Stom.sol\":929:1106  function addPatient(string calldata _name, string calldata _surName) external {... */\n    tag_7:\n      tag_43\n      0x04\n      dup1\n      calldatasize\n      sub\n      dup2\n      add\n      swap1\n      tag_44\n      swap2\n      swap1\n      tag_45\n      jump\t// in\n    tag_44:\n      tag_46\n      jump\t// in\n    tag_43:\n      stop\n        /* \"@openzeppelin/contracts/token/ERC20/ERC20.sol\":5190:5476  function transferFrom(... */\n    tag_8:\n      tag_47\n      0x04\n      dup1\n      calldatasize\n      sub\n      dup2\n      add\n      swap1\n      tag_48\n      swap2\n      swap1\n      tag_49\n      jump\t// in\n    tag_48:\n      tag_50\n      jump\t// in\n    tag_47:\n      mload(0x40)\n      tag_51\n      swap2\n      swap1\n      tag_38\n      jump\t// in\n    tag_51:\n      mload(0x40)\n      dup1\n      swap2\n      sub\n      swap1\n      return\n        /* \"@openzeppelin/contracts/token/ERC20/ERC20.sol\":3091:3182  function decimals() public view virtual override returns (uint8) {... */\n    tag_9:\n      tag_52\n      tag_53\n      jump\t// in\n    tag_52:\n      mload(0x40)\n      tag_54\n      swap2\n      swap1\n      tag_55\n      jump\t// in\n    tag_54:\n      mload(0x40)\n      dup1\n      swap2\n      sub\n      swap1\n      return\n        /* \"@openzeppelin/contracts/token/ERC20/ERC20.sol\":5871:6105  function increaseAllowance(address spender, uint256 addedValue) public virtual returns (bool) {... */\n    tag_10:\n      tag_56\n      0x04\n      dup1\n      calldatasize\n      sub\n      dup2\n      add\n      swap1\n      tag_57\n      swap2\n      swap1\n      tag_35\n      jump\t// in\n    tag_57:\n      tag_58\n      jump\t// in\n    tag_56:\n      mload(0x40)\n      tag_59\n      swap2\n      swap1\n      tag_38\n      jump\t// in\n    tag_59:\n      mload(0x40)\n      dup1\n      swap2\n      sub\n      swap1\n      return\n        /* \"contracts/Stom.sol\":716:822  function getCount(address _who) public view returns(uint count) {... */\n    tag_11:\n      tag_60\n      0x04\n      dup1\n      calldatasize\n      sub\n      dup2\n      add\n      swap1\n      tag_61\n      swap2\n      swap1\n      tag_29\n      jump\t// in\n    tag_61:\n      tag_62\n      jump\t// in\n    tag_60:\n      mload(0x40)\n      tag_63\n      swap2\n      swap1\n      tag_42\n      jump\t// in\n    tag_63:\n      mload(0x40)\n      dup1\n      swap2\n      sub\n      swap1\n      return\n        /* \"contracts/Stom.sol\":1112:1440  function serve (string calldata _name, string calldata _surName, ServiceEnum _whatService) external  {... */\n    tag_12:\n      tag_64\n      0x04\n      dup1\n      calldatasize\n      sub\n      dup2\n      add\n      swap1\n      tag_65\n      swap2\n      swap1\n      tag_66\n      jump\t// in\n    tag_65:\n      tag_67\n      jump\t// in\n    tag_64:\n      stop\n        /* \"@openzeppelin/contracts/token/ERC20/ERC20.sol\":3406:3531  function balanceOf(address account) public view virtual override returns (uint256) {... */\n    tag_13:\n      tag_68\n      0x04\n      dup1\n      calldatasize\n      sub\n      dup2\n      add\n      swap1\n      tag_69\n      swap2\n      swap1\n      tag_29\n      jump\t// in\n    tag_69:\n      tag_70\n      jump\t// in\n    tag_68:\n      mload(0x40)\n      tag_71\n      swap2\n      swap1\n      tag_42\n      jump\t// in\n    tag_71:\n      mload(0x40)\n      dup1\n      swap2\n      sub\n      swap1\n      return\n        /* \"@openzeppelin/contracts/token/ERC20/ERC20.sol\":2365:2467  function symbol() public view virtual override returns (string memory) {... */\n    tag_14:\n      tag_72\n      tag_73\n      jump\t// in\n    tag_72:\n      mload(0x40)\n      tag_74\n      swap2\n      swap1\n      tag_26\n      jump\t// in\n    tag_74:\n      mload(0x40)\n      dup1\n      swap2\n      sub\n      swap1\n      return\n        /* \"@openzeppelin/contracts/token/ERC20/ERC20.sol\":6592:7019  function decreaseAllowance(address spender, uint256 subtractedValue) public virtual returns (bool) {... */\n    tag_15:\n      tag_75\n      0x04\n      dup1\n      calldatasize\n      sub\n      dup2\n      add\n      swap1\n      tag_76\n      swap2\n      swap1\n      tag_35\n      jump\t// in\n    tag_76:\n      tag_77\n      jump\t// in\n    tag_75:\n      mload(0x40)\n      tag_78\n      swap2\n      swap1\n      tag_38\n      jump\t// in\n    tag_78:\n      mload(0x40)\n      dup1\n      swap2\n      sub\n      swap1\n      return\n        /* \"@openzeppelin/contracts/token/ERC20/ERC20.sol\":3727:3916  function transfer(address to, uint256 amount) public virtual override returns (bool) {... */\n    tag_16:\n      tag_79\n      0x04\n      dup1\n      calldatasize\n      sub\n      dup2\n      add\n      swap1\n      tag_80\n      swap2\n      swap1\n      tag_35\n      jump\t// in\n    tag_80:\n      tag_81\n      jump\t// in\n    tag_79:\n      mload(0x40)\n      tag_82\n      swap2\n      swap1\n      tag_38\n      jump\t// in\n    tag_82:\n      mload(0x40)\n      dup1\n      swap2\n      sub\n      swap1\n      return\n        /* \"contracts/Stom.sol\":457:498  mapping(ServiceEnum => uint) public price */\n    tag_17:\n      tag_83\n      0x04\n      dup1\n      calldatasize\n      sub\n      dup2\n      add\n      swap1\n      tag_84\n      swap2\n      swap1\n      tag_85\n      jump\t// in\n    tag_84:\n      tag_86\n      jump\t// in\n    tag_83:\n      mload(0x40)\n      tag_87\n      swap2\n      swap1\n      tag_42\n      jump\t// in\n    tag_87:\n      mload(0x40)\n      dup1\n      swap2\n      sub\n      swap1\n      return\n        /* \"@openzeppelin/contracts/token/ERC20/ERC20.sol\":3974:4123  function allowance(address owner, address spender) public view virtual override returns (uint256) {... */\n    tag_18:\n      tag_88\n      0x04\n      dup1\n      calldatasize\n      sub\n      dup2\n      add\n      swap1\n      tag_89\n      swap2\n      swap1\n      tag_90\n      jump\t// in\n    tag_89:\n      tag_91\n      jump\t// in\n    tag_88:\n      mload(0x40)\n      tag_92\n      swap2\n      swap1\n      tag_42\n      jump\t// in\n    tag_92:\n      mload(0x40)\n      dup1\n      swap2\n      sub\n      swap1\n      return\n        /* \"contracts/Stom.sol\":504:543  mapping(address => uint[]) public visit */\n    tag_19:\n      tag_93\n      0x04\n      dup1\n      calldatasize\n      sub\n      dup2\n      add\n      swap1\n      tag_94\n      swap2\n      swap1\n      tag_35\n      jump\t// in\n    tag_94:\n      tag_95\n      jump\t// in\n    tag_93:\n      mload(0x40)\n      tag_96\n      swap2\n      swap1\n      tag_42\n      jump\t// in\n    tag_96:\n      mload(0x40)\n      dup1\n      swap2\n      sub\n      swap1\n      return\n        /* \"@openzeppelin/contracts/token/ERC20/ERC20.sol\":2154:2252  function name() public view virtual override returns (string memory) {... */\n    tag_24:\n        /* \"@openzeppelin/contracts/token/ERC20/ERC20.sol\":2208:2221  string memory */\n      0x60\n        /* \"@openzeppelin/contracts/token/ERC20/ERC20.sol\":2240:2245  _name */\n      0x03\n        /* \"@openzeppelin/contracts/token/ERC20/ERC20.sol\":2233:2245  return _name */\n      dup1\n      sload\n      tag_98\n      swap1\n      tag_99\n      jump\t// in\n    tag_98:\n      dup1\n      0x1f\n      add\n      0x20\n      dup1\n      swap2\n      div\n      mul\n      0x20\n      add\n      mload(0x40)\n      swap1\n      dup2\n      add\n      0x40\n      mstore\n      dup1\n      swap3\n      swap2\n      swap1\n      dup2\n      dup2\n      mstore\n      0x20\n      add\n      dup3\n      dup1\n      sload\n      tag_100\n      swap1\n      tag_99\n      jump\t// in\n    tag_100:\n      dup1\n      iszero\n      tag_101\n      jumpi\n      dup1\n      0x1f\n      lt\n      tag_102\n      jumpi\n      0x0100\n      dup1\n      dup4\n      sload\n      div\n      mul\n      dup4\n      mstore\n      swap2\n      0x20\n      add\n      swap2\n      jump(tag_101)\n    tag_102:\n      dup3\n      add\n      swap2\n      swap1\n      0x00\n      mstore\n      keccak256(0x00, 0x20)\n      swap1\n    tag_103:\n      dup2\n      sload\n      dup2\n      mstore\n      swap1\n      0x01\n      add\n      swap1\n      0x20\n      add\n      dup1\n      dup4\n      gt\n      tag_103\n      jumpi\n      dup3\n      swap1\n      sub\n      0x1f\n      and\n      dup3\n      add\n      swap2\n    tag_101:\n      pop\n      pop\n      pop\n      pop\n      pop\n      swap1\n      pop\n        /* \"@openzeppelin/contracts/token/ERC20/ERC20.sol\":2154:2252  function name() public view virtual override returns (string memory) {... */\n      swap1\n      jump\t// out\n        /* \"contracts/Stom.sol\":878:922  mapping (address => Patient) public patients */\n    tag_30:\n      mstore(0x20, 0x09)\n      dup1\n      0x00\n      mstore\n      keccak256(0x00, 0x40)\n      0x00\n      swap2\n      pop\n      swap1\n      pop\n      dup1\n      0x00\n      add\n      dup1\n      sload\n      tag_104\n      swap1\n      tag_99\n      jump\t// in\n    tag_104:\n      dup1\n      0x1f\n      add\n      0x20\n      dup1\n      swap2\n      div\n      mul\n      0x20\n      add\n      mload(0x40)\n      swap1\n      dup2\n      add\n      0x40\n      mstore\n      dup1\n      swap3\n      swap2\n      swap1\n      dup2\n      dup2\n      mstore\n      0x20\n      add\n      dup3\n      dup1\n      sload\n      tag_105\n      swap1\n      tag_99\n      jump\t// in\n    tag_105:\n      dup1\n      iszero\n      tag_106\n      jumpi\n      dup1\n      0x1f\n      lt\n      tag_107\n      jumpi\n      0x0100\n      dup1\n      dup4\n      sload\n      div\n      mul\n      dup4\n      mstore\n      swap2\n      0x20\n      add\n      swap2\n      jump(tag_106)\n    tag_107:\n      dup3\n      add\n      swap2\n      swap1\n      0x00\n      mstore\n      keccak256(0x00, 0x20)\n      swap1\n    tag_108:\n      dup2\n      sload\n      dup2\n      mstore\n      swap1\n      0x01\n      add\n      swap1\n      0x20\n      add\n      dup1\n      dup4\n      gt\n      tag_108\n      jumpi\n      dup3\n      swap1\n      sub\n      0x1f\n      and\n      dup3\n      add\n      swap2\n    tag_106:\n      pop\n      pop\n      pop\n      pop\n      pop\n      swap1\n      dup1\n      0x01\n      add\n      dup1\n      sload\n      tag_109\n      swap1\n      tag_99\n      jump\t// in\n    tag_109:\n      dup1\n      0x1f\n      add\n      0x20\n      dup1\n      swap2\n      div\n      mul\n      0x20\n      add\n      mload(0x40)\n      swap1\n      dup2\n      add\n      0x40\n      mstore\n      dup1\n      swap3\n      swap2\n      swap1\n      dup2\n      dup2\n      mstore\n      0x20\n      add\n      dup3\n      dup1\n      sload\n      tag_110\n      swap1\n      tag_99\n      jump\t// in\n    tag_110:\n      dup1\n      iszero\n      tag_111\n      jumpi\n      dup1\n      0x1f\n      lt\n      tag_112\n      jumpi\n      0x0100\n      dup1\n      dup4\n      sload\n      div\n      mul\n      dup4\n      mstore\n      swap2\n      0x20\n      add\n      swap2\n      jump(tag_111)\n    tag_112:\n      dup3\n      add\n      swap2\n      swap1\n      0x00\n      mstore\n      keccak256(0x00, 0x20)\n      swap1\n    tag_113:\n      dup2\n      sload\n      dup2\n      mstore\n      swap1\n      0x01\n      add\n      swap1\n      0x20\n      add\n      dup1\n      dup4\n      gt\n      tag_113\n      jumpi\n      dup3\n      swap1\n      sub\n      0x1f\n      and\n      dup3\n      add\n      swap2\n    tag_111:\n      pop\n      pop\n      pop\n      pop\n      pop\n      swap1\n      pop\n      dup3\n      jump\t// out\n        /* \"@openzeppelin/contracts/token/ERC20/ERC20.sol\":4431:4628  function approve(address spender, uint256 amount) public virtual override returns (bool) {... */\n    tag_36:\n        /* \"@openzeppelin/contracts/token/ERC20/ERC20.sol\":4514:4518  bool */\n      0x00\n        /* \"@openzeppelin/contracts/token/ERC20/ERC20.sol\":4530:4543  address owner */\n      dup1\n        /* \"@openzeppelin/contracts/token/ERC20/ERC20.sol\":4546:4558  _msgSender() */\n      tag_115\n        /* \"@openzeppelin/contracts/token/ERC20/ERC20.sol\":4546:4556  _msgSender */\n      tag_116\n        /* \"@openzeppelin/contracts/token/ERC20/ERC20.sol\":4546:4558  _msgSender() */\n      jump\t// in\n    tag_115:\n        /* \"@openzeppelin/contracts/token/ERC20/ERC20.sol\":4530:4558  address owner = _msgSender() */\n      swap1\n      pop\n        /* \"@openzeppelin/contracts/token/ERC20/ERC20.sol\":4568:4600  _approve(owner, spender, amount) */\n      tag_117\n        /* \"@openzeppelin/contracts/token/ERC20/ERC20.sol\":4577:4582  owner */\n      dup2\n        /* \"@openzeppelin/contracts/token/ERC20/ERC20.sol\":4584:4591  spender */\n      dup6\n        /* \"@openzeppelin/contracts/token/ERC20/ERC20.sol\":4593:4599  amount */\n      dup6\n        /* \"@openzeppelin/contracts/token/ERC20/ERC20.sol\":4568:4576  _approve */\n      tag_118\n        /* \"@openzeppelin/contracts/token/ERC20/ERC20.sol\":4568:4600  _approve(owner, spender, amount) */\n      jump\t// in\n    tag_117:\n        /* \"@openzeppelin/contracts/token/ERC20/ERC20.sol\":4617:4621  true */\n      0x01\n        /* \"@openzeppelin/contracts/token/ERC20/ERC20.sol\":4610:4621  return true */\n      swap2\n      pop\n      pop\n        /* \"@openzeppelin/contracts/token/ERC20/ERC20.sol\":4431:4628  function approve(address spender, uint256 amount) public virtual override returns (bool) {... */\n      swap3\n      swap2\n      pop\n      pop\n      jump\t// out\n        /* \"@openzeppelin/contracts/token/ERC20/ERC20.sol\":3242:3348  function totalSupply() public view virtual override returns (uint256) {... */\n    tag_40:\n        /* \"@openzeppelin/contracts/token/ERC20/ERC20.sol\":3303:3310  uint256 */\n      0x00\n        /* \"@openzeppelin/contracts/token/ERC20/ERC20.sol\":3329:3341  _totalSupply */\n      sload(0x02)\n        /* \"@openzeppelin/contracts/token/ERC20/ERC20.sol\":3322:3341  return _totalSupply */\n      swap1\n      pop\n        /* \"@openzeppelin/contracts/token/ERC20/ERC20.sol\":3242:3348  function totalSupply() public view virtual override returns (uint256) {... */\n      swap1\n      jump\t// out\n        /* \"contracts/Stom.sol\":929:1106  function addPatient(string calldata _name, string calldata _surName) external {... */\n    tag_46:\n        /* \"contracts/Stom.sol\":1045:1050  _name */\n      dup4\n      dup4\n        /* \"contracts/Stom.sol\":1017:1025  patients */\n      0x09\n        /* \"contracts/Stom.sol\":1017:1037  patients[msg.sender] */\n      0x00\n        /* \"contracts/Stom.sol\":1026:1036  msg.sender */\n      caller\n        /* \"contracts/Stom.sol\":1017:1037  patients[msg.sender] */\n      0xffffffffffffffffffffffffffffffffffffffff\n      and\n      0xffffffffffffffffffffffffffffffffffffffff\n      and\n      dup2\n      mstore\n      0x20\n      add\n      swap1\n      dup2\n      mstore\n      0x20\n      add\n      0x00\n      keccak256\n        /* \"contracts/Stom.sol\":1017:1042  patients[msg.sender].name */\n      0x00\n      add\n        /* \"contracts/Stom.sol\":1017:1050  patients[msg.sender].name = _name */\n      swap2\n      dup3\n      tag_121\n      swap3\n      swap2\n      swap1\n      tag_122\n      jump\t// in\n    tag_121:\n      pop\n        /* \"contracts/Stom.sol\":1091:1099  _surName */\n      dup2\n      dup2\n        /* \"contracts/Stom.sol\":1060:1068  patients */\n      0x09\n        /* \"contracts/Stom.sol\":1060:1080  patients[msg.sender] */\n      0x00\n        /* \"contracts/Stom.sol\":1069:1079  msg.sender */\n      caller\n        /* \"contracts/Stom.sol\":1060:1080  patients[msg.sender] */\n      0xffffffffffffffffffffffffffffffffffffffff\n      and\n      0xffffffffffffffffffffffffffffffffffffffff\n      and\n      dup2\n      mstore\n      0x20\n      add\n      swap1\n      dup2\n      mstore\n      0x20\n      add\n      0x00\n      keccak256\n        /* \"contracts/Stom.sol\":1060:1088  patients[msg.sender].surName */\n      0x01\n      add\n        /* \"contracts/Stom.sol\":1060:1099  patients[msg.sender].surName = _surName */\n      swap2\n      dup3\n      tag_123\n      swap3\n      swap2\n      swap1\n      tag_122\n      jump\t// in\n    tag_123:\n      pop\n        /* \"contracts/Stom.sol\":929:1106  function addPatient(string calldata _name, string calldata _surName) external {... */\n      pop\n      pop\n      pop\n      pop\n      jump\t// out\n        /* \"@openzeppelin/contracts/token/ERC20/ERC20.sol\":5190:5476  function transferFrom(... */\n    tag_50:\n        /* \"@openzeppelin/contracts/token/ERC20/ERC20.sol\":5317:5321  bool */\n      0x00\n        /* \"@openzeppelin/contracts/token/ERC20/ERC20.sol\":5333:5348  address spender */\n      dup1\n        /* \"@openzeppelin/contracts/token/ERC20/ERC20.sol\":5351:5363  _msgSender() */\n      tag_125\n        /* \"@openzeppelin/contracts/token/ERC20/ERC20.sol\":5351:5361  _msgSender */\n      tag_116\n        /* \"@openzeppelin/contracts/token/ERC20/ERC20.sol\":5351:5363  _msgSender() */\n      jump\t// in\n    tag_125:\n        /* \"@openzeppelin/contracts/token/ERC20/ERC20.sol\":5333:5363  address spender = _msgSender() */\n      swap1\n      pop\n        /* \"@openzeppelin/contracts/token/ERC20/ERC20.sol\":5373:5411  _spendAllowance(from, spender, amount) */\n      tag_126\n        /* \"@openzeppelin/contracts/token/ERC20/ERC20.sol\":5389:5393  from */\n      dup6\n        /* \"@openzeppelin/contracts/token/ERC20/ERC20.sol\":5395:5402  spender */\n      dup3\n        /* \"@openzeppelin/contracts/token/ERC20/ERC20.sol\":5404:5410  amount */\n      dup6\n        /* \"@openzeppelin/contracts/token/ERC20/ERC20.sol\":5373:5388  _spendAllowance */\n      tag_127\n        /* \"@openzeppelin/contracts/token/ERC20/ERC20.sol\":5373:5411  _spendAllowance(from, spender, amount) */\n      jump\t// in\n    tag_126:\n        /* \"@openzeppelin/contracts/token/ERC20/ERC20.sol\":5421:5448  _transfer(from, to, amount) */\n      tag_128\n        /* \"@openzeppelin/contracts/token/ERC20/ERC20.sol\":5431:5435  from */\n      dup6\n        /* \"@openzeppelin/contracts/token/ERC20/ERC20.sol\":5437:5439  to */\n      dup6\n        /* \"@openzeppelin/contracts/token/ERC20/ERC20.sol\":5441:5447  amount */\n      dup6\n        /* \"@openzeppelin/contracts/token/ERC20/ERC20.sol\":5421:5430  _transfer */\n      tag_129\n        /* \"@openzeppelin/contracts/token/ERC20/ERC20.sol\":5421:5448  _transfer(from, to, amount) */\n      jump\t// in\n    tag_128:\n        /* \"@openzeppelin/contracts/token/ERC20/ERC20.sol\":5465:5469  true */\n      0x01\n        /* \"@openzeppelin/contracts/token/ERC20/ERC20.sol\":5458:5469  return true */\n      swap2\n      pop\n      pop\n        /* \"@openzeppelin/contracts/token/ERC20/ERC20.sol\":5190:5476  function transferFrom(... */\n      swap4\n      swap3\n      pop\n      pop\n      pop\n      jump\t// out\n        /* \"@openzeppelin/contracts/token/ERC20/ERC20.sol\":3091:3182  function decimals() public view virtual override returns (uint8) {... */\n    tag_53:\n        /* \"@openzeppelin/contracts/token/ERC20/ERC20.sol\":3149:3154  uint8 */\n      0x00\n        /* \"@openzeppelin/contracts/token/ERC20/ERC20.sol\":3173:3175  18 */\n      0x12\n        /* \"@openzeppelin/contracts/token/ERC20/ERC20.sol\":3166:3175  return 18 */\n      swap1\n      pop\n        /* \"@openzeppelin/contracts/token/ERC20/ERC20.sol\":3091:3182  function decimals() public view virtual override returns (uint8) {... */\n      swap1\n      jump\t// out\n        /* \"@openzeppelin/contracts/token/ERC20/ERC20.sol\":5871:6105  function increaseAllowance(address spender, uint256 addedValue) public virtual returns (bool) {... */\n    tag_58:\n        /* \"@openzeppelin/contracts/token/ERC20/ERC20.sol\":5959:5963  bool */\n      0x00\n        /* \"@openzeppelin/contracts/token/ERC20/ERC20.sol\":5975:5988  address owner */\n      dup1\n        /* \"@openzeppelin/contracts/token/ERC20/ERC20.sol\":5991:6003  _msgSender() */\n      tag_132\n        /* \"@openzeppelin/contracts/token/ERC20/ERC20.sol\":5991:6001  _msgSender */\n      tag_116\n        /* \"@openzeppelin/contracts/token/ERC20/ERC20.sol\":5991:6003  _msgSender() */\n      jump\t// in\n    tag_132:\n        /* \"@openzeppelin/contracts/token/ERC20/ERC20.sol\":5975:6003  address owner = _msgSender() */\n      swap1\n      pop\n        /* \"@openzeppelin/contracts/token/ERC20/ERC20.sol\":6013:6077  _approve(owner, spender, allowance(owner, spender) + addedValue) */\n      tag_133\n        /* \"@openzeppelin/contracts/token/ERC20/ERC20.sol\":6022:6027  owner */\n      dup2\n        /* \"@openzeppelin/contracts/token/ERC20/ERC20.sol\":6029:6036  spender */\n      dup6\n        /* \"@openzeppelin/contracts/token/ERC20/ERC20.sol\":6066:6076  addedValue */\n      dup6\n        /* \"@openzeppelin/contracts/token/ERC20/ERC20.sol\":6038:6063  allowance(owner, spender) */\n      tag_134\n        /* \"@openzeppelin/contracts/token/ERC20/ERC20.sol\":6048:6053  owner */\n      dup6\n        /* \"@openzeppelin/contracts/token/ERC20/ERC20.sol\":6055:6062  spender */\n      dup10\n        /* \"@openzeppelin/contracts/token/ERC20/ERC20.sol\":6038:6047  allowance */\n      tag_91\n        /* \"@openzeppelin/contracts/token/ERC20/ERC20.sol\":6038:6063  allowance(owner, spender) */\n      jump\t// in\n    tag_134:\n        /* \"@openzeppelin/contracts/token/ERC20/ERC20.sol\":6038:6076  allowance(owner, spender) + addedValue */\n      tag_135\n      swap2\n      swap1\n      tag_136\n      jump\t// in\n    tag_135:\n        /* \"@openzeppelin/contracts/token/ERC20/ERC20.sol\":6013:6021  _approve */\n      tag_118\n        /* \"@openzeppelin/contracts/token/ERC20/ERC20.sol\":6013:6077  _approve(owner, spender, allowance(owner, spender) + addedValue) */\n      jump\t// in\n    tag_133:\n        /* \"@openzeppelin/contracts/token/ERC20/ERC20.sol\":6094:6098  true */\n      0x01\n        /* \"@openzeppelin/contracts/token/ERC20/ERC20.sol\":6087:6098  return true */\n      swap2\n      pop\n      pop\n        /* \"@openzeppelin/contracts/token/ERC20/ERC20.sol\":5871:6105  function increaseAllowance(address spender, uint256 addedValue) public virtual returns (bool) {... */\n      swap3\n      swap2\n      pop\n      pop\n      jump\t// out\n        /* \"contracts/Stom.sol\":716:822  function getCount(address _who) public view returns(uint count) {... */\n    tag_62:\n        /* \"contracts/Stom.sol\":768:778  uint count */\n      0x00\n        /* \"contracts/Stom.sol\":797:802  visit */\n      0x06\n        /* \"contracts/Stom.sol\":797:808  visit[_who] */\n      0x00\n        /* \"contracts/Stom.sol\":803:807  _who */\n      dup4\n        /* \"contracts/Stom.sol\":797:808  visit[_who] */\n      0xffffffffffffffffffffffffffffffffffffffff\n      and\n      0xffffffffffffffffffffffffffffffffffffffff\n      and\n      dup2\n      mstore\n      0x20\n      add\n      swap1\n      dup2\n      mstore\n      0x20\n      add\n      0x00\n      keccak256\n        /* \"contracts/Stom.sol\":797:815  visit[_who].length */\n      dup1\n      sload\n      swap1\n      pop\n        /* \"contracts/Stom.sol\":790:815  return visit[_who].length */\n      swap1\n      pop\n        /* \"contracts/Stom.sol\":716:822  function getCount(address _who) public view returns(uint count) {... */\n      swap2\n      swap1\n      pop\n      jump\t// out\n        /* \"contracts/Stom.sol\":1112:1440  function serve (string calldata _name, string calldata _surName, ServiceEnum _whatService) external  {... */\n    tag_67:\n        /* \"contracts/Stom.sol\":1223:1227  this */\n      address\n        /* \"contracts/Stom.sol\":1223:1238  this.addPatient */\n      0xffffffffffffffffffffffffffffffffffffffff\n      and\n      0x239ee6c1\n        /* \"contracts/Stom.sol\":1239:1244  _name */\n      dup7\n      dup7\n        /* \"contracts/Stom.sol\":1246:1254  _surName */\n      dup7\n      dup7\n        /* \"contracts/Stom.sol\":1223:1255  this.addPatient(_name, _surName) */\n      mload(0x40)\n      dup6\n      0xffffffff\n      and\n      0xe0\n      shl\n      dup2\n      mstore\n      0x04\n      add\n      tag_139\n      swap5\n      swap4\n      swap3\n      swap2\n      swap1\n      tag_140\n      jump\t// in\n    tag_139:\n      0x00\n      mload(0x40)\n      dup1\n      dup4\n      sub\n      dup2\n      0x00\n      dup8\n      dup1\n      extcodesize\n      iszero\n      dup1\n      iszero\n      tag_141\n      jumpi\n      0x00\n      dup1\n      revert\n    tag_141:\n      pop\n      gas\n      call\n      iszero\n      dup1\n      iszero\n      tag_143\n      jumpi\n      returndatasize\n      0x00\n      dup1\n      returndatacopy\n      revert(0x00, returndatasize)\n    tag_143:\n      pop\n      pop\n      pop\n      pop\n        /* \"contracts/Stom.sol\":1265:1270  visit */\n      0x06\n        /* \"contracts/Stom.sol\":1265:1282  visit[msg.sender] */\n      0x00\n        /* \"contracts/Stom.sol\":1271:1281  msg.sender */\n      caller\n        /* \"contracts/Stom.sol\":1265:1282  visit[msg.sender] */\n      0xffffffffffffffffffffffffffffffffffffffff\n      and\n      0xffffffffffffffffffffffffffffffffffffffff\n      and\n      dup2\n      mstore\n      0x20\n      add\n      swap1\n      dup2\n      mstore\n      0x20\n      add\n      0x00\n      keccak256\n        /* \"contracts/Stom.sol\":1311:1312  1 */\n      0x01\n        /* \"contracts/Stom.sol\":1288:1308  getCount(msg.sender) */\n      tag_144\n        /* \"contracts/Stom.sol\":1297:1307  msg.sender */\n      caller\n        /* \"contracts/Stom.sol\":1288:1296  getCount */\n      tag_62\n        /* \"contracts/Stom.sol\":1288:1308  getCount(msg.sender) */\n      jump\t// in\n    tag_144:\n        /* \"contracts/Stom.sol\":1288:1312  getCount(msg.sender) + 1 */\n      tag_145\n      swap2\n      swap1\n      tag_136\n      jump\t// in\n    tag_145:\n        /* \"contracts/Stom.sol\":1265:1313  visit[msg.sender].push(getCount(msg.sender) + 1) */\n      swap1\n      dup1\n      0x01\n      dup2\n      sload\n      add\n      dup1\n      dup3\n      sstore\n      dup1\n      swap2\n      pop\n      pop\n      0x01\n      swap1\n      sub\n      swap1\n      0x00\n      mstore\n      keccak256(0x00, 0x20)\n      add\n      0x00\n      swap1\n      swap2\n      swap1\n      swap2\n      swap1\n      swap2\n      pop\n      sstore\n        /* \"contracts/Stom.sol\":1323:1366  approve(address(this), price[_whatService]) */\n      tag_147\n        /* \"contracts/Stom.sol\":1339:1343  this */\n      address\n        /* \"contracts/Stom.sol\":1346:1351  price */\n      0x05\n        /* \"contracts/Stom.sol\":1346:1365  price[_whatService] */\n      0x00\n        /* \"contracts/Stom.sol\":1352:1364  _whatService */\n      dup5\n        /* \"contracts/Stom.sol\":1346:1365  price[_whatService] */\n      0x03\n      dup2\n      gt\n      iszero\n      tag_148\n      jumpi\n      tag_149\n      tag_150\n      jump\t// in\n    tag_149:\n    tag_148:\n      0x03\n      dup2\n      gt\n      iszero\n      tag_151\n      jumpi\n      tag_152\n      tag_150\n      jump\t// in\n    tag_152:\n    tag_151:\n      dup2\n      mstore\n      0x20\n      add\n      swap1\n      dup2\n      mstore\n      0x20\n      add\n      0x00\n      keccak256\n      sload\n        /* \"contracts/Stom.sol\":1323:1330  approve */\n      tag_36\n        /* \"contracts/Stom.sol\":1323:1366  approve(address(this), price[_whatService]) */\n      jump\t// in\n    tag_147:\n      pop\n        /* \"contracts/Stom.sol\":1376:1433  _transfer(msg.sender, address(this), price[_whatService]) */\n      tag_153\n        /* \"contracts/Stom.sol\":1386:1396  msg.sender */\n      caller\n        /* \"contracts/Stom.sol\":1406:1410  this */\n      address\n        /* \"contracts/Stom.sol\":1413:1418  price */\n      0x05\n        /* \"contracts/Stom.sol\":1413:1432  price[_whatService] */\n      0x00\n        /* \"contracts/Stom.sol\":1419:1431  _whatService */\n      dup6\n        /* \"contracts/Stom.sol\":1413:1432  price[_whatService] */\n      0x03\n      dup2\n      gt\n      iszero\n      tag_154\n      jumpi\n      tag_155\n      tag_150\n      jump\t// in\n    tag_155:\n    tag_154:\n      0x03\n      dup2\n      gt\n      iszero\n      tag_156\n      jumpi\n      tag_157\n      tag_150\n      jump\t// in\n    tag_157:\n    tag_156:\n      dup2\n      mstore\n      0x20\n      add\n      swap1\n      dup2\n      mstore\n      0x20\n      add\n      0x00\n      keccak256\n      sload\n        /* \"contracts/Stom.sol\":1376:1385  _transfer */\n      tag_129\n        /* \"contracts/Stom.sol\":1376:1433  _transfer(msg.sender, address(this), price[_whatService]) */\n      jump\t// in\n    tag_153:\n        /* \"contracts/Stom.sol\":1112:1440  function serve (string calldata _name, string calldata _surName, ServiceEnum _whatService) external  {... */\n      pop\n      pop\n      pop\n      pop\n      pop\n      jump\t// out\n        /* \"@openzeppelin/contracts/token/ERC20/ERC20.sol\":3406:3531  function balanceOf(address account) public view virtual override returns (uint256) {... */\n    tag_70:\n        /* \"@openzeppelin/contracts/token/ERC20/ERC20.sol\":3480:3487  uint256 */\n      0x00\n        /* \"@openzeppelin/contracts/token/ERC20/ERC20.sol\":3506:3515  _balances */\n      dup1\n        /* \"@openzeppelin/contracts/token/ERC20/ERC20.sol\":3506:3524  _balances[account] */\n      0x00\n        /* \"@openzeppelin/contracts/token/ERC20/ERC20.sol\":3516:3523  account */\n      dup4\n        /* \"@openzeppelin/contracts/token/ERC20/ERC20.sol\":3506:3524  _balances[account] */\n      0xffffffffffffffffffffffffffffffffffffffff\n      and\n      0xffffffffffffffffffffffffffffffffffffffff\n      and\n      dup2\n      mstore\n      0x20\n      add\n      swap1\n      dup2\n      mstore\n      0x20\n      add\n      0x00\n      keccak256\n      sload\n        /* \"@openzeppelin/contracts/token/ERC20/ERC20.sol\":3499:3524  return _balances[account] */\n      swap1\n      pop\n        /* \"@openzeppelin/contracts/token/ERC20/ERC20.sol\":3406:3531  function balanceOf(address account) public view virtual override returns (uint256) {... */\n      swap2\n      swap1\n      pop\n      jump\t// out\n        /* \"@openzeppelin/contracts/token/ERC20/ERC20.sol\":2365:2467  function symbol() public view virtual override returns (string memory) {... */\n    tag_73:\n        /* \"@openzeppelin/contracts/token/ERC20/ERC20.sol\":2421:2434  string memory */\n      0x60\n        /* \"@openzeppelin/contracts/token/ERC20/ERC20.sol\":2453:2460  _symbol */\n      0x04\n        /* \"@openzeppelin/contracts/token/ERC20/ERC20.sol\":2446:2460  return _symbol */\n      dup1\n      sload\n      tag_160\n      swap1\n      tag_99\n      jump\t// in\n    tag_160:\n      dup1\n      0x1f\n      add\n      0x20\n      dup1\n      swap2\n      div\n      mul\n      0x20\n      add\n      mload(0x40)\n      swap1\n      dup2\n      add\n      0x40\n      mstore\n      dup1\n      swap3\n      swap2\n      swap1\n      dup2\n      dup2\n      mstore\n      0x20\n      add\n      dup3\n      dup1\n      sload\n      tag_161\n      swap1\n      tag_99\n      jump\t// in\n    tag_161:\n      dup1\n      iszero\n      tag_162\n      jumpi\n      dup1\n      0x1f\n      lt\n      tag_163\n      jumpi\n      0x0100\n      dup1\n      dup4\n      sload\n      div\n      mul\n      dup4\n      mstore\n      swap2\n      0x20\n      add\n      swap2\n      jump(tag_162)\n    tag_163:\n      dup3\n      add\n      swap2\n      swap1\n      0x00\n      mstore\n      keccak256(0x00, 0x20)\n      swap1\n    tag_164:\n      dup2\n      sload\n      dup2\n      mstore\n      swap1\n      0x01\n      add\n      swap1\n      0x20\n      add\n      dup1\n      dup4\n      gt\n      tag_164\n      jumpi\n      dup3\n      swap1\n      sub\n      0x1f\n      and\n      dup3\n      add\n      swap2\n    tag_162:\n      pop\n      pop\n      pop\n      pop\n      pop\n      swap1\n      pop\n        /* \"@openzeppelin/contracts/token/ERC20/ERC20.sol\":2365:2467  function symbol() public view virtual override returns (string memory) {... */\n      swap1\n      jump\t// out\n        /* \"@openzeppelin/contracts/token/ERC20/ERC20.sol\":6592:7019  function decreaseAllowance(address spender, uint256 subtractedValue) public virtual returns (bool) {... */\n    tag_77:\n        /* \"@openzeppelin/contracts/token/ERC20/ERC20.sol\":6685:6689  bool */\n      0x00\n        /* \"@openzeppelin/contracts/token/ERC20/ERC20.sol\":6701:6714  address owner */\n      dup1\n        /* \"@openzeppelin/contracts/token/ERC20/ERC20.sol\":6717:6729  _msgSender() */\n      tag_166\n        /* \"@openzeppelin/contracts/token/ERC20/ERC20.sol\":6717:6727  _msgSender */\n      tag_116\n        /* \"@openzeppelin/contracts/token/ERC20/ERC20.sol\":6717:6729  _msgSender() */\n      jump\t// in\n    tag_166:\n        /* \"@openzeppelin/contracts/token/ERC20/ERC20.sol\":6701:6729  address owner = _msgSender() */\n      swap1\n      pop\n        /* \"@openzeppelin/contracts/token/ERC20/ERC20.sol\":6739:6763  uint256 currentAllowance */\n      0x00\n        /* \"@openzeppelin/contracts/token/ERC20/ERC20.sol\":6766:6791  allowance(owner, spender) */\n      tag_167\n        /* \"@openzeppelin/contracts/token/ERC20/ERC20.sol\":6776:6781  owner */\n      dup3\n        /* \"@openzeppelin/contracts/token/ERC20/ERC20.sol\":6783:6790  spender */\n      dup7\n        /* \"@openzeppelin/contracts/token/ERC20/ERC20.sol\":6766:6775  allowance */\n      tag_91\n        /* \"@openzeppelin/contracts/token/ERC20/ERC20.sol\":6766:6791  allowance(owner, spender) */\n      jump\t// in\n    tag_167:\n        /* \"@openzeppelin/contracts/token/ERC20/ERC20.sol\":6739:6791  uint256 currentAllowance = allowance(owner, spender) */\n      swap1\n      pop\n        /* \"@openzeppelin/contracts/token/ERC20/ERC20.sol\":6829:6844  subtractedValue */\n      dup4\n        /* \"@openzeppelin/contracts/token/ERC20/ERC20.sol\":6809:6825  currentAllowance */\n      dup2\n        /* \"@openzeppelin/contracts/token/ERC20/ERC20.sol\":6809:6844  currentAllowance >= subtractedValue */\n      lt\n      iszero\n        /* \"@openzeppelin/contracts/token/ERC20/ERC20.sol\":6801:6886  require(currentAllowance >= subtractedValue, \"ERC20: decreased allowance below zero\") */\n      tag_168\n      jumpi\n      mload(0x40)\n      0x08c379a000000000000000000000000000000000000000000000000000000000\n      dup2\n      mstore\n      0x04\n      add\n      tag_169\n      swap1\n      tag_170\n      jump\t// in\n    tag_169:\n      mload(0x40)\n      dup1\n      swap2\n      sub\n      swap1\n      revert\n    tag_168:\n        /* \"@openzeppelin/contracts/token/ERC20/ERC20.sol\":6920:6980  _approve(owner, spender, currentAllowance - subtractedValue) */\n      tag_171\n        /* \"@openzeppelin/contracts/token/ERC20/ERC20.sol\":6929:6934  owner */\n      dup3\n        /* \"@openzeppelin/contracts/token/ERC20/ERC20.sol\":6936:6943  spender */\n      dup7\n        /* \"@openzeppelin/contracts/token/ERC20/ERC20.sol\":6964:6979  subtractedValue */\n      dup7\n        /* \"@openzeppelin/contracts/token/ERC20/ERC20.sol\":6945:6961  currentAllowance */\n      dup5\n        /* \"@openzeppelin/contracts/token/ERC20/ERC20.sol\":6945:6979  currentAllowance - subtractedValue */\n      sub\n        /* \"@openzeppelin/contracts/token/ERC20/ERC20.sol\":6920:6928  _approve */\n      tag_118\n        /* \"@openzeppelin/contracts/token/ERC20/ERC20.sol\":6920:6980  _approve(owner, spender, currentAllowance - subtractedValue) */\n      jump\t// in\n    tag_171:\n        /* \"@openzeppelin/contracts/token/ERC20/ERC20.sol\":7008:7012  true */\n      0x01\n        /* \"@openzeppelin/contracts/token/ERC20/ERC20.sol\":7001:7012  return true */\n      swap3\n      pop\n      pop\n      pop\n        /* \"@openzeppelin/contracts/token/ERC20/ERC20.sol\":6592:7019  function decreaseAllowance(address spender, uint256 subtractedValue) public virtual returns (bool) {... */\n      swap3\n      swap2\n      pop\n      pop\n      jump\t// out\n        /* \"@openzeppelin/contracts/token/ERC20/ERC20.sol\":3727:3916  function transfer(address to, uint256 amount) public virtual override returns (bool) {... */\n    tag_81:\n        /* \"@openzeppelin/contracts/token/ERC20/ERC20.sol\":3806:3810  bool */\n      0x00\n        /* \"@openzeppelin/contracts/token/ERC20/ERC20.sol\":3822:3835  address owner */\n      dup1\n        /* \"@openzeppelin/contracts/token/ERC20/ERC20.sol\":3838:3850  _msgSender() */\n      tag_173\n        /* \"@openzeppelin/contracts/token/ERC20/ERC20.sol\":3838:3848  _msgSender */\n      tag_116\n        /* \"@openzeppelin/contracts/token/ERC20/ERC20.sol\":3838:3850  _msgSender() */\n      jump\t// in\n    tag_173:\n        /* \"@openzeppelin/contracts/token/ERC20/ERC20.sol\":3822:3850  address owner = _msgSender() */\n      swap1\n      pop\n        /* \"@openzeppelin/contracts/token/ERC20/ERC20.sol\":3860:3888  _transfer(owner, to, amount) */\n      tag_174\n        /* \"@openzeppelin/contracts/token/ERC20/ERC20.sol\":3870:3875  owner */\n      dup2\n        /* \"@openzeppelin/contracts/token/ERC20/ERC20.sol\":3877:3879  to */\n      dup6\n        /* \"@openzeppelin/contracts/token/ERC20/ERC20.sol\":3881:3887  amount */\n      dup6\n        /* \"@openzeppelin/contracts/token/ERC20/ERC20.sol\":3860:3869  _transfer */\n      tag_129\n        /* \"@openzeppelin/contracts/token/ERC20/ERC20.sol\":3860:3888  _transfer(owner, to, amount) */\n      jump\t// in\n    tag_174:\n        /* \"@openzeppelin/contracts/token/ERC20/ERC20.sol\":3905:3909  true */\n      0x01\n        /* \"@openzeppelin/contracts/token/ERC20/ERC20.sol\":3898:3909  return true */\n      swap2\n      pop\n      pop\n        /* \"@openzeppelin/contracts/token/ERC20/ERC20.sol\":3727:3916  function transfer(address to, uint256 amount) public virtual override returns (bool) {... */\n      swap3\n      swap2\n      pop\n      pop\n      jump\t// out\n        /* \"contracts/Stom.sol\":457:498  mapping(ServiceEnum => uint) public price */\n    tag_86:\n      mstore(0x20, 0x05)\n      dup1\n      0x00\n      mstore\n      keccak256(0x00, 0x40)\n      0x00\n      swap2\n      pop\n      swap1\n      pop\n      sload\n      dup2\n      jump\t// out\n        /* \"@openzeppelin/contracts/token/ERC20/ERC20.sol\":3974:4123  function allowance(address owner, address spender) public view virtual override returns (uint256) {... */\n    tag_91:\n        /* \"@openzeppelin/contracts/token/ERC20/ERC20.sol\":4063:4070  uint256 */\n      0x00\n        /* \"@openzeppelin/contracts/token/ERC20/ERC20.sol\":4089:4100  _allowances */\n      0x01\n        /* \"@openzeppelin/contracts/token/ERC20/ERC20.sol\":4089:4107  _allowances[owner] */\n      0x00\n        /* \"@openzeppelin/contracts/token/ERC20/ERC20.sol\":4101:4106  owner */\n      dup5\n        /* \"@openzeppelin/contracts/token/ERC20/ERC20.sol\":4089:4107  _allowances[owner] */\n      0xffffffffffffffffffffffffffffffffffffffff\n      and\n      0xffffffffffffffffffffffffffffffffffffffff\n      and\n      dup2\n      mstore\n      0x20\n      add\n      swap1\n      dup2\n      mstore\n      0x20\n      add\n      0x00\n      keccak256\n        /* \"@openzeppelin/contracts/token/ERC20/ERC20.sol\":4089:4116  _allowances[owner][spender] */\n      0x00\n        /* \"@openzeppelin/contracts/token/ERC20/ERC20.sol\":4108:4115  spender */\n      dup4\n        /* \"@openzeppelin/contracts/token/ERC20/ERC20.sol\":4089:4116  _allowances[owner][spender] */\n      0xffffffffffffffffffffffffffffffffffffffff\n      and\n      0xffffffffffffffffffffffffffffffffffffffff\n      and\n      dup2\n      mstore\n      0x20\n      add\n      swap1\n      dup2\n      mstore\n      0x20\n      add\n      0x00\n      keccak256\n      sload\n        /* \"@openzeppelin/contracts/token/ERC20/ERC20.sol\":4082:4116  return _allowances[owner][spender] */\n      swap1\n      pop\n        /* \"@openzeppelin/contracts/token/ERC20/ERC20.sol\":3974:4123  function allowance(address owner, address spender) public view virtual override returns (uint256) {... */\n      swap3\n      swap2\n      pop\n      pop\n      jump\t// out\n        /* \"contracts/Stom.sol\":504:543  mapping(address => uint[]) public visit */\n    tag_95:\n      mstore(0x20, 0x06)\n      dup2\n      0x00\n      mstore\n      keccak256(0x00, 0x40)\n      dup2\n      dup2\n      sload\n      dup2\n      lt\n      tag_176\n      jumpi\n      0x00\n      dup1\n      revert\n    tag_176:\n      swap1\n      0x00\n      mstore\n      keccak256(0x00, 0x20)\n      add\n      0x00\n      swap2\n      pop\n      swap2\n      pop\n      pop\n      sload\n      dup2\n      jump\t// out\n        /* \"@openzeppelin/contracts/utils/Context.sol\":640:736  function _msgSender() internal view virtual returns (address) {... */\n    tag_116:\n        /* \"@openzeppelin/contracts/utils/Context.sol\":693:700  address */\n      0x00\n        /* \"@openzeppelin/contracts/utils/Context.sol\":719:729  msg.sender */\n      caller\n        /* \"@openzeppelin/contracts/utils/Context.sol\":712:729  return msg.sender */\n      swap1\n      pop\n        /* \"@openzeppelin/contracts/utils/Context.sol\":640:736  function _msgSender() internal view virtual returns (address) {... */\n      swap1\n      jump\t// out\n        /* \"@openzeppelin/contracts/token/ERC20/ERC20.sol\":10504:10874  function _approve(... */\n    tag_118:\n        /* \"@openzeppelin/contracts/token/ERC20/ERC20.sol\":10652:10653  0 */\n      0x00\n        /* \"@openzeppelin/contracts/token/ERC20/ERC20.sol\":10635:10654  owner != address(0) */\n      0xffffffffffffffffffffffffffffffffffffffff\n      and\n        /* \"@openzeppelin/contracts/token/ERC20/ERC20.sol\":10635:10640  owner */\n      dup4\n        /* \"@openzeppelin/contracts/token/ERC20/ERC20.sol\":10635:10654  owner != address(0) */\n      0xffffffffffffffffffffffffffffffffffffffff\n      and\n      sub\n        /* \"@openzeppelin/contracts/token/ERC20/ERC20.sol\":10627:10695  require(owner != address(0), \"ERC20: approve from the zero address\") */\n      tag_180\n      jumpi\n      mload(0x40)\n      0x08c379a000000000000000000000000000000000000000000000000000000000\n      dup2\n      mstore\n      0x04\n      add\n      tag_181\n      swap1\n      tag_182\n      jump\t// in\n    tag_181:\n      mload(0x40)\n      dup1\n      swap2\n      sub\n      swap1\n      revert\n    tag_180:\n        /* \"@openzeppelin/contracts/token/ERC20/ERC20.sol\":10732:10733  0 */\n      0x00\n        /* \"@openzeppelin/contracts/token/ERC20/ERC20.sol\":10713:10734  spender != address(0) */\n      0xffffffffffffffffffffffffffffffffffffffff\n      and\n        /* \"@openzeppelin/contracts/token/ERC20/ERC20.sol\":10713:10720  spender */\n      dup3\n        /* \"@openzeppelin/contracts/token/ERC20/ERC20.sol\":10713:10734  spender != address(0) */\n      0xffffffffffffffffffffffffffffffffffffffff\n      and\n      sub\n        /* \"@openzeppelin/contracts/token/ERC20/ERC20.sol\":10705:10773  require(spender != address(0), \"ERC20: approve to the zero address\") */\n      tag_183\n      jumpi\n      mload(0x40)\n      0x08c379a000000000000000000000000000000000000000000000000000000000\n      dup2\n      mstore\n      0x04\n      add\n      tag_184\n      swap1\n      tag_185\n      jump\t// in\n    tag_184:\n      mload(0x40)\n      dup1\n      swap2\n      sub\n      swap1\n      revert\n    tag_183:\n        /* \"@openzeppelin/contracts/token/ERC20/ERC20.sol\":10814:10820  amount */\n      dup1\n        /* \"@openzeppelin/contracts/token/ERC20/ERC20.sol\":10784:10795  _allowances */\n      0x01\n        /* \"@openzeppelin/contracts/token/ERC20/ERC20.sol\":10784:10802  _allowances[owner] */\n      0x00\n        /* \"@openzeppelin/contracts/token/ERC20/ERC20.sol\":10796:10801  owner */\n      dup6\n        /* \"@openzeppelin/contracts/token/ERC20/ERC20.sol\":10784:10802  _allowances[owner] */\n      0xffffffffffffffffffffffffffffffffffffffff\n      and\n      0xffffffffffffffffffffffffffffffffffffffff\n      and\n      dup2\n      mstore\n      0x20\n      add\n      swap1\n      dup2\n      mstore\n      0x20\n      add\n      0x00\n      keccak256\n        /* \"@openzeppelin/contracts/token/ERC20/ERC20.sol\":10784:10811  _allowances[owner][spender] */\n      0x00\n        /* \"@openzeppelin/contracts/token/ERC20/ERC20.sol\":10803:10810  spender */\n      dup5\n        /* \"@openzeppelin/contracts/token/ERC20/ERC20.sol\":10784:10811  _allowances[owner][spender] */\n      0xffffffffffffffffffffffffffffffffffffffff\n      and\n      0xffffffffffffffffffffffffffffffffffffffff\n      and\n      dup2\n      mstore\n      0x20\n      add\n      swap1\n      dup2\n      mstore\n      0x20\n      add\n      0x00\n      keccak256\n        /* \"@openzeppelin/contracts/token/ERC20/ERC20.sol\":10784:10820  _allowances[owner][spender] = amount */\n      dup2\n      swap1\n      sstore\n      pop\n        /* \"@openzeppelin/contracts/token/ERC20/ERC20.sol\":10851:10858  spender */\n      dup2\n        /* \"@openzeppelin/contracts/token/ERC20/ERC20.sol\":10835:10867  Approval(owner, spender, amount) */\n      0xffffffffffffffffffffffffffffffffffffffff\n      and\n        /* \"@openzeppelin/contracts/token/ERC20/ERC20.sol\":10844:10849  owner */\n      dup4\n        /* \"@openzeppelin/contracts/token/ERC20/ERC20.sol\":10835:10867  Approval(owner, spender, amount) */\n      0xffffffffffffffffffffffffffffffffffffffff\n      and\n      0x8c5be1e5ebec7d5bd14f71427d1e84f3dd0314c0f7b2291e5b200ac8c7c3b925\n        /* \"@openzeppelin/contracts/token/ERC20/ERC20.sol\":10860:10866  amount */\n      dup4\n        /* \"@openzeppelin/contracts/token/ERC20/ERC20.sol\":10835:10867  Approval(owner, spender, amount) */\n      mload(0x40)\n      tag_186\n      swap2\n      swap1\n      tag_42\n      jump\t// in\n    tag_186:\n      mload(0x40)\n      dup1\n      swap2\n      sub\n      swap1\n      log3\n        /* \"@openzeppelin/contracts/token/ERC20/ERC20.sol\":10504:10874  function _approve(... */\n      pop\n      pop\n      pop\n      jump\t// out\n        /* \"@openzeppelin/contracts/token/ERC20/ERC20.sol\":11155:11596  function _spendAllowance(... */\n    tag_127:\n        /* \"@openzeppelin/contracts/token/ERC20/ERC20.sol\":11285:11309  uint256 currentAllowance */\n      0x00\n        /* \"@openzeppelin/contracts/token/ERC20/ERC20.sol\":11312:11337  allowance(owner, spender) */\n      tag_188\n        /* \"@openzeppelin/contracts/token/ERC20/ERC20.sol\":11322:11327  owner */\n      dup5\n        /* \"@openzeppelin/contracts/token/ERC20/ERC20.sol\":11329:11336  spender */\n      dup5\n        /* \"@openzeppelin/contracts/token/ERC20/ERC20.sol\":11312:11321  allowance */\n      tag_91\n        /* \"@openzeppelin/contracts/token/ERC20/ERC20.sol\":11312:11337  allowance(owner, spender) */\n      jump\t// in\n    tag_188:\n        /* \"@openzeppelin/contracts/token/ERC20/ERC20.sol\":11285:11337  uint256 currentAllowance = allowance(owner, spender) */\n      swap1\n      pop\n        /* \"@openzeppelin/contracts/token/ERC20/ERC20.sol\":11371:11388  type(uint256).max */\n      0xffffffffffffffffffffffffffffffffffffffffffffffffffffffffffffffff\n        /* \"@openzeppelin/contracts/token/ERC20/ERC20.sol\":11351:11367  currentAllowance */\n      dup2\n        /* \"@openzeppelin/contracts/token/ERC20/ERC20.sol\":11351:11388  currentAllowance != type(uint256).max */\n      eq\n        /* \"@openzeppelin/contracts/token/ERC20/ERC20.sol\":11347:11590  if (currentAllowance != type(uint256).max) {... */\n      tag_189\n      jumpi\n        /* \"@openzeppelin/contracts/token/ERC20/ERC20.sol\":11432:11438  amount */\n      dup2\n        /* \"@openzeppelin/contracts/token/ERC20/ERC20.sol\":11412:11428  currentAllowance */\n      dup2\n        /* \"@openzeppelin/contracts/token/ERC20/ERC20.sol\":11412:11438  currentAllowance >= amount */\n      lt\n      iszero\n        /* \"@openzeppelin/contracts/token/ERC20/ERC20.sol\":11404:11472  require(currentAllowance >= amount, \"ERC20: insufficient allowance\") */\n      tag_190\n      jumpi\n      mload(0x40)\n      0x08c379a000000000000000000000000000000000000000000000000000000000\n      dup2\n      mstore\n      0x04\n      add\n      tag_191\n      swap1\n      tag_192\n      jump\t// in\n    tag_191:\n      mload(0x40)\n      dup1\n      swap2\n      sub\n      swap1\n      revert\n    tag_190:\n        /* \"@openzeppelin/contracts/token/ERC20/ERC20.sol\":11514:11565  _approve(owner, spender, currentAllowance - amount) */\n      tag_193\n        /* \"@openzeppelin/contracts/token/ERC20/ERC20.sol\":11523:11528  owner */\n      dup5\n        /* \"@openzeppelin/contracts/token/ERC20/ERC20.sol\":11530:11537  spender */\n      dup5\n        /* \"@openzeppelin/contracts/token/ERC20/ERC20.sol\":11558:11564  amount */\n      dup5\n        /* \"@openzeppelin/contracts/token/ERC20/ERC20.sol\":11539:11555  currentAllowance */\n      dup5\n        /* \"@openzeppelin/contracts/token/ERC20/ERC20.sol\":11539:11564  currentAllowance - amount */\n      sub\n        /* \"@openzeppelin/contracts/token/ERC20/ERC20.sol\":11514:11522  _approve */\n      tag_118\n        /* \"@openzeppelin/contracts/token/ERC20/ERC20.sol\":11514:11565  _approve(owner, spender, currentAllowance - amount) */\n      jump\t// in\n    tag_193:\n        /* \"@openzeppelin/contracts/token/ERC20/ERC20.sol\":11347:11590  if (currentAllowance != type(uint256).max) {... */\n    tag_189:\n        /* \"@openzeppelin/contracts/token/ERC20/ERC20.sol\":11275:11596  {... */\n      pop\n        /* \"@openzeppelin/contracts/token/ERC20/ERC20.sol\":11155:11596  function _spendAllowance(... */\n      pop\n      pop\n      pop\n      jump\t// out\n        /* \"@openzeppelin/contracts/token/ERC20/ERC20.sol\":7473:8291  function _transfer(... */\n    tag_129:\n        /* \"@openzeppelin/contracts/token/ERC20/ERC20.sol\":7615:7616  0 */\n      0x00\n        /* \"@openzeppelin/contracts/token/ERC20/ERC20.sol\":7599:7617  from != address(0) */\n      0xffffffffffffffffffffffffffffffffffffffff\n      and\n        /* \"@openzeppelin/contracts/token/ERC20/ERC20.sol\":7599:7603  from */\n      dup4\n        /* \"@openzeppelin/contracts/token/ERC20/ERC20.sol\":7599:7617  from != address(0) */\n      0xffffffffffffffffffffffffffffffffffffffff\n      and\n      sub\n        /* \"@openzeppelin/contracts/token/ERC20/ERC20.sol\":7591:7659  require(from != address(0), \"ERC20: transfer from the zero address\") */\n      tag_195\n      jumpi\n      mload(0x40)\n      0x08c379a000000000000000000000000000000000000000000000000000000000\n      dup2\n      mstore\n      0x04\n      add\n      tag_196\n      swap1\n      tag_197\n      jump\t// in\n    tag_196:\n      mload(0x40)\n      dup1\n      swap2\n      sub\n      swap1\n      revert\n    tag_195:\n        /* \"@openzeppelin/contracts/token/ERC20/ERC20.sol\":7691:7692  0 */\n      0x00\n        /* \"@openzeppelin/contracts/token/ERC20/ERC20.sol\":7677:7693  to != address(0) */\n      0xffffffffffffffffffffffffffffffffffffffff\n      and\n        /* \"@openzeppelin/contracts/token/ERC20/ERC20.sol\":7677:7679  to */\n      dup3\n        /* \"@openzeppelin/contracts/token/ERC20/ERC20.sol\":7677:7693  to != address(0) */\n      0xffffffffffffffffffffffffffffffffffffffff\n      and\n      sub\n        /* \"@openzeppelin/contracts/token/ERC20/ERC20.sol\":7669:7733  require(to != address(0), \"ERC20: transfer to the zero address\") */\n      tag_198\n      jumpi\n      mload(0x40)\n      0x08c379a000000000000000000000000000000000000000000000000000000000\n      dup2\n      mstore\n      0x04\n      add\n      tag_199\n      swap1\n      tag_200\n      jump\t// in\n    tag_199:\n      mload(0x40)\n      dup1\n      swap2\n      sub\n      swap1\n      revert\n    tag_198:\n        /* \"@openzeppelin/contracts/token/ERC20/ERC20.sol\":7744:7782  _beforeTokenTransfer(from, to, amount) */\n      tag_201\n        /* \"@openzeppelin/contracts/token/ERC20/ERC20.sol\":7765:7769  from */\n      dup4\n        /* \"@openzeppelin/contracts/token/ERC20/ERC20.sol\":7771:7773  to */\n      dup4\n        /* \"@openzeppelin/contracts/token/ERC20/ERC20.sol\":7775:7781  amount */\n      dup4\n        /* \"@openzeppelin/contracts/token/ERC20/ERC20.sol\":7744:7764  _beforeTokenTransfer */\n      tag_202\n        /* \"@openzeppelin/contracts/token/ERC20/ERC20.sol\":7744:7782  _beforeTokenTransfer(from, to, amount) */\n      jump\t// in\n    tag_201:\n        /* \"@openzeppelin/contracts/token/ERC20/ERC20.sol\":7793:7812  uint256 fromBalance */\n      0x00\n        /* \"@openzeppelin/contracts/token/ERC20/ERC20.sol\":7815:7824  _balances */\n      dup1\n        /* \"@openzeppelin/contracts/token/ERC20/ERC20.sol\":7815:7830  _balances[from] */\n      0x00\n        /* \"@openzeppelin/contracts/token/ERC20/ERC20.sol\":7825:7829  from */\n      dup6\n        /* \"@openzeppelin/contracts/token/ERC20/ERC20.sol\":7815:7830  _balances[from] */\n      0xffffffffffffffffffffffffffffffffffffffff\n      and\n      0xffffffffffffffffffffffffffffffffffffffff\n      and\n      dup2\n      mstore\n      0x20\n      add\n      swap1\n      dup2\n      mstore\n      0x20\n      add\n      0x00\n      keccak256\n      sload\n        /* \"@openzeppelin/contracts/token/ERC20/ERC20.sol\":7793:7830  uint256 fromBalance = _balances[from] */\n      swap1\n      pop\n        /* \"@openzeppelin/contracts/token/ERC20/ERC20.sol\":7863:7869  amount */\n      dup2\n        /* \"@openzeppelin/contracts/token/ERC20/ERC20.sol\":7848:7859  fromBalance */\n      dup2\n        /* \"@openzeppelin/contracts/token/ERC20/ERC20.sol\":7848:7869  fromBalance >= amount */\n      lt\n      iszero\n        /* \"@openzeppelin/contracts/token/ERC20/ERC20.sol\":7840:7912  require(fromBalance >= amount, \"ERC20: transfer amount exceeds balance\") */\n      tag_203\n      jumpi\n      mload(0x40)\n      0x08c379a000000000000000000000000000000000000000000000000000000000\n      dup2\n      mstore\n      0x04\n      add\n      tag_204\n      swap1\n      tag_205\n      jump\t// in\n    tag_204:\n      mload(0x40)\n      dup1\n      swap2\n      sub\n      swap1\n      revert\n    tag_203:\n        /* \"@openzeppelin/contracts/token/ERC20/ERC20.sol\":7978:7984  amount */\n      dup2\n        /* \"@openzeppelin/contracts/token/ERC20/ERC20.sol\":7964:7975  fromBalance */\n      dup2\n        /* \"@openzeppelin/contracts/token/ERC20/ERC20.sol\":7964:7984  fromBalance - amount */\n      sub\n        /* \"@openzeppelin/contracts/token/ERC20/ERC20.sol\":7946:7955  _balances */\n      0x00\n        /* \"@openzeppelin/contracts/token/ERC20/ERC20.sol\":7946:7961  _balances[from] */\n      dup1\n        /* \"@openzeppelin/contracts/token/ERC20/ERC20.sol\":7956:7960  from */\n      dup7\n        /* \"@openzeppelin/contracts/token/ERC20/ERC20.sol\":7946:7961  _balances[from] */\n      0xffffffffffffffffffffffffffffffffffffffff\n      and\n      0xffffffffffffffffffffffffffffffffffffffff\n      and\n      dup2\n      mstore\n      0x20\n      add\n      swap1\n      dup2\n      mstore\n      0x20\n      add\n      0x00\n      keccak256\n        /* \"@openzeppelin/contracts/token/ERC20/ERC20.sol\":7946:7984  _balances[from] = fromBalance - amount */\n      dup2\n      swap1\n      sstore\n      pop\n        /* \"@openzeppelin/contracts/token/ERC20/ERC20.sol\":8178:8184  amount */\n      dup2\n        /* \"@openzeppelin/contracts/token/ERC20/ERC20.sol\":8161:8170  _balances */\n      0x00\n        /* \"@openzeppelin/contracts/token/ERC20/ERC20.sol\":8161:8174  _balances[to] */\n      dup1\n        /* \"@openzeppelin/contracts/token/ERC20/ERC20.sol\":8171:8173  to */\n      dup6\n        /* \"@openzeppelin/contracts/token/ERC20/ERC20.sol\":8161:8174  _balances[to] */\n      0xffffffffffffffffffffffffffffffffffffffff\n      and\n      0xffffffffffffffffffffffffffffffffffffffff\n      and\n      dup2\n      mstore\n      0x20\n      add\n      swap1\n      dup2\n      mstore\n      0x20\n      add\n      0x00\n      keccak256\n      0x00\n        /* \"@openzeppelin/contracts/token/ERC20/ERC20.sol\":8161:8184  _balances[to] += amount */\n      dup3\n      dup3\n      sload\n      add\n      swap3\n      pop\n      pop\n      dup2\n      swap1\n      sstore\n      pop\n        /* \"@openzeppelin/contracts/token/ERC20/ERC20.sol\":8225:8227  to */\n      dup3\n        /* \"@openzeppelin/contracts/token/ERC20/ERC20.sol\":8210:8236  Transfer(from, to, amount) */\n      0xffffffffffffffffffffffffffffffffffffffff\n      and\n        /* \"@openzeppelin/contracts/token/ERC20/ERC20.sol\":8219:8223  from */\n      dup5\n        /* \"@openzeppelin/contracts/token/ERC20/ERC20.sol\":8210:8236  Transfer(from, to, amount) */\n      0xffffffffffffffffffffffffffffffffffffffff\n      and\n      0xddf252ad1be2c89b69c2b068fc378daa952ba7f163c4a11628f55a4df523b3ef\n        /* \"@openzeppelin/contracts/token/ERC20/ERC20.sol\":8229:8235  amount */\n      dup5\n        /* \"@openzeppelin/contracts/token/ERC20/ERC20.sol\":8210:8236  Transfer(from, to, amount) */\n      mload(0x40)\n      tag_206\n      swap2\n      swap1\n      tag_42\n      jump\t// in\n    tag_206:\n      mload(0x40)\n      dup1\n      swap2\n      sub\n      swap1\n      log3\n        /* \"@openzeppelin/contracts/token/ERC20/ERC20.sol\":8247:8284  _afterTokenTransfer(from, to, amount) */\n      tag_207\n        /* \"@openzeppelin/contracts/token/ERC20/ERC20.sol\":8267:8271  from */\n      dup5\n        /* \"@openzeppelin/contracts/token/ERC20/ERC20.sol\":8273:8275  to */\n      dup5\n        /* \"@openzeppelin/contracts/token/ERC20/ERC20.sol\":8277:8283  amount */\n      dup5\n        /* \"@openzeppelin/contracts/token/ERC20/ERC20.sol\":8247:8266  _afterTokenTransfer */\n      tag_208\n        /* \"@openzeppelin/contracts/token/ERC20/ERC20.sol\":8247:8284  _afterTokenTransfer(from, to, amount) */\n      jump\t// in\n    tag_207:\n        /* \"@openzeppelin/contracts/token/ERC20/ERC20.sol\":7581:8291  {... */\n      pop\n        /* \"@openzeppelin/contracts/token/ERC20/ERC20.sol\":7473:8291  function _transfer(... */\n      pop\n      pop\n      pop\n      jump\t// out\n        /* \"@openzeppelin/contracts/token/ERC20/ERC20.sol\":12180:12301  function _beforeTokenTransfer(... */\n    tag_202:\n      pop\n      pop\n      pop\n      jump\t// out\n        /* \"@openzeppelin/contracts/token/ERC20/ERC20.sol\":12889:13009  function _afterTokenTransfer(... */\n    tag_208:\n      pop\n      pop\n      pop\n      jump\t// out\n        /* \"#utility.yul\":7:106   */\n    tag_211:\n        /* \"#utility.yul\":59:65   */\n      0x00\n        /* \"#utility.yul\":93:98   */\n      dup2\n        /* \"#utility.yul\":87:99   */\n      mload\n        /* \"#utility.yul\":77:99   */\n      swap1\n      pop\n        /* \"#utility.yul\":7:106   */\n      swap2\n      swap1\n      pop\n      jump\t// out\n        /* \"#utility.yul\":112:281   */\n    tag_212:\n        /* \"#utility.yul\":196:207   */\n      0x00\n        /* \"#utility.yul\":230:236   */\n      dup3\n        /* \"#utility.yul\":225:228   */\n      dup3\n        /* \"#utility.yul\":218:237   */\n      mstore\n        /* \"#utility.yul\":270:274   */\n      0x20\n        /* \"#utility.yul\":265:268   */\n      dup3\n        /* \"#utility.yul\":261:275   */\n      add\n        /* \"#utility.yul\":246:275   */\n      swap1\n      pop\n        /* \"#utility.yul\":112:281   */\n      swap3\n      swap2\n      pop\n      pop\n      jump\t// out\n        /* \"#utility.yul\":287:533   */\n    tag_213:\n        /* \"#utility.yul\":368:369   */\n      0x00\n        /* \"#utility.yul\":378:491   */\n    tag_276:\n        /* \"#utility.yul\":392:398   */\n      dup4\n        /* \"#utility.yul\":389:390   */\n      dup2\n        /* \"#utility.yul\":386:399   */\n      lt\n        /* \"#utility.yul\":378:491   */\n      iszero\n      tag_278\n      jumpi\n        /* \"#utility.yul\":477:478   */\n      dup1\n        /* \"#utility.yul\":472:475   */\n      dup3\n        /* \"#utility.yul\":468:479   */\n      add\n        /* \"#utility.yul\":462:480   */\n      mload\n        /* \"#utility.yul\":458:459   */\n      dup2\n        /* \"#utility.yul\":453:456   */\n      dup5\n        /* \"#utility.yul\":449:460   */\n      add\n        /* \"#utility.yul\":442:481   */\n      mstore\n        /* \"#utility.yul\":414:416   */\n      0x20\n        /* \"#utility.yul\":411:412   */\n      dup2\n        /* \"#utility.yul\":407:417   */\n      add\n        /* \"#utility.yul\":402:417   */\n      swap1\n      pop\n        /* \"#utility.yul\":378:491   */\n      jump(tag_276)\n    tag_278:\n        /* \"#utility.yul\":525:526   */\n      0x00\n        /* \"#utility.yul\":516:522   */\n      dup5\n        /* \"#utility.yul\":511:514   */\n      dup5\n        /* \"#utility.yul\":507:523   */\n      add\n        /* \"#utility.yul\":500:527   */\n      mstore\n        /* \"#utility.yul\":349:533   */\n      pop\n        /* \"#utility.yul\":287:533   */\n      pop\n      pop\n      pop\n      jump\t// out\n        /* \"#utility.yul\":539:641   */\n    tag_214:\n        /* \"#utility.yul\":580:586   */\n      0x00\n        /* \"#utility.yul\":631:633   */\n      0x1f\n        /* \"#utility.yul\":627:634   */\n      not\n        /* \"#utility.yul\":622:624   */\n      0x1f\n        /* \"#utility.yul\":615:620   */\n      dup4\n        /* \"#utility.yul\":611:625   */\n      add\n        /* \"#utility.yul\":607:635   */\n      and\n        /* \"#utility.yul\":597:635   */\n      swap1\n      pop\n        /* \"#utility.yul\":539:641   */\n      swap2\n      swap1\n      pop\n      jump\t// out\n        /* \"#utility.yul\":647:1024   */\n    tag_215:\n        /* \"#utility.yul\":735:738   */\n      0x00\n        /* \"#utility.yul\":763:802   */\n      tag_281\n        /* \"#utility.yul\":796:801   */\n      dup3\n        /* \"#utility.yul\":763:802   */\n      tag_211\n      jump\t// in\n    tag_281:\n        /* \"#utility.yul\":818:889   */\n      tag_282\n        /* \"#utility.yul\":882:888   */\n      dup2\n        /* \"#utility.yul\":877:880   */\n      dup6\n        /* \"#utility.yul\":818:889   */\n      tag_212\n      jump\t// in\n    tag_282:\n        /* \"#utility.yul\":811:889   */\n      swap4\n      pop\n        /* \"#utility.yul\":898:963   */\n      tag_283\n        /* \"#utility.yul\":956:962   */\n      dup2\n        /* \"#utility.yul\":951:954   */\n      dup6\n        /* \"#utility.yul\":944:948   */\n      0x20\n        /* \"#utility.yul\":937:942   */\n      dup7\n        /* \"#utility.yul\":933:949   */\n      add\n        /* \"#utility.yul\":898:963   */\n      tag_213\n      jump\t// in\n    tag_283:\n        /* \"#utility.yul\":988:1017   */\n      tag_284\n        /* \"#utility.yul\":1010:1016   */\n      dup2\n        /* \"#utility.yul\":988:1017   */\n      tag_214\n      jump\t// in\n    tag_284:\n        /* \"#utility.yul\":983:986   */\n      dup5\n        /* \"#utility.yul\":979:1018   */\n      add\n        /* \"#utility.yul\":972:1018   */\n      swap2\n      pop\n        /* \"#utility.yul\":739:1024   */\n      pop\n        /* \"#utility.yul\":647:1024   */\n      swap3\n      swap2\n      pop\n      pop\n      jump\t// out\n        /* \"#utility.yul\":1030:1343   */\n    tag_26:\n        /* \"#utility.yul\":1143:1147   */\n      0x00\n        /* \"#utility.yul\":1181:1183   */\n      0x20\n        /* \"#utility.yul\":1170:1179   */\n      dup3\n        /* \"#utility.yul\":1166:1184   */\n      add\n        /* \"#utility.yul\":1158:1184   */\n      swap1\n      pop\n        /* \"#utility.yul\":1230:1239   */\n      dup2\n        /* \"#utility.yul\":1224:1228   */\n      dup2\n        /* \"#utility.yul\":1220:1240   */\n      sub\n        /* \"#utility.yul\":1216:1217   */\n      0x00\n        /* \"#utility.yul\":1205:1214   */\n      dup4\n        /* \"#utility.yul\":1201:1218   */\n      add\n        /* \"#utility.yul\":1194:1241   */\n      mstore\n        /* \"#utility.yul\":1258:1336   */\n      tag_286\n        /* \"#utility.yul\":1331:1335   */\n      dup2\n        /* \"#utility.yul\":1322:1328   */\n      dup5\n        /* \"#utility.yul\":1258:1336   */\n      tag_215\n      jump\t// in\n    tag_286:\n        /* \"#utility.yul\":1250:1336   */\n      swap1\n      pop\n        /* \"#utility.yul\":1030:1343   */\n      swap3\n      swap2\n      pop\n      pop\n      jump\t// out\n        /* \"#utility.yul\":1430:1547   */\n    tag_217:\n        /* \"#utility.yul\":1539:1540   */\n      0x00\n        /* \"#utility.yul\":1536:1537   */\n      dup1\n        /* \"#utility.yul\":1529:1541   */\n      revert\n        /* \"#utility.yul\":1553:1670   */\n    tag_218:\n        /* \"#utility.yul\":1662:1663   */\n      0x00\n        /* \"#utility.yul\":1659:1660   */\n      dup1\n        /* \"#utility.yul\":1652:1664   */\n      revert\n        /* \"#utility.yul\":1676:1802   */\n    tag_219:\n        /* \"#utility.yul\":1713:1720   */\n      0x00\n        /* \"#utility.yul\":1753:1795   */\n      0xffffffffffffffffffffffffffffffffffffffff\n        /* \"#utility.yul\":1746:1751   */\n      dup3\n        /* \"#utility.yul\":1742:1796   */\n      and\n        /* \"#utility.yul\":1731:1796   */\n      swap1\n      pop\n        /* \"#utility.yul\":1676:1802   */\n      swap2\n      swap1\n      pop\n      jump\t// out\n        /* \"#utility.yul\":1808:1904   */\n    tag_220:\n        /* \"#utility.yul\":1845:1852   */\n      0x00\n        /* \"#utility.yul\":1874:1898   */\n      tag_292\n        /* \"#utility.yul\":1892:1897   */\n      dup3\n        /* \"#utility.yul\":1874:1898   */\n      tag_219\n      jump\t// in\n    tag_292:\n        /* \"#utility.yul\":1863:1898   */\n      swap1\n      pop\n        /* \"#utility.yul\":1808:1904   */\n      swap2\n      swap1\n      pop\n      jump\t// out\n        /* \"#utility.yul\":1910:2032   */\n    tag_221:\n        /* \"#utility.yul\":1983:2007   */\n      tag_294\n        /* \"#utility.yul\":2001:2006   */\n      dup2\n        /* \"#utility.yul\":1983:2007   */\n      tag_220\n      jump\t// in\n    tag_294:\n        /* \"#utility.yul\":1976:1981   */\n      dup2\n        /* \"#utility.yul\":1973:2008   */\n      eq\n        /* \"#utility.yul\":1963:2026   */\n      tag_295\n      jumpi\n        /* \"#utility.yul\":2022:2023   */\n      0x00\n        /* \"#utility.yul\":2019:2020   */\n      dup1\n        /* \"#utility.yul\":2012:2024   */\n      revert\n        /* \"#utility.yul\":1963:2026   */\n    tag_295:\n        /* \"#utility.yul\":1910:2032   */\n      pop\n      jump\t// out\n        /* \"#utility.yul\":2038:2177   */\n    tag_222:\n        /* \"#utility.yul\":2084:2089   */\n      0x00\n        /* \"#utility.yul\":2122:2128   */\n      dup2\n        /* \"#utility.yul\":2109:2129   */\n      calldataload\n        /* \"#utility.yul\":2100:2129   */\n      swap1\n      pop\n        /* \"#utility.yul\":2138:2171   */\n      tag_297\n        /* \"#utility.yul\":2165:2170   */\n      dup2\n        /* \"#utility.yul\":2138:2171   */\n      tag_221\n      jump\t// in\n    tag_297:\n        /* \"#utility.yul\":2038:2177   */\n      swap3\n      swap2\n      pop\n      pop\n      jump\t// out\n        /* \"#utility.yul\":2183:2512   */\n    tag_29:\n        /* \"#utility.yul\":2242:2248   */\n      0x00\n        /* \"#utility.yul\":2291:2293   */\n      0x20\n        /* \"#utility.yul\":2279:2288   */\n      dup3\n        /* \"#utility.yul\":2270:2277   */\n      dup5\n        /* \"#utility.yul\":2266:2289   */\n      sub\n        /* \"#utility.yul\":2262:2294   */\n      slt\n        /* \"#utility.yul\":2259:2378   */\n      iszero\n      tag_299\n      jumpi\n        /* \"#utility.yul\":2297:2376   */\n      tag_300\n      tag_217\n      jump\t// in\n    tag_300:\n        /* \"#utility.yul\":2259:2378   */\n    tag_299:\n        /* \"#utility.yul\":2417:2418   */\n      0x00\n        /* \"#utility.yul\":2442:2495   */\n      tag_301\n        /* \"#utility.yul\":2487:2494   */\n      dup5\n        /* \"#utility.yul\":2478:2484   */\n      dup3\n        /* \"#utility.yul\":2467:2476   */\n      dup6\n        /* \"#utility.yul\":2463:2485   */\n      add\n        /* \"#utility.yul\":2442:2495   */\n      tag_222\n      jump\t// in\n    tag_301:\n        /* \"#utility.yul\":2432:2495   */\n      swap2\n      pop\n        /* \"#utility.yul\":2388:2505   */\n      pop\n        /* \"#utility.yul\":2183:2512   */\n      swap3\n      swap2\n      pop\n      pop\n      jump\t// out\n        /* \"#utility.yul\":2518:3032   */\n    tag_32:\n        /* \"#utility.yul\":2679:2683   */\n      0x00\n        /* \"#utility.yul\":2717:2719   */\n      0x40\n        /* \"#utility.yul\":2706:2715   */\n      dup3\n        /* \"#utility.yul\":2702:2720   */\n      add\n        /* \"#utility.yul\":2694:2720   */\n      swap1\n      pop\n        /* \"#utility.yul\":2766:2775   */\n      dup2\n        /* \"#utility.yul\":2760:2764   */\n      dup2\n        /* \"#utility.yul\":2756:2776   */\n      sub\n        /* \"#utility.yul\":2752:2753   */\n      0x00\n        /* \"#utility.yul\":2741:2750   */\n      dup4\n        /* \"#utility.yul\":2737:2754   */\n      add\n        /* \"#utility.yul\":2730:2777   */\n      mstore\n        /* \"#utility.yul\":2794:2872   */\n      tag_303\n        /* \"#utility.yul\":2867:2871   */\n      dup2\n        /* \"#utility.yul\":2858:2864   */\n      dup6\n        /* \"#utility.yul\":2794:2872   */\n      tag_215\n      jump\t// in\n    tag_303:\n        /* \"#utility.yul\":2786:2872   */\n      swap1\n      pop\n        /* \"#utility.yul\":2919:2928   */\n      dup2\n        /* \"#utility.yul\":2913:2917   */\n      dup2\n        /* \"#utility.yul\":2909:2929   */\n      sub\n        /* \"#utility.yul\":2904:2906   */\n      0x20\n        /* \"#utility.yul\":2893:2902   */\n      dup4\n        /* \"#utility.yul\":2889:2907   */\n      add\n        /* \"#utility.yul\":2882:2930   */\n      mstore\n        /* \"#utility.yul\":2947:3025   */\n      tag_304\n        /* \"#utility.yul\":3020:3024   */\n      dup2\n        /* \"#utility.yul\":3011:3017   */\n      dup5\n        /* \"#utility.yul\":2947:3025   */\n      tag_215\n      jump\t// in\n    tag_304:\n        /* \"#utility.yul\":2939:3025   */\n      swap1\n      pop\n        /* \"#utility.yul\":2518:3032   */\n      swap4\n      swap3\n      pop\n      pop\n      pop\n      jump\t// out\n        /* \"#utility.yul\":3038:3115   */\n    tag_223:\n        /* \"#utility.yul\":3075:3082   */\n      0x00\n        /* \"#utility.yul\":3104:3109   */\n      dup2\n        /* \"#utility.yul\":3093:3109   */\n      swap1\n      pop\n        /* \"#utility.yul\":3038:3115   */\n      swap2\n      swap1\n      pop\n      jump\t// out\n        /* \"#utility.yul\":3121:3243   */\n    tag_224:\n        /* \"#utility.yul\":3194:3218   */\n      tag_307\n        /* \"#utility.yul\":3212:3217   */\n      dup2\n        /* \"#utility.yul\":3194:3218   */\n      tag_223\n      jump\t// in\n    tag_307:\n        /* \"#utility.yul\":3187:3192   */\n      dup2\n        /* \"#utility.yul\":3184:3219   */\n      eq\n        /* \"#utility.yul\":3174:3237   */\n      tag_308\n      jumpi\n        /* \"#utility.yul\":3233:3234   */\n      0x00\n        /* \"#utility.yul\":3230:3231   */\n      dup1\n        /* \"#utility.yul\":3223:3235   */\n      revert\n        /* \"#utility.yul\":3174:3237   */\n    tag_308:\n        /* \"#utility.yul\":3121:3243   */\n      pop\n      jump\t// out\n        /* \"#utility.yul\":3249:3388   */\n    tag_225:\n        /* \"#utility.yul\":3295:3300   */\n      0x00\n        /* \"#utility.yul\":3333:3339   */\n      dup2\n        /* \"#utility.yul\":3320:3340   */\n      calldataload\n        /* \"#utility.yul\":3311:3340   */\n      swap1\n      pop\n        /* \"#utility.yul\":3349:3382   */\n      tag_310\n        /* \"#utility.yul\":3376:3381   */\n      dup2\n        /* \"#utility.yul\":3349:3382   */\n      tag_224\n      jump\t// in\n    tag_310:\n        /* \"#utility.yul\":3249:3388   */\n      swap3\n      swap2\n      pop\n      pop\n      jump\t// out\n        /* \"#utility.yul\":3394:3868   */\n    tag_35:\n        /* \"#utility.yul\":3462:3468   */\n      0x00\n        /* \"#utility.yul\":3470:3476   */\n      dup1\n        /* \"#utility.yul\":3519:3521   */\n      0x40\n        /* \"#utility.yul\":3507:3516   */\n      dup4\n        /* \"#utility.yul\":3498:3505   */\n      dup6\n        /* \"#utility.yul\":3494:3517   */\n      sub\n        /* \"#utility.yul\":3490:3522   */\n      slt\n        /* \"#utility.yul\":3487:3606   */\n      iszero\n      tag_312\n      jumpi\n        /* \"#utility.yul\":3525:3604   */\n      tag_313\n      tag_217\n      jump\t// in\n    tag_313:\n        /* \"#utility.yul\":3487:3606   */\n    tag_312:\n        /* \"#utility.yul\":3645:3646   */\n      0x00\n        /* \"#utility.yul\":3670:3723   */\n      tag_314\n        /* \"#utility.yul\":3715:3722   */\n      dup6\n        /* \"#utility.yul\":3706:3712   */\n      dup3\n        /* \"#utility.yul\":3695:3704   */\n      dup7\n        /* \"#utility.yul\":3691:3713   */\n      add\n        /* \"#utility.yul\":3670:3723   */\n      tag_222\n      jump\t// in\n    tag_314:\n        /* \"#utility.yul\":3660:3723   */\n      swap3\n      pop\n        /* \"#utility.yul\":3616:3733   */\n      pop\n        /* \"#utility.yul\":3772:3774   */\n      0x20\n        /* \"#utility.yul\":3798:3851   */\n      tag_315\n        /* \"#utility.yul\":3843:3850   */\n      dup6\n        /* \"#utility.yul\":3834:3840   */\n      dup3\n        /* \"#utility.yul\":3823:3832   */\n      dup7\n        /* \"#utility.yul\":3819:3841   */\n      add\n        /* \"#utility.yul\":3798:3851   */\n      tag_225\n      jump\t// in\n    tag_315:\n        /* \"#utility.yul\":3788:3851   */\n      swap2\n      pop\n        /* \"#utility.yul\":3743:3861   */\n      pop\n        /* \"#utility.yul\":3394:3868   */\n      swap3\n      pop\n      swap3\n      swap1\n      pop\n      jump\t// out\n        /* \"#utility.yul\":3874:3964   */\n    tag_226:\n        /* \"#utility.yul\":3908:3915   */\n      0x00\n        /* \"#utility.yul\":3951:3956   */\n      dup2\n        /* \"#utility.yul\":3944:3957   */\n      iszero\n        /* \"#utility.yul\":3937:3958   */\n      iszero\n        /* \"#utility.yul\":3926:3958   */\n      swap1\n      pop\n        /* \"#utility.yul\":3874:3964   */\n      swap2\n      swap1\n      pop\n      jump\t// out\n        /* \"#utility.yul\":3970:4079   */\n    tag_227:\n        /* \"#utility.yul\":4051:4072   */\n      tag_318\n        /* \"#utility.yul\":4066:4071   */\n      dup2\n        /* \"#utility.yul\":4051:4072   */\n      tag_226\n      jump\t// in\n    tag_318:\n        /* \"#utility.yul\":4046:4049   */\n      dup3\n        /* \"#utility.yul\":4039:4073   */\n      mstore\n        /* \"#utility.yul\":3970:4079   */\n      pop\n      pop\n      jump\t// out\n        /* \"#utility.yul\":4085:4295   */\n    tag_38:\n        /* \"#utility.yul\":4172:4176   */\n      0x00\n        /* \"#utility.yul\":4210:4212   */\n      0x20\n        /* \"#utility.yul\":4199:4208   */\n      dup3\n        /* \"#utility.yul\":4195:4213   */\n      add\n        /* \"#utility.yul\":4187:4213   */\n      swap1\n      pop\n        /* \"#utility.yul\":4223:4288   */\n      tag_320\n        /* \"#utility.yul\":4285:4286   */\n      0x00\n        /* \"#utility.yul\":4274:4283   */\n      dup4\n        /* \"#utility.yul\":4270:4287   */\n      add\n        /* \"#utility.yul\":4261:4267   */\n      dup5\n        /* \"#utility.yul\":4223:4288   */\n      tag_227\n      jump\t// in\n    tag_320:\n        /* \"#utility.yul\":4085:4295   */\n      swap3\n      swap2\n      pop\n      pop\n      jump\t// out\n        /* \"#utility.yul\":4301:4419   */\n    tag_228:\n        /* \"#utility.yul\":4388:4412   */\n      tag_322\n        /* \"#utility.yul\":4406:4411   */\n      dup2\n        /* \"#utility.yul\":4388:4412   */\n      tag_223\n      jump\t// in\n    tag_322:\n        /* \"#utility.yul\":4383:4386   */\n      dup3\n        /* \"#utility.yul\":4376:4413   */\n      mstore\n        /* \"#utility.yul\":4301:4419   */\n      pop\n      pop\n      jump\t// out\n        /* \"#utility.yul\":4425:4647   */\n    tag_42:\n        /* \"#utility.yul\":4518:4522   */\n      0x00\n        /* \"#utility.yul\":4556:4558   */\n      0x20\n        /* \"#utility.yul\":4545:4554   */\n      dup3\n        /* \"#utility.yul\":4541:4559   */\n      add\n        /* \"#utility.yul\":4533:4559   */\n      swap1\n      pop\n        /* \"#utility.yul\":4569:4640   */\n      tag_324\n        /* \"#utility.yul\":4637:4638   */\n      0x00\n        /* \"#utility.yul\":4626:4635   */\n      dup4\n        /* \"#utility.yul\":4622:4639   */\n      add\n        /* \"#utility.yul\":4613:4619   */\n      dup5\n        /* \"#utility.yul\":4569:4640   */\n      tag_228\n      jump\t// in\n    tag_324:\n        /* \"#utility.yul\":4425:4647   */\n      swap3\n      swap2\n      pop\n      pop\n      jump\t// out\n        /* \"#utility.yul\":4653:4770   */\n    tag_229:\n        /* \"#utility.yul\":4762:4763   */\n      0x00\n        /* \"#utility.yul\":4759:4760   */\n      dup1\n        /* \"#utility.yul\":4752:4764   */\n      revert\n        /* \"#utility.yul\":4776:4893   */\n    tag_230:\n        /* \"#utility.yul\":4885:4886   */\n      0x00\n        /* \"#utility.yul\":4882:4883   */\n      dup1\n        /* \"#utility.yul\":4875:4887   */\n      revert\n        /* \"#utility.yul\":4899:5016   */\n    tag_231:\n        /* \"#utility.yul\":5008:5009   */\n      0x00\n        /* \"#utility.yul\":5005:5006   */\n      dup1\n        /* \"#utility.yul\":4998:5010   */\n      revert\n        /* \"#utility.yul\":5036:5589   */\n    tag_232:\n        /* \"#utility.yul\":5094:5102   */\n      0x00\n        /* \"#utility.yul\":5104:5110   */\n      dup1\n        /* \"#utility.yul\":5154:5157   */\n      dup4\n        /* \"#utility.yul\":5147:5151   */\n      0x1f\n        /* \"#utility.yul\":5139:5145   */\n      dup5\n        /* \"#utility.yul\":5135:5152   */\n      add\n        /* \"#utility.yul\":5131:5158   */\n      slt\n        /* \"#utility.yul\":5121:5243   */\n      tag_329\n      jumpi\n        /* \"#utility.yul\":5162:5241   */\n      tag_330\n      tag_229\n      jump\t// in\n    tag_330:\n        /* \"#utility.yul\":5121:5243   */\n    tag_329:\n        /* \"#utility.yul\":5275:5281   */\n      dup3\n        /* \"#utility.yul\":5262:5282   */\n      calldataload\n        /* \"#utility.yul\":5252:5282   */\n      swap1\n      pop\n        /* \"#utility.yul\":5305:5323   */\n      0xffffffffffffffff\n        /* \"#utility.yul\":5297:5303   */\n      dup2\n        /* \"#utility.yul\":5294:5324   */\n      gt\n        /* \"#utility.yul\":5291:5408   */\n      iszero\n      tag_331\n      jumpi\n        /* \"#utility.yul\":5327:5406   */\n      tag_332\n      tag_230\n      jump\t// in\n    tag_332:\n        /* \"#utility.yul\":5291:5408   */\n    tag_331:\n        /* \"#utility.yul\":5441:5445   */\n      0x20\n        /* \"#utility.yul\":5433:5439   */\n      dup4\n        /* \"#utility.yul\":5429:5446   */\n      add\n        /* \"#utility.yul\":5417:5446   */\n      swap2\n      pop\n        /* \"#utility.yul\":5495:5498   */\n      dup4\n        /* \"#utility.yul\":5487:5491   */\n      0x01\n        /* \"#utility.yul\":5479:5485   */\n      dup3\n        /* \"#utility.yul\":5475:5492   */\n      mul\n        /* \"#utility.yul\":5465:5473   */\n      dup4\n        /* \"#utility.yul\":5461:5493   */\n      add\n        /* \"#utility.yul\":5458:5499   */\n      gt\n        /* \"#utility.yul\":5455:5583   */\n      iszero\n      tag_333\n      jumpi\n        /* \"#utility.yul\":5502:5581   */\n      tag_334\n      tag_231\n      jump\t// in\n    tag_334:\n        /* \"#utility.yul\":5455:5583   */\n    tag_333:\n        /* \"#utility.yul\":5036:5589   */\n      swap3\n      pop\n      swap3\n      swap1\n      pop\n      jump\t// out\n        /* \"#utility.yul\":5595:6469   */\n    tag_45:\n        /* \"#utility.yul\":5687:5693   */\n      0x00\n        /* \"#utility.yul\":5695:5701   */\n      dup1\n        /* \"#utility.yul\":5703:5709   */\n      0x00\n        /* \"#utility.yul\":5711:5717   */\n      dup1\n        /* \"#utility.yul\":5760:5762   */\n      0x40\n        /* \"#utility.yul\":5748:5757   */\n      dup6\n        /* \"#utility.yul\":5739:5746   */\n      dup8\n        /* \"#utility.yul\":5735:5758   */\n      sub\n        /* \"#utility.yul\":5731:5763   */\n      slt\n        /* \"#utility.yul\":5728:5847   */\n      iszero\n      tag_336\n      jumpi\n        /* \"#utility.yul\":5766:5845   */\n      tag_337\n      tag_217\n      jump\t// in\n    tag_337:\n        /* \"#utility.yul\":5728:5847   */\n    tag_336:\n        /* \"#utility.yul\":5914:5915   */\n      0x00\n        /* \"#utility.yul\":5903:5912   */\n      dup6\n        /* \"#utility.yul\":5899:5916   */\n      add\n        /* \"#utility.yul\":5886:5917   */\n      calldataload\n        /* \"#utility.yul\":5944:5962   */\n      0xffffffffffffffff\n        /* \"#utility.yul\":5936:5942   */\n      dup2\n        /* \"#utility.yul\":5933:5963   */\n      gt\n        /* \"#utility.yul\":5930:6047   */\n      iszero\n      tag_338\n      jumpi\n        /* \"#utility.yul\":5966:6045   */\n      tag_339\n      tag_218\n      jump\t// in\n    tag_339:\n        /* \"#utility.yul\":5930:6047   */\n    tag_338:\n        /* \"#utility.yul\":6079:6144   */\n      tag_340\n        /* \"#utility.yul\":6136:6143   */\n      dup8\n        /* \"#utility.yul\":6127:6133   */\n      dup3\n        /* \"#utility.yul\":6116:6125   */\n      dup9\n        /* \"#utility.yul\":6112:6134   */\n      add\n        /* \"#utility.yul\":6079:6144   */\n      tag_232\n      jump\t// in\n    tag_340:\n        /* \"#utility.yul\":6061:6144   */\n      swap5\n      pop\n      swap5\n      pop\n        /* \"#utility.yul\":5857:6154   */\n      pop\n        /* \"#utility.yul\":6221:6223   */\n      0x20\n        /* \"#utility.yul\":6210:6219   */\n      dup6\n        /* \"#utility.yul\":6206:6224   */\n      add\n        /* \"#utility.yul\":6193:6225   */\n      calldataload\n        /* \"#utility.yul\":6252:6270   */\n      0xffffffffffffffff\n        /* \"#utility.yul\":6244:6250   */\n      dup2\n        /* \"#utility.yul\":6241:6271   */\n      gt\n        /* \"#utility.yul\":6238:6355   */\n      iszero\n      tag_341\n      jumpi\n        /* \"#utility.yul\":6274:6353   */\n      tag_342\n      tag_218\n      jump\t// in\n    tag_342:\n        /* \"#utility.yul\":6238:6355   */\n    tag_341:\n        /* \"#utility.yul\":6387:6452   */\n      tag_343\n        /* \"#utility.yul\":6444:6451   */\n      dup8\n        /* \"#utility.yul\":6435:6441   */\n      dup3\n        /* \"#utility.yul\":6424:6433   */\n      dup9\n        /* \"#utility.yul\":6420:6442   */\n      add\n        /* \"#utility.yul\":6387:6452   */\n      tag_232\n      jump\t// in\n    tag_343:\n        /* \"#utility.yul\":6369:6452   */\n      swap3\n      pop\n      swap3\n      pop\n        /* \"#utility.yul\":6164:6462   */\n      pop\n        /* \"#utility.yul\":5595:6469   */\n      swap3\n      swap6\n      swap2\n      swap5\n      pop\n      swap3\n      pop\n      jump\t// out\n        /* \"#utility.yul\":6475:7094   */\n    tag_49:\n        /* \"#utility.yul\":6552:6558   */\n      0x00\n        /* \"#utility.yul\":6560:6566   */\n      dup1\n        /* \"#utility.yul\":6568:6574   */\n      0x00\n        /* \"#utility.yul\":6617:6619   */\n      0x60\n        /* \"#utility.yul\":6605:6614   */\n      dup5\n        /* \"#utility.yul\":6596:6603   */\n      dup7\n        /* \"#utility.yul\":6592:6615   */\n      sub\n        /* \"#utility.yul\":6588:6620   */\n      slt\n        /* \"#utility.yul\":6585:6704   */\n      iszero\n      tag_345\n      jumpi\n        /* \"#utility.yul\":6623:6702   */\n      tag_346\n      tag_217\n      jump\t// in\n    tag_346:\n        /* \"#utility.yul\":6585:6704   */\n    tag_345:\n        /* \"#utility.yul\":6743:6744   */\n      0x00\n        /* \"#utility.yul\":6768:6821   */\n      tag_347\n        /* \"#utility.yul\":6813:6820   */\n      dup7\n        /* \"#utility.yul\":6804:6810   */\n      dup3\n        /* \"#utility.yul\":6793:6802   */\n      dup8\n        /* \"#utility.yul\":6789:6811   */\n      add\n        /* \"#utility.yul\":6768:6821   */\n      tag_222\n      jump\t// in\n    tag_347:\n        /* \"#utility.yul\":6758:6821   */\n      swap4\n      pop\n        /* \"#utility.yul\":6714:6831   */\n      pop\n        /* \"#utility.yul\":6870:6872   */\n      0x20\n        /* \"#utility.yul\":6896:6949   */\n      tag_348\n        /* \"#utility.yul\":6941:6948   */\n      dup7\n        /* \"#utility.yul\":6932:6938   */\n      dup3\n        /* \"#utility.yul\":6921:6930   */\n      dup8\n        /* \"#utility.yul\":6917:6939   */\n      add\n        /* \"#utility.yul\":6896:6949   */\n      tag_222\n      jump\t// in\n    tag_348:\n        /* \"#utility.yul\":6886:6949   */\n      swap3\n      pop\n        /* \"#utility.yul\":6841:6959   */\n      pop\n        /* \"#utility.yul\":6998:7000   */\n      0x40\n        /* \"#utility.yul\":7024:7077   */\n      tag_349\n        /* \"#utility.yul\":7069:7076   */\n      dup7\n        /* \"#utility.yul\":7060:7066   */\n      dup3\n        /* \"#utility.yul\":7049:7058   */\n      dup8\n        /* \"#utility.yul\":7045:7067   */\n      add\n        /* \"#utility.yul\":7024:7077   */\n      tag_225\n      jump\t// in\n    tag_349:\n        /* \"#utility.yul\":7014:7077   */\n      swap2\n      pop\n        /* \"#utility.yul\":6969:7087   */\n      pop\n        /* \"#utility.yul\":6475:7094   */\n      swap3\n      pop\n      swap3\n      pop\n      swap3\n      jump\t// out\n        /* \"#utility.yul\":7100:7186   */\n    tag_233:\n        /* \"#utility.yul\":7135:7142   */\n      0x00\n        /* \"#utility.yul\":7175:7179   */\n      0xff\n        /* \"#utility.yul\":7168:7173   */\n      dup3\n        /* \"#utility.yul\":7164:7180   */\n      and\n        /* \"#utility.yul\":7153:7180   */\n      swap1\n      pop\n        /* \"#utility.yul\":7100:7186   */\n      swap2\n      swap1\n      pop\n      jump\t// out\n        /* \"#utility.yul\":7192:7304   */\n    tag_234:\n        /* \"#utility.yul\":7275:7297   */\n      tag_352\n        /* \"#utility.yul\":7291:7296   */\n      dup2\n        /* \"#utility.yul\":7275:7297   */\n      tag_233\n      jump\t// in\n    tag_352:\n        /* \"#utility.yul\":7270:7273   */\n      dup3\n        /* \"#utility.yul\":7263:7298   */\n      mstore\n        /* \"#utility.yul\":7192:7304   */\n      pop\n      pop\n      jump\t// out\n        /* \"#utility.yul\":7310:7524   */\n    tag_55:\n        /* \"#utility.yul\":7399:7403   */\n      0x00\n        /* \"#utility.yul\":7437:7439   */\n      0x20\n        /* \"#utility.yul\":7426:7435   */\n      dup3\n        /* \"#utility.yul\":7422:7440   */\n      add\n        /* \"#utility.yul\":7414:7440   */\n      swap1\n      pop\n        /* \"#utility.yul\":7450:7517   */\n      tag_354\n        /* \"#utility.yul\":7514:7515   */\n      0x00\n        /* \"#utility.yul\":7503:7512   */\n      dup4\n        /* \"#utility.yul\":7499:7516   */\n      add\n        /* \"#utility.yul\":7490:7496   */\n      dup5\n        /* \"#utility.yul\":7450:7517   */\n      tag_234\n      jump\t// in\n    tag_354:\n        /* \"#utility.yul\":7310:7524   */\n      swap3\n      swap2\n      pop\n      pop\n      jump\t// out\n        /* \"#utility.yul\":7530:7644   */\n    tag_235:\n        /* \"#utility.yul\":7618:7619   */\n      0x04\n        /* \"#utility.yul\":7611:7616   */\n      dup2\n        /* \"#utility.yul\":7608:7620   */\n      lt\n        /* \"#utility.yul\":7598:7638   */\n      tag_356\n      jumpi\n        /* \"#utility.yul\":7634:7635   */\n      0x00\n        /* \"#utility.yul\":7631:7632   */\n      dup1\n        /* \"#utility.yul\":7624:7636   */\n      revert\n        /* \"#utility.yul\":7598:7638   */\n    tag_356:\n        /* \"#utility.yul\":7530:7644   */\n      pop\n      jump\t// out\n        /* \"#utility.yul\":7650:7819   */\n    tag_236:\n        /* \"#utility.yul\":7711:7716   */\n      0x00\n        /* \"#utility.yul\":7749:7755   */\n      dup2\n        /* \"#utility.yul\":7736:7756   */\n      calldataload\n        /* \"#utility.yul\":7727:7756   */\n      swap1\n      pop\n        /* \"#utility.yul\":7765:7813   */\n      tag_358\n        /* \"#utility.yul\":7807:7812   */\n      dup2\n        /* \"#utility.yul\":7765:7813   */\n      tag_235\n      jump\t// in\n    tag_358:\n        /* \"#utility.yul\":7650:7819   */\n      swap3\n      swap2\n      pop\n      pop\n      jump\t// out\n        /* \"#utility.yul\":7825:8874   */\n    tag_66:\n        /* \"#utility.yul\":7941:7947   */\n      0x00\n        /* \"#utility.yul\":7949:7955   */\n      dup1\n        /* \"#utility.yul\":7957:7963   */\n      0x00\n        /* \"#utility.yul\":7965:7971   */\n      dup1\n        /* \"#utility.yul\":7973:7979   */\n      0x00\n        /* \"#utility.yul\":8022:8024   */\n      0x60\n        /* \"#utility.yul\":8010:8019   */\n      dup7\n        /* \"#utility.yul\":8001:8008   */\n      dup9\n        /* \"#utility.yul\":7997:8020   */\n      sub\n        /* \"#utility.yul\":7993:8025   */\n      slt\n        /* \"#utility.yul\":7990:8109   */\n      iszero\n      tag_360\n      jumpi\n        /* \"#utility.yul\":8028:8107   */\n      tag_361\n      tag_217\n      jump\t// in\n    tag_361:\n        /* \"#utility.yul\":7990:8109   */\n    tag_360:\n        /* \"#utility.yul\":8176:8177   */\n      0x00\n        /* \"#utility.yul\":8165:8174   */\n      dup7\n        /* \"#utility.yul\":8161:8178   */\n      add\n        /* \"#utility.yul\":8148:8179   */\n      calldataload\n        /* \"#utility.yul\":8206:8224   */\n      0xffffffffffffffff\n        /* \"#utility.yul\":8198:8204   */\n      dup2\n        /* \"#utility.yul\":8195:8225   */\n      gt\n        /* \"#utility.yul\":8192:8309   */\n      iszero\n      tag_362\n      jumpi\n        /* \"#utility.yul\":8228:8307   */\n      tag_363\n      tag_218\n      jump\t// in\n    tag_363:\n        /* \"#utility.yul\":8192:8309   */\n    tag_362:\n        /* \"#utility.yul\":8341:8406   */\n      tag_364\n        /* \"#utility.yul\":8398:8405   */\n      dup9\n        /* \"#utility.yul\":8389:8395   */\n      dup3\n        /* \"#utility.yul\":8378:8387   */\n      dup10\n        /* \"#utility.yul\":8374:8396   */\n      add\n        /* \"#utility.yul\":8341:8406   */\n      tag_232\n      jump\t// in\n    tag_364:\n        /* \"#utility.yul\":8323:8406   */\n      swap6\n      pop\n      swap6\n      pop\n        /* \"#utility.yul\":8119:8416   */\n      pop\n        /* \"#utility.yul\":8483:8485   */\n      0x20\n        /* \"#utility.yul\":8472:8481   */\n      dup7\n        /* \"#utility.yul\":8468:8486   */\n      add\n        /* \"#utility.yul\":8455:8487   */\n      calldataload\n        /* \"#utility.yul\":8514:8532   */\n      0xffffffffffffffff\n        /* \"#utility.yul\":8506:8512   */\n      dup2\n        /* \"#utility.yul\":8503:8533   */\n      gt\n        /* \"#utility.yul\":8500:8617   */\n      iszero\n      tag_365\n      jumpi\n        /* \"#utility.yul\":8536:8615   */\n      tag_366\n      tag_218\n      jump\t// in\n    tag_366:\n        /* \"#utility.yul\":8500:8617   */\n    tag_365:\n        /* \"#utility.yul\":8649:8714   */\n      tag_367\n        /* \"#utility.yul\":8706:8713   */\n      dup9\n        /* \"#utility.yul\":8697:8703   */\n      dup3\n        /* \"#utility.yul\":8686:8695   */\n      dup10\n        /* \"#utility.yul\":8682:8704   */\n      add\n        /* \"#utility.yul\":8649:8714   */\n      tag_232\n      jump\t// in\n    tag_367:\n        /* \"#utility.yul\":8631:8714   */\n      swap4\n      pop\n      swap4\n      pop\n        /* \"#utility.yul\":8426:8724   */\n      pop\n        /* \"#utility.yul\":8763:8765   */\n      0x40\n        /* \"#utility.yul\":8789:8857   */\n      tag_368\n        /* \"#utility.yul\":8849:8856   */\n      dup9\n        /* \"#utility.yul\":8840:8846   */\n      dup3\n        /* \"#utility.yul\":8829:8838   */\n      dup10\n        /* \"#utility.yul\":8825:8847   */\n      add\n        /* \"#utility.yul\":8789:8857   */\n      tag_236\n      jump\t// in\n    tag_368:\n        /* \"#utility.yul\":8779:8857   */\n      swap2\n      pop\n        /* \"#utility.yul\":8734:8867   */\n      pop\n        /* \"#utility.yul\":7825:8874   */\n      swap3\n      swap6\n      pop\n      swap3\n      swap6\n      swap1\n      swap4\n      pop\n      jump\t// out\n        /* \"#utility.yul\":8880:9239   */\n    tag_85:\n        /* \"#utility.yul\":8954:8960   */\n      0x00\n        /* \"#utility.yul\":9003:9005   */\n      0x20\n        /* \"#utility.yul\":8991:9000   */\n      dup3\n        /* \"#utility.yul\":8982:8989   */\n      dup5\n        /* \"#utility.yul\":8978:9001   */\n      sub\n        /* \"#utility.yul\":8974:9006   */\n      slt\n        /* \"#utility.yul\":8971:9090   */\n      iszero\n      tag_370\n      jumpi\n        /* \"#utility.yul\":9009:9088   */\n      tag_371\n      tag_217\n      jump\t// in\n    tag_371:\n        /* \"#utility.yul\":8971:9090   */\n    tag_370:\n        /* \"#utility.yul\":9129:9130   */\n      0x00\n        /* \"#utility.yul\":9154:9222   */\n      tag_372\n        /* \"#utility.yul\":9214:9221   */\n      dup5\n        /* \"#utility.yul\":9205:9211   */\n      dup3\n        /* \"#utility.yul\":9194:9203   */\n      dup6\n        /* \"#utility.yul\":9190:9212   */\n      add\n        /* \"#utility.yul\":9154:9222   */\n      tag_236\n      jump\t// in\n    tag_372:\n        /* \"#utility.yul\":9144:9222   */\n      swap2\n      pop\n        /* \"#utility.yul\":9100:9232   */\n      pop\n        /* \"#utility.yul\":8880:9239   */\n      swap3\n      swap2\n      pop\n      pop\n      jump\t// out\n        /* \"#utility.yul\":9245:9719   */\n    tag_90:\n        /* \"#utility.yul\":9313:9319   */\n      0x00\n        /* \"#utility.yul\":9321:9327   */\n      dup1\n        /* \"#utility.yul\":9370:9372   */\n      0x40\n        /* \"#utility.yul\":9358:9367   */\n      dup4\n        /* \"#utility.yul\":9349:9356   */\n      dup6\n        /* \"#utility.yul\":9345:9368   */\n      sub\n        /* \"#utility.yul\":9341:9373   */\n      slt\n        /* \"#utility.yul\":9338:9457   */\n      iszero\n      tag_374\n      jumpi\n        /* \"#utility.yul\":9376:9455   */\n      tag_375\n      tag_217\n      jump\t// in\n    tag_375:\n        /* \"#utility.yul\":9338:9457   */\n    tag_374:\n        /* \"#utility.yul\":9496:9497   */\n      0x00\n        /* \"#utility.yul\":9521:9574   */\n      tag_376\n        /* \"#utility.yul\":9566:9573   */\n      dup6\n        /* \"#utility.yul\":9557:9563   */\n      dup3\n        /* \"#utility.yul\":9546:9555   */\n      dup7\n        /* \"#utility.yul\":9542:9564   */\n      add\n        /* \"#utility.yul\":9521:9574   */\n      tag_222\n      jump\t// in\n    tag_376:\n        /* \"#utility.yul\":9511:9574   */\n      swap3\n      pop\n        /* \"#utility.yul\":9467:9584   */\n      pop\n        /* \"#utility.yul\":9623:9625   */\n      0x20\n        /* \"#utility.yul\":9649:9702   */\n      tag_377\n        /* \"#utility.yul\":9694:9701   */\n      dup6\n        /* \"#utility.yul\":9685:9691   */\n      dup3\n        /* \"#utility.yul\":9674:9683   */\n      dup7\n        /* \"#utility.yul\":9670:9692   */\n      add\n        /* \"#utility.yul\":9649:9702   */\n      tag_222\n      jump\t// in\n    tag_377:\n        /* \"#utility.yul\":9639:9702   */\n      swap2\n      pop\n        /* \"#utility.yul\":9594:9712   */\n      pop\n        /* \"#utility.yul\":9245:9719   */\n      swap3\n      pop\n      swap3\n      swap1\n      pop\n      jump\t// out\n        /* \"#utility.yul\":9725:9905   */\n    tag_237:\n        /* \"#utility.yul\":9773:9850   */\n      0x4e487b7100000000000000000000000000000000000000000000000000000000\n        /* \"#utility.yul\":9770:9771   */\n      0x00\n        /* \"#utility.yul\":9763:9851   */\n      mstore\n        /* \"#utility.yul\":9870:9874   */\n      0x22\n        /* \"#utility.yul\":9867:9868   */\n      0x04\n        /* \"#utility.yul\":9860:9875   */\n      mstore\n        /* \"#utility.yul\":9894:9898   */\n      0x24\n        /* \"#utility.yul\":9891:9892   */\n      0x00\n        /* \"#utility.yul\":9884:9899   */\n      revert\n        /* \"#utility.yul\":9911:10231   */\n    tag_99:\n        /* \"#utility.yul\":9955:9961   */\n      0x00\n        /* \"#utility.yul\":9992:9993   */\n      0x02\n        /* \"#utility.yul\":9986:9990   */\n      dup3\n        /* \"#utility.yul\":9982:9994   */\n      div\n        /* \"#utility.yul\":9972:9994   */\n      swap1\n      pop\n        /* \"#utility.yul\":10039:10040   */\n      0x01\n        /* \"#utility.yul\":10033:10037   */\n      dup3\n        /* \"#utility.yul\":10029:10041   */\n      and\n        /* \"#utility.yul\":10060:10078   */\n      dup1\n        /* \"#utility.yul\":10050:10131   */\n      tag_380\n      jumpi\n        /* \"#utility.yul\":10116:10120   */\n      0x7f\n        /* \"#utility.yul\":10108:10114   */\n      dup3\n        /* \"#utility.yul\":10104:10121   */\n      and\n        /* \"#utility.yul\":10094:10121   */\n      swap2\n      pop\n        /* \"#utility.yul\":10050:10131   */\n    tag_380:\n        /* \"#utility.yul\":10178:10180   */\n      0x20\n        /* \"#utility.yul\":10170:10176   */\n      dup3\n        /* \"#utility.yul\":10167:10181   */\n      lt\n        /* \"#utility.yul\":10147:10165   */\n      dup2\n        /* \"#utility.yul\":10144:10182   */\n      sub\n        /* \"#utility.yul\":10141:10225   */\n      tag_381\n      jumpi\n        /* \"#utility.yul\":10197:10215   */\n      tag_382\n      tag_237\n      jump\t// in\n    tag_382:\n        /* \"#utility.yul\":10141:10225   */\n    tag_381:\n        /* \"#utility.yul\":9962:10231   */\n      pop\n        /* \"#utility.yul\":9911:10231   */\n      swap2\n      swap1\n      pop\n      jump\t// out\n        /* \"#utility.yul\":10237:10334   */\n    tag_238:\n        /* \"#utility.yul\":10296:10302   */\n      0x00\n        /* \"#utility.yul\":10324:10327   */\n      dup3\n        /* \"#utility.yul\":10314:10327   */\n      swap1\n      pop\n        /* \"#utility.yul\":10237:10334   */\n      swap3\n      swap2\n      pop\n      pop\n      jump\t// out\n        /* \"#utility.yul\":10340:10520   */\n    tag_239:\n        /* \"#utility.yul\":10388:10465   */\n      0x4e487b7100000000000000000000000000000000000000000000000000000000\n        /* \"#utility.yul\":10385:10386   */\n      0x00\n        /* \"#utility.yul\":10378:10466   */\n      mstore\n        /* \"#utility.yul\":10485:10489   */\n      0x41\n        /* \"#utility.yul\":10482:10483   */\n      0x04\n        /* \"#utility.yul\":10475:10490   */\n      mstore\n        /* \"#utility.yul\":10509:10513   */\n      0x24\n        /* \"#utility.yul\":10506:10507   */\n      0x00\n        /* \"#utility.yul\":10499:10514   */\n      revert\n        /* \"#utility.yul\":10526:10667   */\n    tag_240:\n        /* \"#utility.yul\":10575:10579   */\n      0x00\n        /* \"#utility.yul\":10598:10601   */\n      dup2\n        /* \"#utility.yul\":10590:10601   */\n      swap1\n      pop\n        /* \"#utility.yul\":10621:10624   */\n      dup2\n        /* \"#utility.yul\":10618:10619   */\n      0x00\n        /* \"#utility.yul\":10611:10625   */\n      mstore\n        /* \"#utility.yul\":10655:10659   */\n      0x20\n        /* \"#utility.yul\":10652:10653   */\n      0x00\n        /* \"#utility.yul\":10642:10660   */\n      keccak256\n        /* \"#utility.yul\":10634:10660   */\n      swap1\n      pop\n        /* \"#utility.yul\":10526:10667   */\n      swap2\n      swap1\n      pop\n      jump\t// out\n        /* \"#utility.yul\":10673:10766   */\n    tag_241:\n        /* \"#utility.yul\":10710:10716   */\n      0x00\n        /* \"#utility.yul\":10757:10759   */\n      0x20\n        /* \"#utility.yul\":10752:10754   */\n      0x1f\n        /* \"#utility.yul\":10745:10750   */\n      dup4\n        /* \"#utility.yul\":10741:10755   */\n      add\n        /* \"#utility.yul\":10737:10760   */\n      div\n        /* \"#utility.yul\":10727:10760   */\n      swap1\n      pop\n        /* \"#utility.yul\":10673:10766   */\n      swap2\n      swap1\n      pop\n      jump\t// out\n        /* \"#utility.yul\":10772:10879   */\n    tag_242:\n        /* \"#utility.yul\":10816:10824   */\n      0x00\n        /* \"#utility.yul\":10866:10871   */\n      dup3\n        /* \"#utility.yul\":10860:10864   */\n      dup3\n        /* \"#utility.yul\":10856:10872   */\n      shl\n        /* \"#utility.yul\":10835:10872   */\n      swap1\n      pop\n        /* \"#utility.yul\":10772:10879   */\n      swap3\n      swap2\n      pop\n      pop\n      jump\t// out\n        /* \"#utility.yul\":10885:11278   */\n    tag_243:\n        /* \"#utility.yul\":10954:10960   */\n      0x00\n        /* \"#utility.yul\":11004:11005   */\n      0x08\n        /* \"#utility.yul\":10992:11002   */\n      dup4\n        /* \"#utility.yul\":10988:11006   */\n      mul\n        /* \"#utility.yul\":11027:11124   */\n      tag_389\n        /* \"#utility.yul\":11057:11123   */\n      0xffffffffffffffffffffffffffffffffffffffffffffffffffffffffffffffff\n        /* \"#utility.yul\":11046:11055   */\n      dup3\n        /* \"#utility.yul\":11027:11124   */\n      tag_242\n      jump\t// in\n    tag_389:\n        /* \"#utility.yul\":11145:11184   */\n      tag_390\n        /* \"#utility.yul\":11175:11183   */\n      dup7\n        /* \"#utility.yul\":11164:11173   */\n      dup4\n        /* \"#utility.yul\":11145:11184   */\n      tag_242\n      jump\t// in\n    tag_390:\n        /* \"#utility.yul\":11133:11184   */\n      swap6\n      pop\n        /* \"#utility.yul\":11217:11221   */\n      dup1\n        /* \"#utility.yul\":11213:11222   */\n      not\n        /* \"#utility.yul\":11206:11211   */\n      dup5\n        /* \"#utility.yul\":11202:11223   */\n      and\n        /* \"#utility.yul\":11193:11223   */\n      swap4\n      pop\n        /* \"#utility.yul\":11266:11270   */\n      dup1\n        /* \"#utility.yul\":11256:11264   */\n      dup7\n        /* \"#utility.yul\":11252:11271   */\n      and\n        /* \"#utility.yul\":11245:11250   */\n      dup5\n        /* \"#utility.yul\":11242:11272   */\n      or\n        /* \"#utility.yul\":11232:11272   */\n      swap3\n      pop\n        /* \"#utility.yul\":10961:11278   */\n      pop\n      pop\n        /* \"#utility.yul\":10885:11278   */\n      swap4\n      swap3\n      pop\n      pop\n      pop\n      jump\t// out\n        /* \"#utility.yul\":11284:11344   */\n    tag_244:\n        /* \"#utility.yul\":11312:11315   */\n      0x00\n        /* \"#utility.yul\":11333:11338   */\n      dup2\n        /* \"#utility.yul\":11326:11338   */\n      swap1\n      pop\n        /* \"#utility.yul\":11284:11344   */\n      swap2\n      swap1\n      pop\n      jump\t// out\n        /* \"#utility.yul\":11350:11492   */\n    tag_245:\n        /* \"#utility.yul\":11400:11409   */\n      0x00\n        /* \"#utility.yul\":11433:11486   */\n      tag_393\n        /* \"#utility.yul\":11451:11485   */\n      tag_394\n        /* \"#utility.yul\":11460:11484   */\n      tag_395\n        /* \"#utility.yul\":11478:11483   */\n      dup5\n        /* \"#utility.yul\":11460:11484   */\n      tag_223\n      jump\t// in\n    tag_395:\n        /* \"#utility.yul\":11451:11485   */\n      tag_244\n      jump\t// in\n    tag_394:\n        /* \"#utility.yul\":11433:11486   */\n      tag_223\n      jump\t// in\n    tag_393:\n        /* \"#utility.yul\":11420:11486   */\n      swap1\n      pop\n        /* \"#utility.yul\":11350:11492   */\n      swap2\n      swap1\n      pop\n      jump\t// out\n        /* \"#utility.yul\":11498:11573   */\n    tag_246:\n        /* \"#utility.yul\":11541:11544   */\n      0x00\n        /* \"#utility.yul\":11562:11567   */\n      dup2\n        /* \"#utility.yul\":11555:11567   */\n      swap1\n      pop\n        /* \"#utility.yul\":11498:11573   */\n      swap2\n      swap1\n      pop\n      jump\t// out\n        /* \"#utility.yul\":11579:11848   */\n    tag_247:\n        /* \"#utility.yul\":11689:11728   */\n      tag_398\n        /* \"#utility.yul\":11720:11727   */\n      dup4\n        /* \"#utility.yul\":11689:11728   */\n      tag_245\n      jump\t// in\n    tag_398:\n        /* \"#utility.yul\":11750:11841   */\n      tag_399\n        /* \"#utility.yul\":11799:11840   */\n      tag_400\n        /* \"#utility.yul\":11823:11839   */\n      dup3\n        /* \"#utility.yul\":11799:11840   */\n      tag_246\n      jump\t// in\n    tag_400:\n        /* \"#utility.yul\":11791:11797   */\n      dup5\n        /* \"#utility.yul\":11784:11788   */\n      dup5\n        /* \"#utility.yul\":11778:11789   */\n      sload\n        /* \"#utility.yul\":11750:11841   */\n      tag_243\n      jump\t// in\n    tag_399:\n        /* \"#utility.yul\":11744:11748   */\n      dup3\n        /* \"#utility.yul\":11737:11842   */\n      sstore\n        /* \"#utility.yul\":11655:11848   */\n      pop\n        /* \"#utility.yul\":11579:11848   */\n      pop\n      pop\n      pop\n      jump\t// out\n        /* \"#utility.yul\":11854:11927   */\n    tag_248:\n        /* \"#utility.yul\":11899:11902   */\n      0x00\n        /* \"#utility.yul\":11854:11927   */\n      swap1\n      jump\t// out\n        /* \"#utility.yul\":11933:12122   */\n    tag_249:\n        /* \"#utility.yul\":12010:12042   */\n      tag_403\n      tag_248\n      jump\t// in\n    tag_403:\n        /* \"#utility.yul\":12051:12116   */\n      tag_404\n        /* \"#utility.yul\":12109:12115   */\n      dup2\n        /* \"#utility.yul\":12101:12107   */\n      dup5\n        /* \"#utility.yul\":12095:12099   */\n      dup5\n        /* \"#utility.yul\":12051:12116   */\n      tag_247\n      jump\t// in\n    tag_404:\n        /* \"#utility.yul\":11986:12122   */\n      pop\n        /* \"#utility.yul\":11933:12122   */\n      pop\n      pop\n      jump\t// out\n        /* \"#utility.yul\":12128:12314   */\n    tag_250:\n        /* \"#utility.yul\":12188:12308   */\n    tag_406:\n        /* \"#utility.yul\":12205:12208   */\n      dup2\n        /* \"#utility.yul\":12198:12203   */\n      dup2\n        /* \"#utility.yul\":12195:12209   */\n      lt\n        /* \"#utility.yul\":12188:12308   */\n      iszero\n      tag_408\n      jumpi\n        /* \"#utility.yul\":12259:12298   */\n      tag_409\n        /* \"#utility.yul\":12296:12297   */\n      0x00\n        /* \"#utility.yul\":12289:12294   */\n      dup3\n        /* \"#utility.yul\":12259:12298   */\n      tag_249\n      jump\t// in\n    tag_409:\n        /* \"#utility.yul\":12232:12233   */\n      0x01\n        /* \"#utility.yul\":12225:12230   */\n      dup2\n        /* \"#utility.yul\":12221:12234   */\n      add\n        /* \"#utility.yul\":12212:12234   */\n      swap1\n      pop\n        /* \"#utility.yul\":12188:12308   */\n      jump(tag_406)\n    tag_408:\n        /* \"#utility.yul\":12128:12314   */\n      pop\n      pop\n      jump\t// out\n        /* \"#utility.yul\":12320:12863   */\n    tag_251:\n        /* \"#utility.yul\":12421:12423   */\n      0x1f\n        /* \"#utility.yul\":12416:12419   */\n      dup3\n        /* \"#utility.yul\":12413:12424   */\n      gt\n        /* \"#utility.yul\":12410:12856   */\n      iszero\n      tag_411\n      jumpi\n        /* \"#utility.yul\":12455:12493   */\n      tag_412\n        /* \"#utility.yul\":12487:12492   */\n      dup2\n        /* \"#utility.yul\":12455:12493   */\n      tag_240\n      jump\t// in\n    tag_412:\n        /* \"#utility.yul\":12539:12568   */\n      tag_413\n        /* \"#utility.yul\":12557:12567   */\n      dup5\n        /* \"#utility.yul\":12539:12568   */\n      tag_241\n      jump\t// in\n    tag_413:\n        /* \"#utility.yul\":12529:12537   */\n      dup2\n        /* \"#utility.yul\":12525:12569   */\n      add\n        /* \"#utility.yul\":12722:12724   */\n      0x20\n        /* \"#utility.yul\":12710:12720   */\n      dup6\n        /* \"#utility.yul\":12707:12725   */\n      lt\n        /* \"#utility.yul\":12704:12753   */\n      iszero\n      tag_414\n      jumpi\n        /* \"#utility.yul\":12743:12751   */\n      dup2\n        /* \"#utility.yul\":12728:12751   */\n      swap1\n      pop\n        /* \"#utility.yul\":12704:12753   */\n    tag_414:\n        /* \"#utility.yul\":12766:12846   */\n      tag_415\n        /* \"#utility.yul\":12822:12844   */\n      tag_416\n        /* \"#utility.yul\":12840:12843   */\n      dup6\n        /* \"#utility.yul\":12822:12844   */\n      tag_241\n      jump\t// in\n    tag_416:\n        /* \"#utility.yul\":12812:12820   */\n      dup4\n        /* \"#utility.yul\":12808:12845   */\n      add\n        /* \"#utility.yul\":12795:12806   */\n      dup3\n        /* \"#utility.yul\":12766:12846   */\n      tag_250\n      jump\t// in\n    tag_415:\n        /* \"#utility.yul\":12425:12856   */\n      pop\n      pop\n        /* \"#utility.yul\":12410:12856   */\n    tag_411:\n        /* \"#utility.yul\":12320:12863   */\n      pop\n      pop\n      pop\n      jump\t// out\n        /* \"#utility.yul\":12869:12986   */\n    tag_252:\n        /* \"#utility.yul\":12923:12931   */\n      0x00\n        /* \"#utility.yul\":12973:12978   */\n      dup3\n        /* \"#utility.yul\":12967:12971   */\n      dup3\n        /* \"#utility.yul\":12963:12979   */\n      shr\n        /* \"#utility.yul\":12942:12979   */\n      swap1\n      pop\n        /* \"#utility.yul\":12869:12986   */\n      swap3\n      swap2\n      pop\n      pop\n      jump\t// out\n        /* \"#utility.yul\":12992:13161   */\n    tag_253:\n        /* \"#utility.yul\":13036:13042   */\n      0x00\n        /* \"#utility.yul\":13069:13120   */\n      tag_419\n        /* \"#utility.yul\":13117:13118   */\n      0x00\n        /* \"#utility.yul\":13113:13119   */\n      not\n        /* \"#utility.yul\":13105:13110   */\n      dup5\n        /* \"#utility.yul\":13102:13103   */\n      0x08\n        /* \"#utility.yul\":13098:13111   */\n      mul\n        /* \"#utility.yul\":13069:13120   */\n      tag_252\n      jump\t// in\n    tag_419:\n        /* \"#utility.yul\":13065:13121   */\n      not\n        /* \"#utility.yul\":13150:13154   */\n      dup1\n        /* \"#utility.yul\":13144:13148   */\n      dup4\n        /* \"#utility.yul\":13140:13155   */\n      and\n        /* \"#utility.yul\":13130:13155   */\n      swap2\n      pop\n        /* \"#utility.yul\":13043:13161   */\n      pop\n        /* \"#utility.yul\":12992:13161   */\n      swap3\n      swap2\n      pop\n      pop\n      jump\t// out\n        /* \"#utility.yul\":13166:13461   */\n    tag_254:\n        /* \"#utility.yul\":13242:13246   */\n      0x00\n        /* \"#utility.yul\":13388:13417   */\n      tag_421\n        /* \"#utility.yul\":13413:13416   */\n      dup4\n        /* \"#utility.yul\":13407:13411   */\n      dup4\n        /* \"#utility.yul\":13388:13417   */\n      tag_253\n      jump\t// in\n    tag_421:\n        /* \"#utility.yul\":13380:13417   */\n      swap2\n      pop\n        /* \"#utility.yul\":13450:13453   */\n      dup3\n        /* \"#utility.yul\":13447:13448   */\n      0x02\n        /* \"#utility.yul\":13443:13454   */\n      mul\n        /* \"#utility.yul\":13437:13441   */\n      dup3\n        /* \"#utility.yul\":13434:13455   */\n      or\n        /* \"#utility.yul\":13426:13455   */\n      swap1\n      pop\n        /* \"#utility.yul\":13166:13461   */\n      swap3\n      swap2\n      pop\n      pop\n      jump\t// out\n        /* \"#utility.yul\":13466:14869   */\n    tag_122:\n        /* \"#utility.yul\":13590:13634   */\n      tag_423\n        /* \"#utility.yul\":13630:13633   */\n      dup4\n        /* \"#utility.yul\":13625:13628   */\n      dup4\n        /* \"#utility.yul\":13590:13634   */\n      tag_238\n      jump\t// in\n    tag_423:\n        /* \"#utility.yul\":13699:13717   */\n      0xffffffffffffffff\n        /* \"#utility.yul\":13691:13697   */\n      dup2\n        /* \"#utility.yul\":13688:13718   */\n      gt\n        /* \"#utility.yul\":13685:13741   */\n      iszero\n      tag_424\n      jumpi\n        /* \"#utility.yul\":13721:13739   */\n      tag_425\n      tag_239\n      jump\t// in\n    tag_425:\n        /* \"#utility.yul\":13685:13741   */\n    tag_424:\n        /* \"#utility.yul\":13765:13803   */\n      tag_426\n        /* \"#utility.yul\":13797:13801   */\n      dup3\n        /* \"#utility.yul\":13791:13802   */\n      sload\n        /* \"#utility.yul\":13765:13803   */\n      tag_99\n      jump\t// in\n    tag_426:\n        /* \"#utility.yul\":13850:13917   */\n      tag_427\n        /* \"#utility.yul\":13910:13916   */\n      dup3\n        /* \"#utility.yul\":13902:13908   */\n      dup3\n        /* \"#utility.yul\":13896:13900   */\n      dup6\n        /* \"#utility.yul\":13850:13917   */\n      tag_251\n      jump\t// in\n    tag_427:\n        /* \"#utility.yul\":13944:13945   */\n      0x00\n        /* \"#utility.yul\":13973:13975   */\n      0x1f\n        /* \"#utility.yul\":13965:13971   */\n      dup4\n        /* \"#utility.yul\":13962:13976   */\n      gt\n        /* \"#utility.yul\":13990:13991   */\n      0x01\n        /* \"#utility.yul\":13985:14617   */\n      dup2\n      eq\n      tag_429\n      jumpi\n        /* \"#utility.yul\":14661:14662   */\n      0x00\n        /* \"#utility.yul\":14678:14684   */\n      dup5\n        /* \"#utility.yul\":14675:14759   */\n      iszero\n      tag_430\n      jumpi\n        /* \"#utility.yul\":14734:14743   */\n      dup3\n        /* \"#utility.yul\":14729:14732   */\n      dup8\n        /* \"#utility.yul\":14725:14744   */\n      add\n        /* \"#utility.yul\":14712:14745   */\n      calldataload\n        /* \"#utility.yul\":14703:14745   */\n      swap1\n      pop\n        /* \"#utility.yul\":14675:14759   */\n    tag_430:\n        /* \"#utility.yul\":14785:14852   */\n      tag_431\n        /* \"#utility.yul\":14845:14851   */\n      dup6\n        /* \"#utility.yul\":14838:14843   */\n      dup3\n        /* \"#utility.yul\":14785:14852   */\n      tag_254\n      jump\t// in\n    tag_431:\n        /* \"#utility.yul\":14779:14783   */\n      dup7\n        /* \"#utility.yul\":14772:14853   */\n      sstore\n        /* \"#utility.yul\":14634:14863   */\n      pop\n        /* \"#utility.yul\":13955:14863   */\n      jump(tag_428)\n        /* \"#utility.yul\":13985:14617   */\n    tag_429:\n        /* \"#utility.yul\":14037:14041   */\n      0x1f\n        /* \"#utility.yul\":14033:14042   */\n      not\n        /* \"#utility.yul\":14025:14031   */\n      dup5\n        /* \"#utility.yul\":14021:14043   */\n      and\n        /* \"#utility.yul\":14071:14108   */\n      tag_432\n        /* \"#utility.yul\":14103:14107   */\n      dup7\n        /* \"#utility.yul\":14071:14108   */\n      tag_240\n      jump\t// in\n    tag_432:\n        /* \"#utility.yul\":14130:14131   */\n      0x00\n        /* \"#utility.yul\":14144:14359   */\n    tag_433:\n        /* \"#utility.yul\":14158:14165   */\n      dup3\n        /* \"#utility.yul\":14155:14156   */\n      dup2\n        /* \"#utility.yul\":14152:14166   */\n      lt\n        /* \"#utility.yul\":14144:14359   */\n      iszero\n      tag_435\n      jumpi\n        /* \"#utility.yul\":14244:14253   */\n      dup5\n        /* \"#utility.yul\":14239:14242   */\n      dup10\n        /* \"#utility.yul\":14235:14254   */\n      add\n        /* \"#utility.yul\":14222:14255   */\n      calldataload\n        /* \"#utility.yul\":14214:14220   */\n      dup3\n        /* \"#utility.yul\":14207:14256   */\n      sstore\n        /* \"#utility.yul\":14295:14296   */\n      0x01\n        /* \"#utility.yul\":14287:14293   */\n      dup3\n        /* \"#utility.yul\":14283:14297   */\n      add\n        /* \"#utility.yul\":14273:14297   */\n      swap2\n      pop\n        /* \"#utility.yul\":14342:14344   */\n      0x20\n        /* \"#utility.yul\":14331:14340   */\n      dup6\n        /* \"#utility.yul\":14327:14345   */\n      add\n        /* \"#utility.yul\":14314:14345   */\n      swap5\n      pop\n        /* \"#utility.yul\":14181:14185   */\n      0x20\n        /* \"#utility.yul\":14178:14179   */\n      dup2\n        /* \"#utility.yul\":14174:14186   */\n      add\n        /* \"#utility.yul\":14169:14186   */\n      swap1\n      pop\n        /* \"#utility.yul\":14144:14359   */\n      jump(tag_433)\n    tag_435:\n        /* \"#utility.yul\":14387:14393   */\n      dup7\n        /* \"#utility.yul\":14378:14385   */\n      dup4\n        /* \"#utility.yul\":14375:14394   */\n      lt\n        /* \"#utility.yul\":14372:14558   */\n      iszero\n      tag_436\n      jumpi\n        /* \"#utility.yul\":14452:14461   */\n      dup5\n        /* \"#utility.yul\":14447:14450   */\n      dup10\n        /* \"#utility.yul\":14443:14462   */\n      add\n        /* \"#utility.yul\":14430:14463   */\n      calldataload\n        /* \"#utility.yul\":14495:14543   */\n      tag_437\n        /* \"#utility.yul\":14537:14541   */\n      0x1f\n        /* \"#utility.yul\":14529:14535   */\n      dup10\n        /* \"#utility.yul\":14525:14542   */\n      and\n        /* \"#utility.yul\":14514:14523   */\n      dup3\n        /* \"#utility.yul\":14495:14543   */\n      tag_253\n      jump\t// in\n    tag_437:\n        /* \"#utility.yul\":14487:14493   */\n      dup4\n        /* \"#utility.yul\":14480:14544   */\n      sstore\n        /* \"#utility.yul\":14395:14558   */\n      pop\n        /* \"#utility.yul\":14372:14558   */\n    tag_436:\n        /* \"#utility.yul\":14604:14605   */\n      0x01\n        /* \"#utility.yul\":14600:14601   */\n      0x02\n        /* \"#utility.yul\":14592:14598   */\n      dup9\n        /* \"#utility.yul\":14588:14602   */\n      mul\n        /* \"#utility.yul\":14584:14606   */\n      add\n        /* \"#utility.yul\":14578:14582   */\n      dup9\n        /* \"#utility.yul\":14571:14607   */\n      sstore\n        /* \"#utility.yul\":13992:14617   */\n      pop\n      pop\n      pop\n        /* \"#utility.yul\":13955:14863   */\n    tag_428:\n      pop\n        /* \"#utility.yul\":13565:14869   */\n      pop\n      pop\n      pop\n        /* \"#utility.yul\":13466:14869   */\n      pop\n      pop\n      pop\n      jump\t// out\n        /* \"#utility.yul\":14875:15055   */\n    tag_255:\n        /* \"#utility.yul\":14923:15000   */\n      0x4e487b7100000000000000000000000000000000000000000000000000000000\n        /* \"#utility.yul\":14920:14921   */\n      0x00\n        /* \"#utility.yul\":14913:15001   */\n      mstore\n        /* \"#utility.yul\":15020:15024   */\n      0x11\n        /* \"#utility.yul\":15017:15018   */\n      0x04\n        /* \"#utility.yul\":15010:15025   */\n      mstore\n        /* \"#utility.yul\":15044:15048   */\n      0x24\n        /* \"#utility.yul\":15041:15042   */\n      0x00\n        /* \"#utility.yul\":15034:15049   */\n      revert\n        /* \"#utility.yul\":15061:15252   */\n    tag_136:\n        /* \"#utility.yul\":15101:15104   */\n      0x00\n        /* \"#utility.yul\":15120:15140   */\n      tag_440\n        /* \"#utility.yul\":15138:15139   */\n      dup3\n        /* \"#utility.yul\":15120:15140   */\n      tag_223\n      jump\t// in\n    tag_440:\n        /* \"#utility.yul\":15115:15140   */\n      swap2\n      pop\n        /* \"#utility.yul\":15154:15174   */\n      tag_441\n        /* \"#utility.yul\":15172:15173   */\n      dup4\n        /* \"#utility.yul\":15154:15174   */\n      tag_223\n      jump\t// in\n    tag_441:\n        /* \"#utility.yul\":15149:15174   */\n      swap3\n      pop\n        /* \"#utility.yul\":15197:15198   */\n      dup3\n        /* \"#utility.yul\":15194:15195   */\n      dup3\n        /* \"#utility.yul\":15190:15199   */\n      add\n        /* \"#utility.yul\":15183:15199   */\n      swap1\n      pop\n        /* \"#utility.yul\":15218:15221   */\n      dup1\n        /* \"#utility.yul\":15215:15216   */\n      dup3\n        /* \"#utility.yul\":15212:15222   */\n      gt\n        /* \"#utility.yul\":15209:15245   */\n      iszero\n      tag_442\n      jumpi\n        /* \"#utility.yul\":15225:15243   */\n      tag_443\n      tag_255\n      jump\t// in\n    tag_443:\n        /* \"#utility.yul\":15209:15245   */\n    tag_442:\n        /* \"#utility.yul\":15061:15252   */\n      swap3\n      swap2\n      pop\n      pop\n      jump\t// out\n        /* \"#utility.yul\":15258:15404   */\n    tag_256:\n        /* \"#utility.yul\":15355:15361   */\n      dup3\n        /* \"#utility.yul\":15350:15353   */\n      dup2\n        /* \"#utility.yul\":15345:15348   */\n      dup4\n        /* \"#utility.yul\":15332:15362   */\n      calldatacopy\n        /* \"#utility.yul\":15396:15397   */\n      0x00\n        /* \"#utility.yul\":15387:15393   */\n      dup4\n        /* \"#utility.yul\":15382:15385   */\n      dup4\n        /* \"#utility.yul\":15378:15394   */\n      add\n        /* \"#utility.yul\":15371:15398   */\n      mstore\n        /* \"#utility.yul\":15258:15404   */\n      pop\n      pop\n      pop\n      jump\t// out\n        /* \"#utility.yul\":15434:15751   */\n    tag_257:\n        /* \"#utility.yul\":15532:15535   */\n      0x00\n        /* \"#utility.yul\":15553:15624   */\n      tag_446\n        /* \"#utility.yul\":15617:15623   */\n      dup4\n        /* \"#utility.yul\":15612:15615   */\n      dup6\n        /* \"#utility.yul\":15553:15624   */\n      tag_212\n      jump\t// in\n    tag_446:\n        /* \"#utility.yul\":15546:15624   */\n      swap4\n      pop\n        /* \"#utility.yul\":15634:15690   */\n      tag_447\n        /* \"#utility.yul\":15683:15689   */\n      dup4\n        /* \"#utility.yul\":15678:15681   */\n      dup6\n        /* \"#utility.yul\":15671:15676   */\n      dup5\n        /* \"#utility.yul\":15634:15690   */\n      tag_256\n      jump\t// in\n    tag_447:\n        /* \"#utility.yul\":15715:15744   */\n      tag_448\n        /* \"#utility.yul\":15737:15743   */\n      dup4\n        /* \"#utility.yul\":15715:15744   */\n      tag_214\n      jump\t// in\n    tag_448:\n        /* \"#utility.yul\":15710:15713   */\n      dup5\n        /* \"#utility.yul\":15706:15745   */\n      add\n        /* \"#utility.yul\":15699:15745   */\n      swap1\n      pop\n        /* \"#utility.yul\":15434:15751   */\n      swap4\n      swap3\n      pop\n      pop\n      pop\n      jump\t// out\n        /* \"#utility.yul\":15757:16311   */\n    tag_140:\n        /* \"#utility.yul\":15938:15942   */\n      0x00\n        /* \"#utility.yul\":15976:15978   */\n      0x40\n        /* \"#utility.yul\":15965:15974   */\n      dup3\n        /* \"#utility.yul\":15961:15979   */\n      add\n        /* \"#utility.yul\":15953:15979   */\n      swap1\n      pop\n        /* \"#utility.yul\":16025:16034   */\n      dup2\n        /* \"#utility.yul\":16019:16023   */\n      dup2\n        /* \"#utility.yul\":16015:16035   */\n      sub\n        /* \"#utility.yul\":16011:16012   */\n      0x00\n        /* \"#utility.yul\":16000:16009   */\n      dup4\n        /* \"#utility.yul\":15996:16013   */\n      add\n        /* \"#utility.yul\":15989:16036   */\n      mstore\n        /* \"#utility.yul\":16053:16141   */\n      tag_450\n        /* \"#utility.yul\":16136:16140   */\n      dup2\n        /* \"#utility.yul\":16127:16133   */\n      dup7\n        /* \"#utility.yul\":16119:16125   */\n      dup9\n        /* \"#utility.yul\":16053:16141   */\n      tag_257\n      jump\t// in\n    tag_450:\n        /* \"#utility.yul\":16045:16141   */\n      swap1\n      pop\n        /* \"#utility.yul\":16188:16197   */\n      dup2\n        /* \"#utility.yul\":16182:16186   */\n      dup2\n        /* \"#utility.yul\":16178:16198   */\n      sub\n        /* \"#utility.yul\":16173:16175   */\n      0x20\n        /* \"#utility.yul\":16162:16171   */\n      dup4\n        /* \"#utility.yul\":16158:16176   */\n      add\n        /* \"#utility.yul\":16151:16199   */\n      mstore\n        /* \"#utility.yul\":16216:16304   */\n      tag_451\n        /* \"#utility.yul\":16299:16303   */\n      dup2\n        /* \"#utility.yul\":16290:16296   */\n      dup5\n        /* \"#utility.yul\":16282:16288   */\n      dup7\n        /* \"#utility.yul\":16216:16304   */\n      tag_257\n      jump\t// in\n    tag_451:\n        /* \"#utility.yul\":16208:16304   */\n      swap1\n      pop\n        /* \"#utility.yul\":15757:16311   */\n      swap6\n      swap5\n      pop\n      pop\n      pop\n      pop\n      pop\n      jump\t// out\n        /* \"#utility.yul\":16317:16497   */\n    tag_150:\n        /* \"#utility.yul\":16365:16442   */\n      0x4e487b7100000000000000000000000000000000000000000000000000000000\n        /* \"#utility.yul\":16362:16363   */\n      0x00\n        /* \"#utility.yul\":16355:16443   */\n      mstore\n        /* \"#utility.yul\":16462:16466   */\n      0x21\n        /* \"#utility.yul\":16459:16460   */\n      0x04\n        /* \"#utility.yul\":16452:16467   */\n      mstore\n        /* \"#utility.yul\":16486:16490   */\n      0x24\n        /* \"#utility.yul\":16483:16484   */\n      0x00\n        /* \"#utility.yul\":16476:16491   */\n      revert\n        /* \"#utility.yul\":16503:16727   */\n    tag_258:\n        /* \"#utility.yul\":16643:16677   */\n      0x45524332303a2064656372656173656420616c6c6f77616e63652062656c6f77\n        /* \"#utility.yul\":16639:16640   */\n      0x00\n        /* \"#utility.yul\":16631:16637   */\n      dup3\n        /* \"#utility.yul\":16627:16641   */\n      add\n        /* \"#utility.yul\":16620:16678   */\n      mstore\n        /* \"#utility.yul\":16712:16719   */\n      0x207a65726f000000000000000000000000000000000000000000000000000000\n        /* \"#utility.yul\":16707:16709   */\n      0x20\n        /* \"#utility.yul\":16699:16705   */\n      dup3\n        /* \"#utility.yul\":16695:16710   */\n      add\n        /* \"#utility.yul\":16688:16720   */\n      mstore\n        /* \"#utility.yul\":16503:16727   */\n      pop\n      jump\t// out\n        /* \"#utility.yul\":16733:17099   */\n    tag_259:\n        /* \"#utility.yul\":16875:16878   */\n      0x00\n        /* \"#utility.yul\":16896:16963   */\n      tag_455\n        /* \"#utility.yul\":16960:16962   */\n      0x25\n        /* \"#utility.yul\":16955:16958   */\n      dup4\n        /* \"#utility.yul\":16896:16963   */\n      tag_212\n      jump\t// in\n    tag_455:\n        /* \"#utility.yul\":16889:16963   */\n      swap2\n      pop\n        /* \"#utility.yul\":16972:17065   */\n      tag_456\n        /* \"#utility.yul\":17061:17064   */\n      dup3\n        /* \"#utility.yul\":16972:17065   */\n      tag_258\n      jump\t// in\n    tag_456:\n        /* \"#utility.yul\":17090:17092   */\n      0x40\n        /* \"#utility.yul\":17085:17088   */\n      dup3\n        /* \"#utility.yul\":17081:17093   */\n      add\n        /* \"#utility.yul\":17074:17093   */\n      swap1\n      pop\n        /* \"#utility.yul\":16733:17099   */\n      swap2\n      swap1\n      pop\n      jump\t// out\n        /* \"#utility.yul\":17105:17524   */\n    tag_170:\n        /* \"#utility.yul\":17271:17275   */\n      0x00\n        /* \"#utility.yul\":17309:17311   */\n      0x20\n        /* \"#utility.yul\":17298:17307   */\n      dup3\n        /* \"#utility.yul\":17294:17312   */\n      add\n        /* \"#utility.yul\":17286:17312   */\n      swap1\n      pop\n        /* \"#utility.yul\":17358:17367   */\n      dup2\n        /* \"#utility.yul\":17352:17356   */\n      dup2\n        /* \"#utility.yul\":17348:17368   */\n      sub\n        /* \"#utility.yul\":17344:17345   */\n      0x00\n        /* \"#utility.yul\":17333:17342   */\n      dup4\n        /* \"#utility.yul\":17329:17346   */\n      add\n        /* \"#utility.yul\":17322:17369   */\n      mstore\n        /* \"#utility.yul\":17386:17517   */\n      tag_458\n        /* \"#utility.yul\":17512:17516   */\n      dup2\n        /* \"#utility.yul\":17386:17517   */\n      tag_259\n      jump\t// in\n    tag_458:\n        /* \"#utility.yul\":17378:17517   */\n      swap1\n      pop\n        /* \"#utility.yul\":17105:17524   */\n      swap2\n      swap1\n      pop\n      jump\t// out\n        /* \"#utility.yul\":17530:17753   */\n    tag_260:\n        /* \"#utility.yul\":17670:17704   */\n      0x45524332303a20617070726f76652066726f6d20746865207a65726f20616464\n        /* \"#utility.yul\":17666:17667   */\n      0x00\n        /* \"#utility.yul\":17658:17664   */\n      dup3\n        /* \"#utility.yul\":17654:17668   */\n      add\n        /* \"#utility.yul\":17647:17705   */\n      mstore\n        /* \"#utility.yul\":17739:17745   */\n      0x7265737300000000000000000000000000000000000000000000000000000000\n        /* \"#utility.yul\":17734:17736   */\n      0x20\n        /* \"#utility.yul\":17726:17732   */\n      dup3\n        /* \"#utility.yul\":17722:17737   */\n      add\n        /* \"#utility.yul\":17715:17746   */\n      mstore\n        /* \"#utility.yul\":17530:17753   */\n      pop\n      jump\t// out\n        /* \"#utility.yul\":17759:18125   */\n    tag_261:\n        /* \"#utility.yul\":17901:17904   */\n      0x00\n        /* \"#utility.yul\":17922:17989   */\n      tag_461\n        /* \"#utility.yul\":17986:17988   */\n      0x24\n        /* \"#utility.yul\":17981:17984   */\n      dup4\n        /* \"#utility.yul\":17922:17989   */\n      tag_212\n      jump\t// in\n    tag_461:\n        /* \"#utility.yul\":17915:17989   */\n      swap2\n      pop\n        /* \"#utility.yul\":17998:18091   */\n      tag_462\n        /* \"#utility.yul\":18087:18090   */\n      dup3\n        /* \"#utility.yul\":17998:18091   */\n      tag_260\n      jump\t// in\n    tag_462:\n        /* \"#utility.yul\":18116:18118   */\n      0x40\n        /* \"#utility.yul\":18111:18114   */\n      dup3\n        /* \"#utility.yul\":18107:18119   */\n      add\n        /* \"#utility.yul\":18100:18119   */\n      swap1\n      pop\n        /* \"#utility.yul\":17759:18125   */\n      swap2\n      swap1\n      pop\n      jump\t// out\n        /* \"#utility.yul\":18131:18550   */\n    tag_182:\n        /* \"#utility.yul\":18297:18301   */\n      0x00\n        /* \"#utility.yul\":18335:18337   */\n      0x20\n        /* \"#utility.yul\":18324:18333   */\n      dup3\n        /* \"#utility.yul\":18320:18338   */\n      add\n        /* \"#utility.yul\":18312:18338   */\n      swap1\n      pop\n        /* \"#utility.yul\":18384:18393   */\n      dup2\n        /* \"#utility.yul\":18378:18382   */\n      dup2\n        /* \"#utility.yul\":18374:18394   */\n      sub\n        /* \"#utility.yul\":18370:18371   */\n      0x00\n        /* \"#utility.yul\":18359:18368   */\n      dup4\n        /* \"#utility.yul\":18355:18372   */\n      add\n        /* \"#utility.yul\":18348:18395   */\n      mstore\n        /* \"#utility.yul\":18412:18543   */\n      tag_464\n        /* \"#utility.yul\":18538:18542   */\n      dup2\n        /* \"#utility.yul\":18412:18543   */\n      tag_261\n      jump\t// in\n    tag_464:\n        /* \"#utility.yul\":18404:18543   */\n      swap1\n      pop\n        /* \"#utility.yul\":18131:18550   */\n      swap2\n      swap1\n      pop\n      jump\t// out\n        /* \"#utility.yul\":18556:18777   */\n    tag_262:\n        /* \"#utility.yul\":18696:18730   */\n      0x45524332303a20617070726f766520746f20746865207a65726f206164647265\n        /* \"#utility.yul\":18692:18693   */\n      0x00\n        /* \"#utility.yul\":18684:18690   */\n      dup3\n        /* \"#utility.yul\":18680:18694   */\n      add\n        /* \"#utility.yul\":18673:18731   */\n      mstore\n        /* \"#utility.yul\":18765:18769   */\n      0x7373000000000000000000000000000000000000000000000000000000000000\n        /* \"#utility.yul\":18760:18762   */\n      0x20\n        /* \"#utility.yul\":18752:18758   */\n      dup3\n        /* \"#utility.yul\":18748:18763   */\n      add\n        /* \"#utility.yul\":18741:18770   */\n      mstore\n        /* \"#utility.yul\":18556:18777   */\n      pop\n      jump\t// out\n        /* \"#utility.yul\":18783:19149   */\n    tag_263:\n        /* \"#utility.yul\":18925:18928   */\n      0x00\n        /* \"#utility.yul\":18946:19013   */\n      tag_467\n        /* \"#utility.yul\":19010:19012   */\n      0x22\n        /* \"#utility.yul\":19005:19008   */\n      dup4\n        /* \"#utility.yul\":18946:19013   */\n      tag_212\n      jump\t// in\n    tag_467:\n        /* \"#utility.yul\":18939:19013   */\n      swap2\n      pop\n        /* \"#utility.yul\":19022:19115   */\n      tag_468\n        /* \"#utility.yul\":19111:19114   */\n      dup3\n        /* \"#utility.yul\":19022:19115   */\n      tag_262\n      jump\t// in\n    tag_468:\n        /* \"#utility.yul\":19140:19142   */\n      0x40\n        /* \"#utility.yul\":19135:19138   */\n      dup3\n        /* \"#utility.yul\":19131:19143   */\n      add\n        /* \"#utility.yul\":19124:19143   */\n      swap1\n      pop\n        /* \"#utility.yul\":18783:19149   */\n      swap2\n      swap1\n      pop\n      jump\t// out\n        /* \"#utility.yul\":19155:19574   */\n    tag_185:\n        /* \"#utility.yul\":19321:19325   */\n      0x00\n        /* \"#utility.yul\":19359:19361   */\n      0x20\n        /* \"#utility.yul\":19348:19357   */\n      dup3\n        /* \"#utility.yul\":19344:19362   */\n      add\n        /* \"#utility.yul\":19336:19362   */\n      swap1\n      pop\n        /* \"#utility.yul\":19408:19417   */\n      dup2\n        /* \"#utility.yul\":19402:19406   */\n      dup2\n        /* \"#utility.yul\":19398:19418   */\n      sub\n        /* \"#utility.yul\":19394:19395   */\n      0x00\n        /* \"#utility.yul\":19383:19392   */\n      dup4\n        /* \"#utility.yul\":19379:19396   */\n      add\n        /* \"#utility.yul\":19372:19419   */\n      mstore\n        /* \"#utility.yul\":19436:19567   */\n      tag_470\n        /* \"#utility.yul\":19562:19566   */\n      dup2\n        /* \"#utility.yul\":19436:19567   */\n      tag_263\n      jump\t// in\n    tag_470:\n        /* \"#utility.yul\":19428:19567   */\n      swap1\n      pop\n        /* \"#utility.yul\":19155:19574   */\n      swap2\n      swap1\n      pop\n      jump\t// out\n        /* \"#utility.yul\":19580:19759   */\n    tag_264:\n        /* \"#utility.yul\":19720:19751   */\n      0x45524332303a20696e73756666696369656e7420616c6c6f77616e6365000000\n        /* \"#utility.yul\":19716:19717   */\n      0x00\n        /* \"#utility.yul\":19708:19714   */\n      dup3\n        /* \"#utility.yul\":19704:19718   */\n      add\n        /* \"#utility.yul\":19697:19752   */\n      mstore\n        /* \"#utility.yul\":19580:19759   */\n      pop\n      jump\t// out\n        /* \"#utility.yul\":19765:20131   */\n    tag_265:\n        /* \"#utility.yul\":19907:19910   */\n      0x00\n        /* \"#utility.yul\":19928:19995   */\n      tag_473\n        /* \"#utility.yul\":19992:19994   */\n      0x1d\n        /* \"#utility.yul\":19987:19990   */\n      dup4\n        /* \"#utility.yul\":19928:19995   */\n      tag_212\n      jump\t// in\n    tag_473:\n        /* \"#utility.yul\":19921:19995   */\n      swap2\n      pop\n        /* \"#utility.yul\":20004:20097   */\n      tag_474\n        /* \"#utility.yul\":20093:20096   */\n      dup3\n        /* \"#utility.yul\":20004:20097   */\n      tag_264\n      jump\t// in\n    tag_474:\n        /* \"#utility.yul\":20122:20124   */\n      0x20\n        /* \"#utility.yul\":20117:20120   */\n      dup3\n        /* \"#utility.yul\":20113:20125   */\n      add\n        /* \"#utility.yul\":20106:20125   */\n      swap1\n      pop\n        /* \"#utility.yul\":19765:20131   */\n      swap2\n      swap1\n      pop\n      jump\t// out\n        /* \"#utility.yul\":20137:20556   */\n    tag_192:\n        /* \"#utility.yul\":20303:20307   */\n      0x00\n        /* \"#utility.yul\":20341:20343   */\n      0x20\n        /* \"#utility.yul\":20330:20339   */\n      dup3\n        /* \"#utility.yul\":20326:20344   */\n      add\n        /* \"#utility.yul\":20318:20344   */\n      swap1\n      pop\n        /* \"#utility.yul\":20390:20399   */\n      dup2\n        /* \"#utility.yul\":20384:20388   */\n      dup2\n        /* \"#utility.yul\":20380:20400   */\n      sub\n        /* \"#utility.yul\":20376:20377   */\n      0x00\n        /* \"#utility.yul\":20365:20374   */\n      dup4\n        /* \"#utility.yul\":20361:20378   */\n      add\n        /* \"#utility.yul\":20354:20401   */\n      mstore\n        /* \"#utility.yul\":20418:20549   */\n      tag_476\n        /* \"#utility.yul\":20544:20548   */\n      dup2\n        /* \"#utility.yul\":20418:20549   */\n      tag_265\n      jump\t// in\n    tag_476:\n        /* \"#utility.yul\":20410:20549   */\n      swap1\n      pop\n        /* \"#utility.yul\":20137:20556   */\n      swap2\n      swap1\n      pop\n      jump\t// out\n        /* \"#utility.yul\":20562:20786   */\n    tag_266:\n        /* \"#utility.yul\":20702:20736   */\n      0x45524332303a207472616e736665722066726f6d20746865207a65726f206164\n        /* \"#utility.yul\":20698:20699   */\n      0x00\n        /* \"#utility.yul\":20690:20696   */\n      dup3\n        /* \"#utility.yul\":20686:20700   */\n      add\n        /* \"#utility.yul\":20679:20737   */\n      mstore\n        /* \"#utility.yul\":20771:20778   */\n      0x6472657373000000000000000000000000000000000000000000000000000000\n        /* \"#utility.yul\":20766:20768   */\n      0x20\n        /* \"#utility.yul\":20758:20764   */\n      dup3\n        /* \"#utility.yul\":20754:20769   */\n      add\n        /* \"#utility.yul\":20747:20779   */\n      mstore\n        /* \"#utility.yul\":20562:20786   */\n      pop\n      jump\t// out\n        /* \"#utility.yul\":20792:21158   */\n    tag_267:\n        /* \"#utility.yul\":20934:20937   */\n      0x00\n        /* \"#utility.yul\":20955:21022   */\n      tag_479\n        /* \"#utility.yul\":21019:21021   */\n      0x25\n        /* \"#utility.yul\":21014:21017   */\n      dup4\n        /* \"#utility.yul\":20955:21022   */\n      tag_212\n      jump\t// in\n    tag_479:\n        /* \"#utility.yul\":20948:21022   */\n      swap2\n      pop\n        /* \"#utility.yul\":21031:21124   */\n      tag_480\n        /* \"#utility.yul\":21120:21123   */\n      dup3\n        /* \"#utility.yul\":21031:21124   */\n      tag_266\n      jump\t// in\n    tag_480:\n        /* \"#utility.yul\":21149:21151   */\n      0x40\n        /* \"#utility.yul\":21144:21147   */\n      dup3\n        /* \"#utility.yul\":21140:21152   */\n      add\n        /* \"#utility.yul\":21133:21152   */\n      swap1\n      pop\n        /* \"#utility.yul\":20792:21158   */\n      swap2\n      swap1\n      pop\n      jump\t// out\n        /* \"#utility.yul\":21164:21583   */\n    tag_197:\n        /* \"#utility.yul\":21330:21334   */\n      0x00\n        /* \"#utility.yul\":21368:21370   */\n      0x20\n        /* \"#utility.yul\":21357:21366   */\n      dup3\n        /* \"#utility.yul\":21353:21371   */\n      add\n        /* \"#utility.yul\":21345:21371   */\n      swap1\n      pop\n        /* \"#utility.yul\":21417:21426   */\n      dup2\n        /* \"#utility.yul\":21411:21415   */\n      dup2\n        /* \"#utility.yul\":21407:21427   */\n      sub\n        /* \"#utility.yul\":21403:21404   */\n      0x00\n        /* \"#utility.yul\":21392:21401   */\n      dup4\n        /* \"#utility.yul\":21388:21405   */\n      add\n        /* \"#utility.yul\":21381:21428   */\n      mstore\n        /* \"#utility.yul\":21445:21576   */\n      tag_482\n        /* \"#utility.yul\":21571:21575   */\n      dup2\n        /* \"#utility.yul\":21445:21576   */\n      tag_267\n      jump\t// in\n    tag_482:\n        /* \"#utility.yul\":21437:21576   */\n      swap1\n      pop\n        /* \"#utility.yul\":21164:21583   */\n      swap2\n      swap1\n      pop\n      jump\t// out\n        /* \"#utility.yul\":21589:21811   */\n    tag_268:\n        /* \"#utility.yul\":21729:21763   */\n      0x45524332303a207472616e7366657220746f20746865207a65726f2061646472\n        /* \"#utility.yul\":21725:21726   */\n      0x00\n        /* \"#utility.yul\":21717:21723   */\n      dup3\n        /* \"#utility.yul\":21713:21727   */\n      add\n        /* \"#utility.yul\":21706:21764   */\n      mstore\n        /* \"#utility.yul\":21798:21803   */\n      0x6573730000000000000000000000000000000000000000000000000000000000\n        /* \"#utility.yul\":21793:21795   */\n      0x20\n        /* \"#utility.yul\":21785:21791   */\n      dup3\n        /* \"#utility.yul\":21781:21796   */\n      add\n        /* \"#utility.yul\":21774:21804   */\n      mstore\n        /* \"#utility.yul\":21589:21811   */\n      pop\n      jump\t// out\n        /* \"#utility.yul\":21817:22183   */\n    tag_269:\n        /* \"#utility.yul\":21959:21962   */\n      0x00\n        /* \"#utility.yul\":21980:22047   */\n      tag_485\n        /* \"#utility.yul\":22044:22046   */\n      0x23\n        /* \"#utility.yul\":22039:22042   */\n      dup4\n        /* \"#utility.yul\":21980:22047   */\n      tag_212\n      jump\t// in\n    tag_485:\n        /* \"#utility.yul\":21973:22047   */\n      swap2\n      pop\n        /* \"#utility.yul\":22056:22149   */\n      tag_486\n        /* \"#utility.yul\":22145:22148   */\n      dup3\n        /* \"#utility.yul\":22056:22149   */\n      tag_268\n      jump\t// in\n    tag_486:\n        /* \"#utility.yul\":22174:22176   */\n      0x40\n        /* \"#utility.yul\":22169:22172   */\n      dup3\n        /* \"#utility.yul\":22165:22177   */\n      add\n        /* \"#utility.yul\":22158:22177   */\n      swap1\n      pop\n        /* \"#utility.yul\":21817:22183   */\n      swap2\n      swap1\n      pop\n      jump\t// out\n        /* \"#utility.yul\":22189:22608   */\n    tag_200:\n        /* \"#utility.yul\":22355:22359   */\n      0x00\n        /* \"#utility.yul\":22393:22395   */\n      0x20\n        /* \"#utility.yul\":22382:22391   */\n      dup3\n        /* \"#utility.yul\":22378:22396   */\n      add\n        /* \"#utility.yul\":22370:22396   */\n      swap1\n      pop\n        /* \"#utility.yul\":22442:22451   */\n      dup2\n        /* \"#utility.yul\":22436:22440   */\n      dup2\n        /* \"#utility.yul\":22432:22452   */\n      sub\n        /* \"#utility.yul\":22428:22429   */\n      0x00\n        /* \"#utility.yul\":22417:22426   */\n      dup4\n        /* \"#utility.yul\":22413:22430   */\n      add\n        /* \"#utility.yul\":22406:22453   */\n      mstore\n        /* \"#utility.yul\":22470:22601   */\n      tag_488\n        /* \"#utility.yul\":22596:22600   */\n      dup2\n        /* \"#utility.yul\":22470:22601   */\n      tag_269\n      jump\t// in\n    tag_488:\n        /* \"#utility.yul\":22462:22601   */\n      swap1\n      pop\n        /* \"#utility.yul\":22189:22608   */\n      swap2\n      swap1\n      pop\n      jump\t// out\n        /* \"#utility.yul\":22614:22839   */\n    tag_270:\n        /* \"#utility.yul\":22754:22788   */\n      0x45524332303a207472616e7366657220616d6f756e7420657863656564732062\n        /* \"#utility.yul\":22750:22751   */\n      0x00\n        /* \"#utility.yul\":22742:22748   */\n      dup3\n        /* \"#utility.yul\":22738:22752   */\n      add\n        /* \"#utility.yul\":22731:22789   */\n      mstore\n        /* \"#utility.yul\":22823:22831   */\n      0x616c616e63650000000000000000000000000000000000000000000000000000\n        /* \"#utility.yul\":22818:22820   */\n      0x20\n        /* \"#utility.yul\":22810:22816   */\n      dup3\n        /* \"#utility.yul\":22806:22821   */\n      add\n        /* \"#utility.yul\":22799:22832   */\n      mstore\n        /* \"#utility.yul\":22614:22839   */\n      pop\n      jump\t// out\n        /* \"#utility.yul\":22845:23211   */\n    tag_271:\n        /* \"#utility.yul\":22987:22990   */\n      0x00\n        /* \"#utility.yul\":23008:23075   */\n      tag_491\n        /* \"#utility.yul\":23072:23074   */\n      0x26\n        /* \"#utility.yul\":23067:23070   */\n      dup4\n        /* \"#utility.yul\":23008:23075   */\n      tag_212\n      jump\t// in\n    tag_491:\n        /* \"#utility.yul\":23001:23075   */\n      swap2\n      pop\n        /* \"#utility.yul\":23084:23177   */\n      tag_492\n        /* \"#utility.yul\":23173:23176   */\n      dup3\n        /* \"#utility.yul\":23084:23177   */\n      tag_270\n      jump\t// in\n    tag_492:\n        /* \"#utility.yul\":23202:23204   */\n      0x40\n        /* \"#utility.yul\":23197:23200   */\n      dup3\n        /* \"#utility.yul\":23193:23205   */\n      add\n        /* \"#utility.yul\":23186:23205   */\n      swap1\n      pop\n        /* \"#utility.yul\":22845:23211   */\n      swap2\n      swap1\n      pop\n      jump\t// out\n        /* \"#utility.yul\":23217:23636   */\n    tag_205:\n        /* \"#utility.yul\":23383:23387   */\n      0x00\n        /* \"#utility.yul\":23421:23423   */\n      0x20\n        /* \"#utility.yul\":23410:23419   */\n      dup3\n        /* \"#utility.yul\":23406:23424   */\n      add\n        /* \"#utility.yul\":23398:23424   */\n      swap1\n      pop\n        /* \"#utility.yul\":23470:23479   */\n      dup2\n        /* \"#utility.yul\":23464:23468   */\n      dup2\n        /* \"#utility.yul\":23460:23480   */\n      sub\n        /* \"#utility.yul\":23456:23457   */\n      0x00\n        /* \"#utility.yul\":23445:23454   */\n      dup4\n        /* \"#utility.yul\":23441:23458   */\n      add\n        /* \"#utility.yul\":23434:23481   */\n      mstore\n        /* \"#utility.yul\":23498:23629   */\n      tag_494\n        /* \"#utility.yul\":23624:23628   */\n      dup2\n        /* \"#utility.yul\":23498:23629   */\n      tag_271\n      jump\t// in\n    tag_494:\n        /* \"#utility.yul\":23490:23629   */\n      swap1\n      pop\n        /* \"#utility.yul\":23217:23636   */\n      swap2\n      swap1\n      pop\n      jump\t// out\n\n    auxdata: 0xa2646970667358221220c5dff79f4e4dae5eab364481d9ae64bb1b91dbce3bf4753b025b431937d3449564736f6c63430008120033\n}\n",
				"bytecode": {
					"linkReferences": {},
					"object": "60806040526000600860006101000a81548160ff021916908360038111156200002d576200002c62000394565b5b02179055503480156200003f57600080fd5b506040516200258f3803806200258f833981810160405281019062000065919062000403565b6040518060400160405280600781526020017f54697373746f6d000000000000000000000000000000000000000000000000008152506040518060400160405280600381526020017f54535400000000000000000000000000000000000000000000000000000000008152508160039081620000e29190620006a5565b508060049081620000f49190620006a5565b50505060016005600080600381111562000113576200011262000394565b5b600381111562000128576200012762000394565b5b81526020019081526020016000208190555060058060006001600381111562000156576200015562000394565b5b60038111156200016b576200016a62000394565b5b815260200190815260200160002081905550600a60056000600260038111156200019a576200019962000394565b5b6003811115620001af57620001ae62000394565b5b815260200190815260200160002081905550601960056000600380811115620001dd57620001dc62000394565b5b6003811115620001f257620001f162000394565b5b8152602001908152602001600020819055506200021633826200021d60201b60201c565b50620008a7565b600073ffffffffffffffffffffffffffffffffffffffff168273ffffffffffffffffffffffffffffffffffffffff16036200028f576040517f08c379a00000000000000000000000000000000000000000000000000000000081526004016200028690620007ed565b60405180910390fd5b620002a3600083836200038a60201b60201c565b8060026000828254620002b791906200083e565b92505081905550806000808473ffffffffffffffffffffffffffffffffffffffff1673ffffffffffffffffffffffffffffffffffffffff168152602001908152602001600020600082825401925050819055508173ffffffffffffffffffffffffffffffffffffffff16600073ffffffffffffffffffffffffffffffffffffffff167fddf252ad1be2c89b69c2b068fc378daa952ba7f163c4a11628f55a4df523b3ef836040516200036a91906200088a565b60405180910390a362000386600083836200038f60201b60201c565b5050565b505050565b505050565b7f4e487b7100000000000000000000000000000000000000000000000000000000600052602160045260246000fd5b600080fd5b6000819050919050565b620003dd81620003c8565b8114620003e957600080fd5b50565b600081519050620003fd81620003d2565b92915050565b6000602082840312156200041c576200041b620003c3565b5b60006200042c84828501620003ec565b91505092915050565b600081519050919050565b7f4e487b7100000000000000000000000000000000000000000000000000000000600052604160045260246000fd5b7f4e487b7100000000000000000000000000000000000000000000000000000000600052602260045260246000fd5b60006002820490506001821680620004b757607f821691505b602082108103620004cd57620004cc6200046f565b5b50919050565b60008190508160005260206000209050919050565b60006020601f8301049050919050565b600082821b905092915050565b600060088302620005377fffffffffffffffffffffffffffffffffffffffffffffffffffffffffffffffff82620004f8565b620005438683620004f8565b95508019841693508086168417925050509392505050565b6000819050919050565b600062000586620005806200057a84620003c8565b6200055b565b620003c8565b9050919050565b6000819050919050565b620005a28362000565565b620005ba620005b1826200058d565b84845462000505565b825550505050565b600090565b620005d1620005c2565b620005de81848462000597565b505050565b5b818110156200060657620005fa600082620005c7565b600181019050620005e4565b5050565b601f82111562000655576200061f81620004d3565b6200062a84620004e8565b810160208510156200063a578190505b620006526200064985620004e8565b830182620005e3565b50505b505050565b600082821c905092915050565b60006200067a600019846008026200065a565b1980831691505092915050565b600062000695838362000667565b9150826002028217905092915050565b620006b08262000435565b67ffffffffffffffff811115620006cc57620006cb62000440565b5b620006d882546200049e565b620006e58282856200060a565b600060209050601f8311600181146200071d576000841562000708578287015190505b62000714858262000687565b86555062000784565b601f1984166200072d86620004d3565b60005b82811015620007575784890151825560018201915060208501945060208101905062000730565b8683101562000777578489015162000773601f89168262000667565b8355505b6001600288020188555050505b505050505050565b600082825260208201905092915050565b7f45524332303a206d696e7420746f20746865207a65726f206164647265737300600082015250565b6000620007d5601f836200078c565b9150620007e2826200079d565b602082019050919050565b600060208201905081810360008301526200080881620007c6565b9050919050565b7f4e487b7100000000000000000000000000000000000000000000000000000000600052601160045260246000fd5b60006200084b82620003c8565b91506200085883620003c8565b92508282019050808211156200087357620008726200080f565b5b92915050565b6200088481620003c8565b82525050565b6000602082019050620008a1600083018462000879565b92915050565b611cd880620008b76000396000f3fe608060405234801561001057600080fd5b506004361061010b5760003560e01c80634f0cd27b116100a2578063a457c2d711610071578063a457c2d7146102e1578063a9059cbb14610311578063b7fafcd714610341578063dd62ed3e14610371578063ed69b3aa146103a15761010b565b80634f0cd27b146102475780636ec746461461027757806370a082311461029357806395d89b41146102c35761010b565b8063239ee6c1116100de578063239ee6c1146101ad57806323b872dd146101c9578063313ce567146101f957806339509351146102175761010b565b806306fdde03146101105780630869cfbc1461012e578063095ea7b31461015f57806318160ddd1461018f575b600080fd5b6101186103d1565b6040516101259190611050565b60405180910390f35b610148600480360381019061014391906110da565b610463565b604051610156929190611107565b60405180910390f35b61017960048036038101906101749190611174565b610597565b60405161018691906111cf565b60405180910390f35b6101976105ba565b6040516101a491906111f9565b60405180910390f35b6101c760048036038101906101c29190611279565b6105c4565b005b6101e360048036038101906101de91906112fa565b61066e565b6040516101f091906111cf565b60405180910390f35b61020161069d565b60405161020e9190611369565b60405180910390f35b610231600480360381019061022c9190611174565b6106a6565b60405161023e91906111cf565b60405180910390f35b610261600480360381019061025c91906110da565b6106dd565b60405161026e91906111f9565b60405180910390f35b610291600480360381019061028c91906113a9565b610729565b005b6102ad60048036038101906102a891906110da565b61089f565b6040516102ba91906111f9565b60405180910390f35b6102cb6108e7565b6040516102d89190611050565b60405180910390f35b6102fb60048036038101906102f69190611174565b610979565b60405161030891906111cf565b60405180910390f35b61032b60048036038101906103269190611174565b6109f0565b60405161033891906111cf565b60405180910390f35b61035b6004803603810190610356919061143e565b610a13565b60405161036891906111f9565b60405180910390f35b61038b6004803603810190610386919061146b565b610a2b565b60405161039891906111f9565b60405180910390f35b6103bb60048036038101906103b69190611174565b610ab2565b6040516103c891906111f9565b60405180910390f35b6060600380546103e0906114da565b80601f016020809104026020016040519081016040528092919081815260200182805461040c906114da565b80156104595780601f1061042e57610100808354040283529160200191610459565b820191906000526020600020905b81548152906001019060200180831161043c57829003601f168201915b5050505050905090565b6009602052806000526040600020600091509050806000018054610486906114da565b80601f01602080910402602001604051908101604052809291908181526020018280546104b2906114da565b80156104ff5780601f106104d4576101008083540402835291602001916104ff565b820191906000526020600020905b8154815290600101906020018083116104e257829003601f168201915b505050505090806001018054610514906114da565b80601f0160208091040260200160405190810160405280929190818152602001828054610540906114da565b801561058d5780601f106105625761010080835404028352916020019161058d565b820191906000526020600020905b81548152906001019060200180831161057057829003601f168201915b5050505050905082565b6000806105a2610ae3565b90506105af818585610aeb565b600191505092915050565b6000600254905090565b8383600960003373ffffffffffffffffffffffffffffffffffffffff1673ffffffffffffffffffffffffffffffffffffffff16815260200190815260200160002060000191826106159291906116f1565b508181600960003373ffffffffffffffffffffffffffffffffffffffff1673ffffffffffffffffffffffffffffffffffffffff16815260200190815260200160002060010191826106679291906116f1565b5050505050565b600080610679610ae3565b9050610686858285610cb4565b610691858585610d40565b60019150509392505050565b60006012905090565b6000806106b1610ae3565b90506106d28185856106c38589610a2b565b6106cd91906117f0565b610aeb565b600191505092915050565b6000600660008373ffffffffffffffffffffffffffffffffffffffff1673ffffffffffffffffffffffffffffffffffffffff168152602001908152602001600020805490509050919050565b3073ffffffffffffffffffffffffffffffffffffffff1663239ee6c1868686866040518563ffffffff1660e01b81526004016107689493929190611860565b600060405180830381600087803b15801561078257600080fd5b505af1158015610796573d6000803e3d6000fd5b50505050600660003373ffffffffffffffffffffffffffffffffffffffff1673ffffffffffffffffffffffffffffffffffffffff16815260200190815260200160002060016107e4336106dd565b6107ee91906117f0565b9080600181540180825580915050600190039060005260206000200160009091909190915055610855306005600084600381111561082f5761082e61189b565b5b60038111156108415761084061189b565b5b815260200190815260200160002054610597565b506108983330600560008560038111156108725761087161189b565b5b60038111156108845761088361189b565b5b815260200190815260200160002054610d40565b5050505050565b60008060008373ffffffffffffffffffffffffffffffffffffffff1673ffffffffffffffffffffffffffffffffffffffff168152602001908152602001600020549050919050565b6060600480546108f6906114da565b80601f0160208091040260200160405190810160405280929190818152602001828054610922906114da565b801561096f5780601f106109445761010080835404028352916020019161096f565b820191906000526020600020905b81548152906001019060200180831161095257829003601f168201915b5050505050905090565b600080610984610ae3565b905060006109928286610a2b565b9050838110156109d7576040517f08c379a00000000000000000000000000000000000000000000000000000000081526004016109ce9061193c565b60405180910390fd5b6109e48286868403610aeb565b60019250505092915050565b6000806109fb610ae3565b9050610a08818585610d40565b600191505092915050565b60056020528060005260406000206000915090505481565b6000600160008473ffffffffffffffffffffffffffffffffffffffff1673ffffffffffffffffffffffffffffffffffffffff16815260200190815260200160002060008373ffffffffffffffffffffffffffffffffffffffff1673ffffffffffffffffffffffffffffffffffffffff16815260200190815260200160002054905092915050565b60066020528160005260406000208181548110610ace57600080fd5b90600052602060002001600091509150505481565b600033905090565b600073ffffffffffffffffffffffffffffffffffffffff168373ffffffffffffffffffffffffffffffffffffffff1603610b5a576040517f08c379a0000000000000000000000000000000000000000000000000000000008152600401610b51906119ce565b60405180910390fd5b600073ffffffffffffffffffffffffffffffffffffffff168273ffffffffffffffffffffffffffffffffffffffff1603610bc9576040517f08c379a0000000000000000000000000000000000000000000000000000000008152600401610bc090611a60565b60405180910390fd5b80600160008573ffffffffffffffffffffffffffffffffffffffff1673ffffffffffffffffffffffffffffffffffffffff16815260200190815260200160002060008473ffffffffffffffffffffffffffffffffffffffff1673ffffffffffffffffffffffffffffffffffffffff168152602001908152602001600020819055508173ffffffffffffffffffffffffffffffffffffffff168373ffffffffffffffffffffffffffffffffffffffff167f8c5be1e5ebec7d5bd14f71427d1e84f3dd0314c0f7b2291e5b200ac8c7c3b92583604051610ca791906111f9565b60405180910390a3505050565b6000610cc08484610a2b565b90507fffffffffffffffffffffffffffffffffffffffffffffffffffffffffffffffff8114610d3a5781811015610d2c576040517f08c379a0000000000000000000000000000000000000000000000000000000008152600401610d2390611acc565b60405180910390fd5b610d398484848403610aeb565b5b50505050565b600073ffffffffffffffffffffffffffffffffffffffff168373ffffffffffffffffffffffffffffffffffffffff1603610daf576040517f08c379a0000000000000000000000000000000000000000000000000000000008152600401610da690611b5e565b60405180910390fd5b600073ffffffffffffffffffffffffffffffffffffffff168273ffffffffffffffffffffffffffffffffffffffff1603610e1e576040517f08c379a0000000000000000000000000000000000000000000000000000000008152600401610e1590611bf0565b60405180910390fd5b610e29838383610fb6565b60008060008573ffffffffffffffffffffffffffffffffffffffff1673ffffffffffffffffffffffffffffffffffffffff16815260200190815260200160002054905081811015610eaf576040517f08c379a0000000000000000000000000000000000000000000000000000000008152600401610ea690611c82565b60405180910390fd5b8181036000808673ffffffffffffffffffffffffffffffffffffffff1673ffffffffffffffffffffffffffffffffffffffff16815260200190815260200160002081905550816000808573ffffffffffffffffffffffffffffffffffffffff1673ffffffffffffffffffffffffffffffffffffffff168152602001908152602001600020600082825401925050819055508273ffffffffffffffffffffffffffffffffffffffff168473ffffffffffffffffffffffffffffffffffffffff167fddf252ad1be2c89b69c2b068fc378daa952ba7f163c4a11628f55a4df523b3ef84604051610f9d91906111f9565b60405180910390a3610fb0848484610fbb565b50505050565b505050565b505050565b600081519050919050565b600082825260208201905092915050565b60005b83811015610ffa578082015181840152602081019050610fdf565b60008484015250505050565b6000601f19601f8301169050919050565b600061102282610fc0565b61102c8185610fcb565b935061103c818560208601610fdc565b61104581611006565b840191505092915050565b6000602082019050818103600083015261106a8184611017565b905092915050565b600080fd5b600080fd5b600073ffffffffffffffffffffffffffffffffffffffff82169050919050565b60006110a78261107c565b9050919050565b6110b78161109c565b81146110c257600080fd5b50565b6000813590506110d4816110ae565b92915050565b6000602082840312156110f0576110ef611072565b5b60006110fe848285016110c5565b91505092915050565b600060408201905081810360008301526111218185611017565b905081810360208301526111358184611017565b90509392505050565b6000819050919050565b6111518161113e565b811461115c57600080fd5b50565b60008135905061116e81611148565b92915050565b6000806040838503121561118b5761118a611072565b5b6000611199858286016110c5565b92505060206111aa8582860161115f565b9150509250929050565b60008115159050919050565b6111c9816111b4565b82525050565b60006020820190506111e460008301846111c0565b92915050565b6111f38161113e565b82525050565b600060208201905061120e60008301846111ea565b92915050565b600080fd5b600080fd5b600080fd5b60008083601f84011261123957611238611214565b5b8235905067ffffffffffffffff81111561125657611255611219565b5b6020830191508360018202830111156112725761127161121e565b5b9250929050565b6000806000806040858703121561129357611292611072565b5b600085013567ffffffffffffffff8111156112b1576112b0611077565b5b6112bd87828801611223565b9450945050602085013567ffffffffffffffff8111156112e0576112df611077565b5b6112ec87828801611223565b925092505092959194509250565b60008060006060848603121561131357611312611072565b5b6000611321868287016110c5565b9350506020611332868287016110c5565b92505060406113438682870161115f565b9150509250925092565b600060ff82169050919050565b6113638161134d565b82525050565b600060208201905061137e600083018461135a565b92915050565b6004811061139157600080fd5b50565b6000813590506113a381611384565b92915050565b6000806000806000606086880312156113c5576113c4611072565b5b600086013567ffffffffffffffff8111156113e3576113e2611077565b5b6113ef88828901611223565b9550955050602086013567ffffffffffffffff81111561141257611411611077565b5b61141e88828901611223565b9350935050604061143188828901611394565b9150509295509295909350565b60006020828403121561145457611453611072565b5b600061146284828501611394565b91505092915050565b6000806040838503121561148257611481611072565b5b6000611490858286016110c5565b92505060206114a1858286016110c5565b9150509250929050565b7f4e487b7100000000000000000000000000000000000000000000000000000000600052602260045260246000fd5b600060028204905060018216806114f257607f821691505b602082108103611505576115046114ab565b5b50919050565b600082905092915050565b7f4e487b7100000000000000000000000000000000000000000000000000000000600052604160045260246000fd5b60008190508160005260206000209050919050565b60006020601f8301049050919050565b600082821b905092915050565b6000600883026115a77fffffffffffffffffffffffffffffffffffffffffffffffffffffffffffffffff8261156a565b6115b1868361156a565b95508019841693508086168417925050509392505050565b6000819050919050565b60006115ee6115e96115e48461113e565b6115c9565b61113e565b9050919050565b6000819050919050565b611608836115d3565b61161c611614826115f5565b848454611577565b825550505050565b600090565b611631611624565b61163c8184846115ff565b505050565b5b8181101561166057611655600082611629565b600181019050611642565b5050565b601f8211156116a55761167681611545565b61167f8461155a565b8101602085101561168e578190505b6116a261169a8561155a565b830182611641565b50505b505050565b600082821c905092915050565b60006116c8600019846008026116aa565b1980831691505092915050565b60006116e183836116b7565b9150826002028217905092915050565b6116fb838361150b565b67ffffffffffffffff81111561171457611713611516565b5b61171e82546114da565b611729828285611664565b6000601f8311600181146117585760008415611746578287013590505b61175085826116d5565b8655506117b8565b601f19841661176686611545565b60005b8281101561178e57848901358255600182019150602085019450602081019050611769565b868310156117ab57848901356117a7601f8916826116b7565b8355505b6001600288020188555050505b50505050505050565b7f4e487b7100000000000000000000000000000000000000000000000000000000600052601160045260246000fd5b60006117fb8261113e565b91506118068361113e565b925082820190508082111561181e5761181d6117c1565b5b92915050565b82818337600083830152505050565b600061183f8385610fcb565b935061184c838584611824565b61185583611006565b840190509392505050565b6000604082019050818103600083015261187b818688611833565b90508181036020830152611890818486611833565b905095945050505050565b7f4e487b7100000000000000000000000000000000000000000000000000000000600052602160045260246000fd5b7f45524332303a2064656372656173656420616c6c6f77616e63652062656c6f7760008201527f207a65726f000000000000000000000000000000000000000000000000000000602082015250565b6000611926602583610fcb565b9150611931826118ca565b604082019050919050565b6000602082019050818103600083015261195581611919565b9050919050565b7f45524332303a20617070726f76652066726f6d20746865207a65726f2061646460008201527f7265737300000000000000000000000000000000000000000000000000000000602082015250565b60006119b8602483610fcb565b91506119c38261195c565b604082019050919050565b600060208201905081810360008301526119e7816119ab565b9050919050565b7f45524332303a20617070726f766520746f20746865207a65726f20616464726560008201527f7373000000000000000000000000000000000000000000000000000000000000602082015250565b6000611a4a602283610fcb565b9150611a55826119ee565b604082019050919050565b60006020820190508181036000830152611a7981611a3d565b9050919050565b7f45524332303a20696e73756666696369656e7420616c6c6f77616e6365000000600082015250565b6000611ab6601d83610fcb565b9150611ac182611a80565b602082019050919050565b60006020820190508181036000830152611ae581611aa9565b9050919050565b7f45524332303a207472616e736665722066726f6d20746865207a65726f20616460008201527f6472657373000000000000000000000000000000000000000000000000000000602082015250565b6000611b48602583610fcb565b9150611b5382611aec565b604082019050919050565b60006020820190508181036000830152611b7781611b3b565b9050919050565b7f45524332303a207472616e7366657220746f20746865207a65726f206164647260008201527f6573730000000000000000000000000000000000000000000000000000000000602082015250565b6000611bda602383610fcb565b9150611be582611b7e565b604082019050919050565b60006020820190508181036000830152611c0981611bcd565b9050919050565b7f45524332303a207472616e7366657220616d6f756e742065786365656473206260008201527f616c616e63650000000000000000000000000000000000000000000000000000602082015250565b6000611c6c602683610fcb565b9150611c7782611c10565b604082019050919050565b60006020820190508181036000830152611c9b81611c5f565b905091905056fea2646970667358221220c5dff79f4e4dae5eab364481d9ae64bb1b91dbce3bf4753b025b431937d3449564736f6c63430008120033",
					"opcodes": "PUSH1 0x80 PUSH1 0x40 MSTORE PUSH1 0x0 PUSH1 0x8 PUSH1 0x0 PUSH2 0x100 EXP DUP2 SLOAD DUP2 PUSH1 0xFF MUL NOT AND SWAP1 DUP4 PUSH1 0x3 DUP2 GT ISZERO PUSH3 0x2D JUMPI PUSH3 0x2C PUSH3 0x394 JUMP JUMPDEST JUMPDEST MUL OR SWAP1 SSTORE POP CALLVALUE DUP1 ISZERO PUSH3 0x3F JUMPI PUSH1 0x0 DUP1 REVERT JUMPDEST POP PUSH1 0x40 MLOAD PUSH3 0x258F CODESIZE SUB DUP1 PUSH3 0x258F DUP4 CODECOPY DUP2 DUP2 ADD PUSH1 0x40 MSTORE DUP2 ADD SWAP1 PUSH3 0x65 SWAP2 SWAP1 PUSH3 0x403 JUMP JUMPDEST PUSH1 0x40 MLOAD DUP1 PUSH1 0x40 ADD PUSH1 0x40 MSTORE DUP1 PUSH1 0x7 DUP2 MSTORE PUSH1 0x20 ADD PUSH32 0x54697373746F6D00000000000000000000000000000000000000000000000000 DUP2 MSTORE POP PUSH1 0x40 MLOAD DUP1 PUSH1 0x40 ADD PUSH1 0x40 MSTORE DUP1 PUSH1 0x3 DUP2 MSTORE PUSH1 0x20 ADD PUSH32 0x5453540000000000000000000000000000000000000000000000000000000000 DUP2 MSTORE POP DUP2 PUSH1 0x3 SWAP1 DUP2 PUSH3 0xE2 SWAP2 SWAP1 PUSH3 0x6A5 JUMP JUMPDEST POP DUP1 PUSH1 0x4 SWAP1 DUP2 PUSH3 0xF4 SWAP2 SWAP1 PUSH3 0x6A5 JUMP JUMPDEST POP POP POP PUSH1 0x1 PUSH1 0x5 PUSH1 0x0 DUP1 PUSH1 0x3 DUP2 GT ISZERO PUSH3 0x113 JUMPI PUSH3 0x112 PUSH3 0x394 JUMP JUMPDEST JUMPDEST PUSH1 0x3 DUP2 GT ISZERO PUSH3 0x128 JUMPI PUSH3 0x127 PUSH3 0x394 JUMP JUMPDEST JUMPDEST DUP2 MSTORE PUSH1 0x20 ADD SWAP1 DUP2 MSTORE PUSH1 0x20 ADD PUSH1 0x0 KECCAK256 DUP2 SWAP1 SSTORE POP PUSH1 0x5 DUP1 PUSH1 0x0 PUSH1 0x1 PUSH1 0x3 DUP2 GT ISZERO PUSH3 0x156 JUMPI PUSH3 0x155 PUSH3 0x394 JUMP JUMPDEST JUMPDEST PUSH1 0x3 DUP2 GT ISZERO PUSH3 0x16B JUMPI PUSH3 0x16A PUSH3 0x394 JUMP JUMPDEST JUMPDEST DUP2 MSTORE PUSH1 0x20 ADD SWAP1 DUP2 MSTORE PUSH1 0x20 ADD PUSH1 0x0 KECCAK256 DUP2 SWAP1 SSTORE POP PUSH1 0xA PUSH1 0x5 PUSH1 0x0 PUSH1 0x2 PUSH1 0x3 DUP2 GT ISZERO PUSH3 0x19A JUMPI PUSH3 0x199 PUSH3 0x394 JUMP JUMPDEST JUMPDEST PUSH1 0x3 DUP2 GT ISZERO PUSH3 0x1AF JUMPI PUSH3 0x1AE PUSH3 0x394 JUMP JUMPDEST JUMPDEST DUP2 MSTORE PUSH1 0x20 ADD SWAP1 DUP2 MSTORE PUSH1 0x20 ADD PUSH1 0x0 KECCAK256 DUP2 SWAP1 SSTORE POP PUSH1 0x19 PUSH1 0x5 PUSH1 0x0 PUSH1 0x3 DUP1 DUP2 GT ISZERO PUSH3 0x1DD JUMPI PUSH3 0x1DC PUSH3 0x394 JUMP JUMPDEST JUMPDEST PUSH1 0x3 DUP2 GT ISZERO PUSH3 0x1F2 JUMPI PUSH3 0x1F1 PUSH3 0x394 JUMP JUMPDEST JUMPDEST DUP2 MSTORE PUSH1 0x20 ADD SWAP1 DUP2 MSTORE PUSH1 0x20 ADD PUSH1 0x0 KECCAK256 DUP2 SWAP1 SSTORE POP PUSH3 0x216 CALLER DUP3 PUSH3 0x21D PUSH1 0x20 SHL PUSH1 0x20 SHR JUMP JUMPDEST POP PUSH3 0x8A7 JUMP JUMPDEST PUSH1 0x0 PUSH20 0xFFFFFFFFFFFFFFFFFFFFFFFFFFFFFFFFFFFFFFFF AND DUP3 PUSH20 0xFFFFFFFFFFFFFFFFFFFFFFFFFFFFFFFFFFFFFFFF AND SUB PUSH3 0x28F JUMPI PUSH1 0x40 MLOAD PUSH32 0x8C379A000000000000000000000000000000000000000000000000000000000 DUP2 MSTORE PUSH1 0x4 ADD PUSH3 0x286 SWAP1 PUSH3 0x7ED JUMP JUMPDEST PUSH1 0x40 MLOAD DUP1 SWAP2 SUB SWAP1 REVERT JUMPDEST PUSH3 0x2A3 PUSH1 0x0 DUP4 DUP4 PUSH3 0x38A PUSH1 0x20 SHL PUSH1 0x20 SHR JUMP JUMPDEST DUP1 PUSH1 0x2 PUSH1 0x0 DUP3 DUP3 SLOAD PUSH3 0x2B7 SWAP2 SWAP1 PUSH3 0x83E JUMP JUMPDEST SWAP3 POP POP DUP2 SWAP1 SSTORE POP DUP1 PUSH1 0x0 DUP1 DUP5 PUSH20 0xFFFFFFFFFFFFFFFFFFFFFFFFFFFFFFFFFFFFFFFF AND PUSH20 0xFFFFFFFFFFFFFFFFFFFFFFFFFFFFFFFFFFFFFFFF AND DUP2 MSTORE PUSH1 0x20 ADD SWAP1 DUP2 MSTORE PUSH1 0x20 ADD PUSH1 0x0 KECCAK256 PUSH1 0x0 DUP3 DUP3 SLOAD ADD SWAP3 POP POP DUP2 SWAP1 SSTORE POP DUP2 PUSH20 0xFFFFFFFFFFFFFFFFFFFFFFFFFFFFFFFFFFFFFFFF AND PUSH1 0x0 PUSH20 0xFFFFFFFFFFFFFFFFFFFFFFFFFFFFFFFFFFFFFFFF AND PUSH32 0xDDF252AD1BE2C89B69C2B068FC378DAA952BA7F163C4A11628F55A4DF523B3EF DUP4 PUSH1 0x40 MLOAD PUSH3 0x36A SWAP2 SWAP1 PUSH3 0x88A JUMP JUMPDEST PUSH1 0x40 MLOAD DUP1 SWAP2 SUB SWAP1 LOG3 PUSH3 0x386 PUSH1 0x0 DUP4 DUP4 PUSH3 0x38F PUSH1 0x20 SHL PUSH1 0x20 SHR JUMP JUMPDEST POP POP JUMP JUMPDEST POP POP POP JUMP JUMPDEST POP POP POP JUMP JUMPDEST PUSH32 0x4E487B7100000000000000000000000000000000000000000000000000000000 PUSH1 0x0 MSTORE PUSH1 0x21 PUSH1 0x4 MSTORE PUSH1 0x24 PUSH1 0x0 REVERT JUMPDEST PUSH1 0x0 DUP1 REVERT JUMPDEST PUSH1 0x0 DUP2 SWAP1 POP SWAP2 SWAP1 POP JUMP JUMPDEST PUSH3 0x3DD DUP2 PUSH3 0x3C8 JUMP JUMPDEST DUP2 EQ PUSH3 0x3E9 JUMPI PUSH1 0x0 DUP1 REVERT JUMPDEST POP JUMP JUMPDEST PUSH1 0x0 DUP2 MLOAD SWAP1 POP PUSH3 0x3FD DUP2 PUSH3 0x3D2 JUMP JUMPDEST SWAP3 SWAP2 POP POP JUMP JUMPDEST PUSH1 0x0 PUSH1 0x20 DUP3 DUP5 SUB SLT ISZERO PUSH3 0x41C JUMPI PUSH3 0x41B PUSH3 0x3C3 JUMP JUMPDEST JUMPDEST PUSH1 0x0 PUSH3 0x42C DUP5 DUP3 DUP6 ADD PUSH3 0x3EC JUMP JUMPDEST SWAP2 POP POP SWAP3 SWAP2 POP POP JUMP JUMPDEST PUSH1 0x0 DUP2 MLOAD SWAP1 POP SWAP2 SWAP1 POP JUMP JUMPDEST PUSH32 0x4E487B7100000000000000000000000000000000000000000000000000000000 PUSH1 0x0 MSTORE PUSH1 0x41 PUSH1 0x4 MSTORE PUSH1 0x24 PUSH1 0x0 REVERT JUMPDEST PUSH32 0x4E487B7100000000000000000000000000000000000000000000000000000000 PUSH1 0x0 MSTORE PUSH1 0x22 PUSH1 0x4 MSTORE PUSH1 0x24 PUSH1 0x0 REVERT JUMPDEST PUSH1 0x0 PUSH1 0x2 DUP3 DIV SWAP1 POP PUSH1 0x1 DUP3 AND DUP1 PUSH3 0x4B7 JUMPI PUSH1 0x7F DUP3 AND SWAP2 POP JUMPDEST PUSH1 0x20 DUP3 LT DUP2 SUB PUSH3 0x4CD JUMPI PUSH3 0x4CC PUSH3 0x46F JUMP JUMPDEST JUMPDEST POP SWAP2 SWAP1 POP JUMP JUMPDEST PUSH1 0x0 DUP2 SWAP1 POP DUP2 PUSH1 0x0 MSTORE PUSH1 0x20 PUSH1 0x0 KECCAK256 SWAP1 POP SWAP2 SWAP1 POP JUMP JUMPDEST PUSH1 0x0 PUSH1 0x20 PUSH1 0x1F DUP4 ADD DIV SWAP1 POP SWAP2 SWAP1 POP JUMP JUMPDEST PUSH1 0x0 DUP3 DUP3 SHL SWAP1 POP SWAP3 SWAP2 POP POP JUMP JUMPDEST PUSH1 0x0 PUSH1 0x8 DUP4 MUL PUSH3 0x537 PUSH32 0xFFFFFFFFFFFFFFFFFFFFFFFFFFFFFFFFFFFFFFFFFFFFFFFFFFFFFFFFFFFFFFFF DUP3 PUSH3 0x4F8 JUMP JUMPDEST PUSH3 0x543 DUP7 DUP4 PUSH3 0x4F8 JUMP JUMPDEST SWAP6 POP DUP1 NOT DUP5 AND SWAP4 POP DUP1 DUP7 AND DUP5 OR SWAP3 POP POP POP SWAP4 SWAP3 POP POP POP JUMP JUMPDEST PUSH1 0x0 DUP2 SWAP1 POP SWAP2 SWAP1 POP JUMP JUMPDEST PUSH1 0x0 PUSH3 0x586 PUSH3 0x580 PUSH3 0x57A DUP5 PUSH3 0x3C8 JUMP JUMPDEST PUSH3 0x55B JUMP JUMPDEST PUSH3 0x3C8 JUMP JUMPDEST SWAP1 POP SWAP2 SWAP1 POP JUMP JUMPDEST PUSH1 0x0 DUP2 SWAP1 POP SWAP2 SWAP1 POP JUMP JUMPDEST PUSH3 0x5A2 DUP4 PUSH3 0x565 JUMP JUMPDEST PUSH3 0x5BA PUSH3 0x5B1 DUP3 PUSH3 0x58D JUMP JUMPDEST DUP5 DUP5 SLOAD PUSH3 0x505 JUMP JUMPDEST DUP3 SSTORE POP POP POP POP JUMP JUMPDEST PUSH1 0x0 SWAP1 JUMP JUMPDEST PUSH3 0x5D1 PUSH3 0x5C2 JUMP JUMPDEST PUSH3 0x5DE DUP2 DUP5 DUP5 PUSH3 0x597 JUMP JUMPDEST POP POP POP JUMP JUMPDEST JUMPDEST DUP2 DUP2 LT ISZERO PUSH3 0x606 JUMPI PUSH3 0x5FA PUSH1 0x0 DUP3 PUSH3 0x5C7 JUMP JUMPDEST PUSH1 0x1 DUP2 ADD SWAP1 POP PUSH3 0x5E4 JUMP JUMPDEST POP POP JUMP JUMPDEST PUSH1 0x1F DUP3 GT ISZERO PUSH3 0x655 JUMPI PUSH3 0x61F DUP2 PUSH3 0x4D3 JUMP JUMPDEST PUSH3 0x62A DUP5 PUSH3 0x4E8 JUMP JUMPDEST DUP2 ADD PUSH1 0x20 DUP6 LT ISZERO PUSH3 0x63A JUMPI DUP2 SWAP1 POP JUMPDEST PUSH3 0x652 PUSH3 0x649 DUP6 PUSH3 0x4E8 JUMP JUMPDEST DUP4 ADD DUP3 PUSH3 0x5E3 JUMP JUMPDEST POP POP JUMPDEST POP POP POP JUMP JUMPDEST PUSH1 0x0 DUP3 DUP3 SHR SWAP1 POP SWAP3 SWAP2 POP POP JUMP JUMPDEST PUSH1 0x0 PUSH3 0x67A PUSH1 0x0 NOT DUP5 PUSH1 0x8 MUL PUSH3 0x65A JUMP JUMPDEST NOT DUP1 DUP4 AND SWAP2 POP POP SWAP3 SWAP2 POP POP JUMP JUMPDEST PUSH1 0x0 PUSH3 0x695 DUP4 DUP4 PUSH3 0x667 JUMP JUMPDEST SWAP2 POP DUP3 PUSH1 0x2 MUL DUP3 OR SWAP1 POP SWAP3 SWAP2 POP POP JUMP JUMPDEST PUSH3 0x6B0 DUP3 PUSH3 0x435 JUMP JUMPDEST PUSH8 0xFFFFFFFFFFFFFFFF DUP2 GT ISZERO PUSH3 0x6CC JUMPI PUSH3 0x6CB PUSH3 0x440 JUMP JUMPDEST JUMPDEST PUSH3 0x6D8 DUP3 SLOAD PUSH3 0x49E JUMP JUMPDEST PUSH3 0x6E5 DUP3 DUP3 DUP6 PUSH3 0x60A JUMP JUMPDEST PUSH1 0x0 PUSH1 0x20 SWAP1 POP PUSH1 0x1F DUP4 GT PUSH1 0x1 DUP2 EQ PUSH3 0x71D JUMPI PUSH1 0x0 DUP5 ISZERO PUSH3 0x708 JUMPI DUP3 DUP8 ADD MLOAD SWAP1 POP JUMPDEST PUSH3 0x714 DUP6 DUP3 PUSH3 0x687 JUMP JUMPDEST DUP7 SSTORE POP PUSH3 0x784 JUMP JUMPDEST PUSH1 0x1F NOT DUP5 AND PUSH3 0x72D DUP7 PUSH3 0x4D3 JUMP JUMPDEST PUSH1 0x0 JUMPDEST DUP3 DUP2 LT ISZERO PUSH3 0x757 JUMPI DUP5 DUP10 ADD MLOAD DUP3 SSTORE PUSH1 0x1 DUP3 ADD SWAP2 POP PUSH1 0x20 DUP6 ADD SWAP5 POP PUSH1 0x20 DUP2 ADD SWAP1 POP PUSH3 0x730 JUMP JUMPDEST DUP7 DUP4 LT ISZERO PUSH3 0x777 JUMPI DUP5 DUP10 ADD MLOAD PUSH3 0x773 PUSH1 0x1F DUP10 AND DUP3 PUSH3 0x667 JUMP JUMPDEST DUP4 SSTORE POP JUMPDEST PUSH1 0x1 PUSH1 0x2 DUP9 MUL ADD DUP9 SSTORE POP POP POP JUMPDEST POP POP POP POP POP POP JUMP JUMPDEST PUSH1 0x0 DUP3 DUP3 MSTORE PUSH1 0x20 DUP3 ADD SWAP1 POP SWAP3 SWAP2 POP POP JUMP JUMPDEST PUSH32 0x45524332303A206D696E7420746F20746865207A65726F206164647265737300 PUSH1 0x0 DUP3 ADD MSTORE POP JUMP JUMPDEST PUSH1 0x0 PUSH3 0x7D5 PUSH1 0x1F DUP4 PUSH3 0x78C JUMP JUMPDEST SWAP2 POP PUSH3 0x7E2 DUP3 PUSH3 0x79D JUMP JUMPDEST PUSH1 0x20 DUP3 ADD SWAP1 POP SWAP2 SWAP1 POP JUMP JUMPDEST PUSH1 0x0 PUSH1 0x20 DUP3 ADD SWAP1 POP DUP2 DUP2 SUB PUSH1 0x0 DUP4 ADD MSTORE PUSH3 0x808 DUP2 PUSH3 0x7C6 JUMP JUMPDEST SWAP1 POP SWAP2 SWAP1 POP JUMP JUMPDEST PUSH32 0x4E487B7100000000000000000000000000000000000000000000000000000000 PUSH1 0x0 MSTORE PUSH1 0x11 PUSH1 0x4 MSTORE PUSH1 0x24 PUSH1 0x0 REVERT JUMPDEST PUSH1 0x0 PUSH3 0x84B DUP3 PUSH3 0x3C8 JUMP JUMPDEST SWAP2 POP PUSH3 0x858 DUP4 PUSH3 0x3C8 JUMP JUMPDEST SWAP3 POP DUP3 DUP3 ADD SWAP1 POP DUP1 DUP3 GT ISZERO PUSH3 0x873 JUMPI PUSH3 0x872 PUSH3 0x80F JUMP JUMPDEST JUMPDEST SWAP3 SWAP2 POP POP JUMP JUMPDEST PUSH3 0x884 DUP2 PUSH3 0x3C8 JUMP JUMPDEST DUP3 MSTORE POP POP JUMP JUMPDEST PUSH1 0x0 PUSH1 0x20 DUP3 ADD SWAP1 POP PUSH3 0x8A1 PUSH1 0x0 DUP4 ADD DUP5 PUSH3 0x879 JUMP JUMPDEST SWAP3 SWAP2 POP POP JUMP JUMPDEST PUSH2 0x1CD8 DUP1 PUSH3 0x8B7 PUSH1 0x0 CODECOPY PUSH1 0x0 RETURN INVALID PUSH1 0x80 PUSH1 0x40 MSTORE CALLVALUE DUP1 ISZERO PUSH2 0x10 JUMPI PUSH1 0x0 DUP1 REVERT JUMPDEST POP PUSH1 0x4 CALLDATASIZE LT PUSH2 0x10B JUMPI PUSH1 0x0 CALLDATALOAD PUSH1 0xE0 SHR DUP1 PUSH4 0x4F0CD27B GT PUSH2 0xA2 JUMPI DUP1 PUSH4 0xA457C2D7 GT PUSH2 0x71 JUMPI DUP1 PUSH4 0xA457C2D7 EQ PUSH2 0x2E1 JUMPI DUP1 PUSH4 0xA9059CBB EQ PUSH2 0x311 JUMPI DUP1 PUSH4 0xB7FAFCD7 EQ PUSH2 0x341 JUMPI DUP1 PUSH4 0xDD62ED3E EQ PUSH2 0x371 JUMPI DUP1 PUSH4 0xED69B3AA EQ PUSH2 0x3A1 JUMPI PUSH2 0x10B JUMP JUMPDEST DUP1 PUSH4 0x4F0CD27B EQ PUSH2 0x247 JUMPI DUP1 PUSH4 0x6EC74646 EQ PUSH2 0x277 JUMPI DUP1 PUSH4 0x70A08231 EQ PUSH2 0x293 JUMPI DUP1 PUSH4 0x95D89B41 EQ PUSH2 0x2C3 JUMPI PUSH2 0x10B JUMP JUMPDEST DUP1 PUSH4 0x239EE6C1 GT PUSH2 0xDE JUMPI DUP1 PUSH4 0x239EE6C1 EQ PUSH2 0x1AD JUMPI DUP1 PUSH4 0x23B872DD EQ PUSH2 0x1C9 JUMPI DUP1 PUSH4 0x313CE567 EQ PUSH2 0x1F9 JUMPI DUP1 PUSH4 0x39509351 EQ PUSH2 0x217 JUMPI PUSH2 0x10B JUMP JUMPDEST DUP1 PUSH4 0x6FDDE03 EQ PUSH2 0x110 JUMPI DUP1 PUSH4 0x869CFBC EQ PUSH2 0x12E JUMPI DUP1 PUSH4 0x95EA7B3 EQ PUSH2 0x15F JUMPI DUP1 PUSH4 0x18160DDD EQ PUSH2 0x18F JUMPI JUMPDEST PUSH1 0x0 DUP1 REVERT JUMPDEST PUSH2 0x118 PUSH2 0x3D1 JUMP JUMPDEST PUSH1 0x40 MLOAD PUSH2 0x125 SWAP2 SWAP1 PUSH2 0x1050 JUMP JUMPDEST PUSH1 0x40 MLOAD DUP1 SWAP2 SUB SWAP1 RETURN JUMPDEST PUSH2 0x148 PUSH1 0x4 DUP1 CALLDATASIZE SUB DUP2 ADD SWAP1 PUSH2 0x143 SWAP2 SWAP1 PUSH2 0x10DA JUMP JUMPDEST PUSH2 0x463 JUMP JUMPDEST PUSH1 0x40 MLOAD PUSH2 0x156 SWAP3 SWAP2 SWAP1 PUSH2 0x1107 JUMP JUMPDEST PUSH1 0x40 MLOAD DUP1 SWAP2 SUB SWAP1 RETURN JUMPDEST PUSH2 0x179 PUSH1 0x4 DUP1 CALLDATASIZE SUB DUP2 ADD SWAP1 PUSH2 0x174 SWAP2 SWAP1 PUSH2 0x1174 JUMP JUMPDEST PUSH2 0x597 JUMP JUMPDEST PUSH1 0x40 MLOAD PUSH2 0x186 SWAP2 SWAP1 PUSH2 0x11CF JUMP JUMPDEST PUSH1 0x40 MLOAD DUP1 SWAP2 SUB SWAP1 RETURN JUMPDEST PUSH2 0x197 PUSH2 0x5BA JUMP JUMPDEST PUSH1 0x40 MLOAD PUSH2 0x1A4 SWAP2 SWAP1 PUSH2 0x11F9 JUMP JUMPDEST PUSH1 0x40 MLOAD DUP1 SWAP2 SUB SWAP1 RETURN JUMPDEST PUSH2 0x1C7 PUSH1 0x4 DUP1 CALLDATASIZE SUB DUP2 ADD SWAP1 PUSH2 0x1C2 SWAP2 SWAP1 PUSH2 0x1279 JUMP JUMPDEST PUSH2 0x5C4 JUMP JUMPDEST STOP JUMPDEST PUSH2 0x1E3 PUSH1 0x4 DUP1 CALLDATASIZE SUB DUP2 ADD SWAP1 PUSH2 0x1DE SWAP2 SWAP1 PUSH2 0x12FA JUMP JUMPDEST PUSH2 0x66E JUMP JUMPDEST PUSH1 0x40 MLOAD PUSH2 0x1F0 SWAP2 SWAP1 PUSH2 0x11CF JUMP JUMPDEST PUSH1 0x40 MLOAD DUP1 SWAP2 SUB SWAP1 RETURN JUMPDEST PUSH2 0x201 PUSH2 0x69D JUMP JUMPDEST PUSH1 0x40 MLOAD PUSH2 0x20E SWAP2 SWAP1 PUSH2 0x1369 JUMP JUMPDEST PUSH1 0x40 MLOAD DUP1 SWAP2 SUB SWAP1 RETURN JUMPDEST PUSH2 0x231 PUSH1 0x4 DUP1 CALLDATASIZE SUB DUP2 ADD SWAP1 PUSH2 0x22C SWAP2 SWAP1 PUSH2 0x1174 JUMP JUMPDEST PUSH2 0x6A6 JUMP JUMPDEST PUSH1 0x40 MLOAD PUSH2 0x23E SWAP2 SWAP1 PUSH2 0x11CF JUMP JUMPDEST PUSH1 0x40 MLOAD DUP1 SWAP2 SUB SWAP1 RETURN JUMPDEST PUSH2 0x261 PUSH1 0x4 DUP1 CALLDATASIZE SUB DUP2 ADD SWAP1 PUSH2 0x25C SWAP2 SWAP1 PUSH2 0x10DA JUMP JUMPDEST PUSH2 0x6DD JUMP JUMPDEST PUSH1 0x40 MLOAD PUSH2 0x26E SWAP2 SWAP1 PUSH2 0x11F9 JUMP JUMPDEST PUSH1 0x40 MLOAD DUP1 SWAP2 SUB SWAP1 RETURN JUMPDEST PUSH2 0x291 PUSH1 0x4 DUP1 CALLDATASIZE SUB DUP2 ADD SWAP1 PUSH2 0x28C SWAP2 SWAP1 PUSH2 0x13A9 JUMP JUMPDEST PUSH2 0x729 JUMP JUMPDEST STOP JUMPDEST PUSH2 0x2AD PUSH1 0x4 DUP1 CALLDATASIZE SUB DUP2 ADD SWAP1 PUSH2 0x2A8 SWAP2 SWAP1 PUSH2 0x10DA JUMP JUMPDEST PUSH2 0x89F JUMP JUMPDEST PUSH1 0x40 MLOAD PUSH2 0x2BA SWAP2 SWAP1 PUSH2 0x11F9 JUMP JUMPDEST PUSH1 0x40 MLOAD DUP1 SWAP2 SUB SWAP1 RETURN JUMPDEST PUSH2 0x2CB PUSH2 0x8E7 JUMP JUMPDEST PUSH1 0x40 MLOAD PUSH2 0x2D8 SWAP2 SWAP1 PUSH2 0x1050 JUMP JUMPDEST PUSH1 0x40 MLOAD DUP1 SWAP2 SUB SWAP1 RETURN JUMPDEST PUSH2 0x2FB PUSH1 0x4 DUP1 CALLDATASIZE SUB DUP2 ADD SWAP1 PUSH2 0x2F6 SWAP2 SWAP1 PUSH2 0x1174 JUMP JUMPDEST PUSH2 0x979 JUMP JUMPDEST PUSH1 0x40 MLOAD PUSH2 0x308 SWAP2 SWAP1 PUSH2 0x11CF JUMP JUMPDEST PUSH1 0x40 MLOAD DUP1 SWAP2 SUB SWAP1 RETURN JUMPDEST PUSH2 0x32B PUSH1 0x4 DUP1 CALLDATASIZE SUB DUP2 ADD SWAP1 PUSH2 0x326 SWAP2 SWAP1 PUSH2 0x1174 JUMP JUMPDEST PUSH2 0x9F0 JUMP JUMPDEST PUSH1 0x40 MLOAD PUSH2 0x338 SWAP2 SWAP1 PUSH2 0x11CF JUMP JUMPDEST PUSH1 0x40 MLOAD DUP1 SWAP2 SUB SWAP1 RETURN JUMPDEST PUSH2 0x35B PUSH1 0x4 DUP1 CALLDATASIZE SUB DUP2 ADD SWAP1 PUSH2 0x356 SWAP2 SWAP1 PUSH2 0x143E JUMP JUMPDEST PUSH2 0xA13 JUMP JUMPDEST PUSH1 0x40 MLOAD PUSH2 0x368 SWAP2 SWAP1 PUSH2 0x11F9 JUMP JUMPDEST PUSH1 0x40 MLOAD DUP1 SWAP2 SUB SWAP1 RETURN JUMPDEST PUSH2 0x38B PUSH1 0x4 DUP1 CALLDATASIZE SUB DUP2 ADD SWAP1 PUSH2 0x386 SWAP2 SWAP1 PUSH2 0x146B JUMP JUMPDEST PUSH2 0xA2B JUMP JUMPDEST PUSH1 0x40 MLOAD PUSH2 0x398 SWAP2 SWAP1 PUSH2 0x11F9 JUMP JUMPDEST PUSH1 0x40 MLOAD DUP1 SWAP2 SUB SWAP1 RETURN JUMPDEST PUSH2 0x3BB PUSH1 0x4 DUP1 CALLDATASIZE SUB DUP2 ADD SWAP1 PUSH2 0x3B6 SWAP2 SWAP1 PUSH2 0x1174 JUMP JUMPDEST PUSH2 0xAB2 JUMP JUMPDEST PUSH1 0x40 MLOAD PUSH2 0x3C8 SWAP2 SWAP1 PUSH2 0x11F9 JUMP JUMPDEST PUSH1 0x40 MLOAD DUP1 SWAP2 SUB SWAP1 RETURN JUMPDEST PUSH1 0x60 PUSH1 0x3 DUP1 SLOAD PUSH2 0x3E0 SWAP1 PUSH2 0x14DA JUMP JUMPDEST DUP1 PUSH1 0x1F ADD PUSH1 0x20 DUP1 SWAP2 DIV MUL PUSH1 0x20 ADD PUSH1 0x40 MLOAD SWAP1 DUP2 ADD PUSH1 0x40 MSTORE DUP1 SWAP3 SWAP2 SWAP1 DUP2 DUP2 MSTORE PUSH1 0x20 ADD DUP3 DUP1 SLOAD PUSH2 0x40C SWAP1 PUSH2 0x14DA JUMP JUMPDEST DUP1 ISZERO PUSH2 0x459 JUMPI DUP1 PUSH1 0x1F LT PUSH2 0x42E JUMPI PUSH2 0x100 DUP1 DUP4 SLOAD DIV MUL DUP4 MSTORE SWAP2 PUSH1 0x20 ADD SWAP2 PUSH2 0x459 JUMP JUMPDEST DUP3 ADD SWAP2 SWAP1 PUSH1 0x0 MSTORE PUSH1 0x20 PUSH1 0x0 KECCAK256 SWAP1 JUMPDEST DUP2 SLOAD DUP2 MSTORE SWAP1 PUSH1 0x1 ADD SWAP1 PUSH1 0x20 ADD DUP1 DUP4 GT PUSH2 0x43C JUMPI DUP3 SWAP1 SUB PUSH1 0x1F AND DUP3 ADD SWAP2 JUMPDEST POP POP POP POP POP SWAP1 POP SWAP1 JUMP JUMPDEST PUSH1 0x9 PUSH1 0x20 MSTORE DUP1 PUSH1 0x0 MSTORE PUSH1 0x40 PUSH1 0x0 KECCAK256 PUSH1 0x0 SWAP2 POP SWAP1 POP DUP1 PUSH1 0x0 ADD DUP1 SLOAD PUSH2 0x486 SWAP1 PUSH2 0x14DA JUMP JUMPDEST DUP1 PUSH1 0x1F ADD PUSH1 0x20 DUP1 SWAP2 DIV MUL PUSH1 0x20 ADD PUSH1 0x40 MLOAD SWAP1 DUP2 ADD PUSH1 0x40 MSTORE DUP1 SWAP3 SWAP2 SWAP1 DUP2 DUP2 MSTORE PUSH1 0x20 ADD DUP3 DUP1 SLOAD PUSH2 0x4B2 SWAP1 PUSH2 0x14DA JUMP JUMPDEST DUP1 ISZERO PUSH2 0x4FF JUMPI DUP1 PUSH1 0x1F LT PUSH2 0x4D4 JUMPI PUSH2 0x100 DUP1 DUP4 SLOAD DIV MUL DUP4 MSTORE SWAP2 PUSH1 0x20 ADD SWAP2 PUSH2 0x4FF JUMP JUMPDEST DUP3 ADD SWAP2 SWAP1 PUSH1 0x0 MSTORE PUSH1 0x20 PUSH1 0x0 KECCAK256 SWAP1 JUMPDEST DUP2 SLOAD DUP2 MSTORE SWAP1 PUSH1 0x1 ADD SWAP1 PUSH1 0x20 ADD DUP1 DUP4 GT PUSH2 0x4E2 JUMPI DUP3 SWAP1 SUB PUSH1 0x1F AND DUP3 ADD SWAP2 JUMPDEST POP POP POP POP POP SWAP1 DUP1 PUSH1 0x1 ADD DUP1 SLOAD PUSH2 0x514 SWAP1 PUSH2 0x14DA JUMP JUMPDEST DUP1 PUSH1 0x1F ADD PUSH1 0x20 DUP1 SWAP2 DIV MUL PUSH1 0x20 ADD PUSH1 0x40 MLOAD SWAP1 DUP2 ADD PUSH1 0x40 MSTORE DUP1 SWAP3 SWAP2 SWAP1 DUP2 DUP2 MSTORE PUSH1 0x20 ADD DUP3 DUP1 SLOAD PUSH2 0x540 SWAP1 PUSH2 0x14DA JUMP JUMPDEST DUP1 ISZERO PUSH2 0x58D JUMPI DUP1 PUSH1 0x1F LT PUSH2 0x562 JUMPI PUSH2 0x100 DUP1 DUP4 SLOAD DIV MUL DUP4 MSTORE SWAP2 PUSH1 0x20 ADD SWAP2 PUSH2 0x58D JUMP JUMPDEST DUP3 ADD SWAP2 SWAP1 PUSH1 0x0 MSTORE PUSH1 0x20 PUSH1 0x0 KECCAK256 SWAP1 JUMPDEST DUP2 SLOAD DUP2 MSTORE SWAP1 PUSH1 0x1 ADD SWAP1 PUSH1 0x20 ADD DUP1 DUP4 GT PUSH2 0x570 JUMPI DUP3 SWAP1 SUB PUSH1 0x1F AND DUP3 ADD SWAP2 JUMPDEST POP POP POP POP POP SWAP1 POP DUP3 JUMP JUMPDEST PUSH1 0x0 DUP1 PUSH2 0x5A2 PUSH2 0xAE3 JUMP JUMPDEST SWAP1 POP PUSH2 0x5AF DUP2 DUP6 DUP6 PUSH2 0xAEB JUMP JUMPDEST PUSH1 0x1 SWAP2 POP POP SWAP3 SWAP2 POP POP JUMP JUMPDEST PUSH1 0x0 PUSH1 0x2 SLOAD SWAP1 POP SWAP1 JUMP JUMPDEST DUP4 DUP4 PUSH1 0x9 PUSH1 0x0 CALLER PUSH20 0xFFFFFFFFFFFFFFFFFFFFFFFFFFFFFFFFFFFFFFFF AND PUSH20 0xFFFFFFFFFFFFFFFFFFFFFFFFFFFFFFFFFFFFFFFF AND DUP2 MSTORE PUSH1 0x20 ADD SWAP1 DUP2 MSTORE PUSH1 0x20 ADD PUSH1 0x0 KECCAK256 PUSH1 0x0 ADD SWAP2 DUP3 PUSH2 0x615 SWAP3 SWAP2 SWAP1 PUSH2 0x16F1 JUMP JUMPDEST POP DUP2 DUP2 PUSH1 0x9 PUSH1 0x0 CALLER PUSH20 0xFFFFFFFFFFFFFFFFFFFFFFFFFFFFFFFFFFFFFFFF AND PUSH20 0xFFFFFFFFFFFFFFFFFFFFFFFFFFFFFFFFFFFFFFFF AND DUP2 MSTORE PUSH1 0x20 ADD SWAP1 DUP2 MSTORE PUSH1 0x20 ADD PUSH1 0x0 KECCAK256 PUSH1 0x1 ADD SWAP2 DUP3 PUSH2 0x667 SWAP3 SWAP2 SWAP1 PUSH2 0x16F1 JUMP JUMPDEST POP POP POP POP POP JUMP JUMPDEST PUSH1 0x0 DUP1 PUSH2 0x679 PUSH2 0xAE3 JUMP JUMPDEST SWAP1 POP PUSH2 0x686 DUP6 DUP3 DUP6 PUSH2 0xCB4 JUMP JUMPDEST PUSH2 0x691 DUP6 DUP6 DUP6 PUSH2 0xD40 JUMP JUMPDEST PUSH1 0x1 SWAP2 POP POP SWAP4 SWAP3 POP POP POP JUMP JUMPDEST PUSH1 0x0 PUSH1 0x12 SWAP1 POP SWAP1 JUMP JUMPDEST PUSH1 0x0 DUP1 PUSH2 0x6B1 PUSH2 0xAE3 JUMP JUMPDEST SWAP1 POP PUSH2 0x6D2 DUP2 DUP6 DUP6 PUSH2 0x6C3 DUP6 DUP10 PUSH2 0xA2B JUMP JUMPDEST PUSH2 0x6CD SWAP2 SWAP1 PUSH2 0x17F0 JUMP JUMPDEST PUSH2 0xAEB JUMP JUMPDEST PUSH1 0x1 SWAP2 POP POP SWAP3 SWAP2 POP POP JUMP JUMPDEST PUSH1 0x0 PUSH1 0x6 PUSH1 0x0 DUP4 PUSH20 0xFFFFFFFFFFFFFFFFFFFFFFFFFFFFFFFFFFFFFFFF AND PUSH20 0xFFFFFFFFFFFFFFFFFFFFFFFFFFFFFFFFFFFFFFFF AND DUP2 MSTORE PUSH1 0x20 ADD SWAP1 DUP2 MSTORE PUSH1 0x20 ADD PUSH1 0x0 KECCAK256 DUP1 SLOAD SWAP1 POP SWAP1 POP SWAP2 SWAP1 POP JUMP JUMPDEST ADDRESS PUSH20 0xFFFFFFFFFFFFFFFFFFFFFFFFFFFFFFFFFFFFFFFF AND PUSH4 0x239EE6C1 DUP7 DUP7 DUP7 DUP7 PUSH1 0x40 MLOAD DUP6 PUSH4 0xFFFFFFFF AND PUSH1 0xE0 SHL DUP2 MSTORE PUSH1 0x4 ADD PUSH2 0x768 SWAP5 SWAP4 SWAP3 SWAP2 SWAP1 PUSH2 0x1860 JUMP JUMPDEST PUSH1 0x0 PUSH1 0x40 MLOAD DUP1 DUP4 SUB DUP2 PUSH1 0x0 DUP8 DUP1 EXTCODESIZE ISZERO DUP1 ISZERO PUSH2 0x782 JUMPI PUSH1 0x0 DUP1 REVERT JUMPDEST POP GAS CALL ISZERO DUP1 ISZERO PUSH2 0x796 JUMPI RETURNDATASIZE PUSH1 0x0 DUP1 RETURNDATACOPY RETURNDATASIZE PUSH1 0x0 REVERT JUMPDEST POP POP POP POP PUSH1 0x6 PUSH1 0x0 CALLER PUSH20 0xFFFFFFFFFFFFFFFFFFFFFFFFFFFFFFFFFFFFFFFF AND PUSH20 0xFFFFFFFFFFFFFFFFFFFFFFFFFFFFFFFFFFFFFFFF AND DUP2 MSTORE PUSH1 0x20 ADD SWAP1 DUP2 MSTORE PUSH1 0x20 ADD PUSH1 0x0 KECCAK256 PUSH1 0x1 PUSH2 0x7E4 CALLER PUSH2 0x6DD JUMP JUMPDEST PUSH2 0x7EE SWAP2 SWAP1 PUSH2 0x17F0 JUMP JUMPDEST SWAP1 DUP1 PUSH1 0x1 DUP2 SLOAD ADD DUP1 DUP3 SSTORE DUP1 SWAP2 POP POP PUSH1 0x1 SWAP1 SUB SWAP1 PUSH1 0x0 MSTORE PUSH1 0x20 PUSH1 0x0 KECCAK256 ADD PUSH1 0x0 SWAP1 SWAP2 SWAP1 SWAP2 SWAP1 SWAP2 POP SSTORE PUSH2 0x855 ADDRESS PUSH1 0x5 PUSH1 0x0 DUP5 PUSH1 0x3 DUP2 GT ISZERO PUSH2 0x82F JUMPI PUSH2 0x82E PUSH2 0x189B JUMP JUMPDEST JUMPDEST PUSH1 0x3 DUP2 GT ISZERO PUSH2 0x841 JUMPI PUSH2 0x840 PUSH2 0x189B JUMP JUMPDEST JUMPDEST DUP2 MSTORE PUSH1 0x20 ADD SWAP1 DUP2 MSTORE PUSH1 0x20 ADD PUSH1 0x0 KECCAK256 SLOAD PUSH2 0x597 JUMP JUMPDEST POP PUSH2 0x898 CALLER ADDRESS PUSH1 0x5 PUSH1 0x0 DUP6 PUSH1 0x3 DUP2 GT ISZERO PUSH2 0x872 JUMPI PUSH2 0x871 PUSH2 0x189B JUMP JUMPDEST JUMPDEST PUSH1 0x3 DUP2 GT ISZERO PUSH2 0x884 JUMPI PUSH2 0x883 PUSH2 0x189B JUMP JUMPDEST JUMPDEST DUP2 MSTORE PUSH1 0x20 ADD SWAP1 DUP2 MSTORE PUSH1 0x20 ADD PUSH1 0x0 KECCAK256 SLOAD PUSH2 0xD40 JUMP JUMPDEST POP POP POP POP POP JUMP JUMPDEST PUSH1 0x0 DUP1 PUSH1 0x0 DUP4 PUSH20 0xFFFFFFFFFFFFFFFFFFFFFFFFFFFFFFFFFFFFFFFF AND PUSH20 0xFFFFFFFFFFFFFFFFFFFFFFFFFFFFFFFFFFFFFFFF AND DUP2 MSTORE PUSH1 0x20 ADD SWAP1 DUP2 MSTORE PUSH1 0x20 ADD PUSH1 0x0 KECCAK256 SLOAD SWAP1 POP SWAP2 SWAP1 POP JUMP JUMPDEST PUSH1 0x60 PUSH1 0x4 DUP1 SLOAD PUSH2 0x8F6 SWAP1 PUSH2 0x14DA JUMP JUMPDEST DUP1 PUSH1 0x1F ADD PUSH1 0x20 DUP1 SWAP2 DIV MUL PUSH1 0x20 ADD PUSH1 0x40 MLOAD SWAP1 DUP2 ADD PUSH1 0x40 MSTORE DUP1 SWAP3 SWAP2 SWAP1 DUP2 DUP2 MSTORE PUSH1 0x20 ADD DUP3 DUP1 SLOAD PUSH2 0x922 SWAP1 PUSH2 0x14DA JUMP JUMPDEST DUP1 ISZERO PUSH2 0x96F JUMPI DUP1 PUSH1 0x1F LT PUSH2 0x944 JUMPI PUSH2 0x100 DUP1 DUP4 SLOAD DIV MUL DUP4 MSTORE SWAP2 PUSH1 0x20 ADD SWAP2 PUSH2 0x96F JUMP JUMPDEST DUP3 ADD SWAP2 SWAP1 PUSH1 0x0 MSTORE PUSH1 0x20 PUSH1 0x0 KECCAK256 SWAP1 JUMPDEST DUP2 SLOAD DUP2 MSTORE SWAP1 PUSH1 0x1 ADD SWAP1 PUSH1 0x20 ADD DUP1 DUP4 GT PUSH2 0x952 JUMPI DUP3 SWAP1 SUB PUSH1 0x1F AND DUP3 ADD SWAP2 JUMPDEST POP POP POP POP POP SWAP1 POP SWAP1 JUMP JUMPDEST PUSH1 0x0 DUP1 PUSH2 0x984 PUSH2 0xAE3 JUMP JUMPDEST SWAP1 POP PUSH1 0x0 PUSH2 0x992 DUP3 DUP7 PUSH2 0xA2B JUMP JUMPDEST SWAP1 POP DUP4 DUP2 LT ISZERO PUSH2 0x9D7 JUMPI PUSH1 0x40 MLOAD PUSH32 0x8C379A000000000000000000000000000000000000000000000000000000000 DUP2 MSTORE PUSH1 0x4 ADD PUSH2 0x9CE SWAP1 PUSH2 0x193C JUMP JUMPDEST PUSH1 0x40 MLOAD DUP1 SWAP2 SUB SWAP1 REVERT JUMPDEST PUSH2 0x9E4 DUP3 DUP7 DUP7 DUP5 SUB PUSH2 0xAEB JUMP JUMPDEST PUSH1 0x1 SWAP3 POP POP POP SWAP3 SWAP2 POP POP JUMP JUMPDEST PUSH1 0x0 DUP1 PUSH2 0x9FB PUSH2 0xAE3 JUMP JUMPDEST SWAP1 POP PUSH2 0xA08 DUP2 DUP6 DUP6 PUSH2 0xD40 JUMP JUMPDEST PUSH1 0x1 SWAP2 POP POP SWAP3 SWAP2 POP POP JUMP JUMPDEST PUSH1 0x5 PUSH1 0x20 MSTORE DUP1 PUSH1 0x0 MSTORE PUSH1 0x40 PUSH1 0x0 KECCAK256 PUSH1 0x0 SWAP2 POP SWAP1 POP SLOAD DUP2 JUMP JUMPDEST PUSH1 0x0 PUSH1 0x1 PUSH1 0x0 DUP5 PUSH20 0xFFFFFFFFFFFFFFFFFFFFFFFFFFFFFFFFFFFFFFFF AND PUSH20 0xFFFFFFFFFFFFFFFFFFFFFFFFFFFFFFFFFFFFFFFF AND DUP2 MSTORE PUSH1 0x20 ADD SWAP1 DUP2 MSTORE PUSH1 0x20 ADD PUSH1 0x0 KECCAK256 PUSH1 0x0 DUP4 PUSH20 0xFFFFFFFFFFFFFFFFFFFFFFFFFFFFFFFFFFFFFFFF AND PUSH20 0xFFFFFFFFFFFFFFFFFFFFFFFFFFFFFFFFFFFFFFFF AND DUP2 MSTORE PUSH1 0x20 ADD SWAP1 DUP2 MSTORE PUSH1 0x20 ADD PUSH1 0x0 KECCAK256 SLOAD SWAP1 POP SWAP3 SWAP2 POP POP JUMP JUMPDEST PUSH1 0x6 PUSH1 0x20 MSTORE DUP2 PUSH1 0x0 MSTORE PUSH1 0x40 PUSH1 0x0 KECCAK256 DUP2 DUP2 SLOAD DUP2 LT PUSH2 0xACE JUMPI PUSH1 0x0 DUP1 REVERT JUMPDEST SWAP1 PUSH1 0x0 MSTORE PUSH1 0x20 PUSH1 0x0 KECCAK256 ADD PUSH1 0x0 SWAP2 POP SWAP2 POP POP SLOAD DUP2 JUMP JUMPDEST PUSH1 0x0 CALLER SWAP1 POP SWAP1 JUMP JUMPDEST PUSH1 0x0 PUSH20 0xFFFFFFFFFFFFFFFFFFFFFFFFFFFFFFFFFFFFFFFF AND DUP4 PUSH20 0xFFFFFFFFFFFFFFFFFFFFFFFFFFFFFFFFFFFFFFFF AND SUB PUSH2 0xB5A JUMPI PUSH1 0x40 MLOAD PUSH32 0x8C379A000000000000000000000000000000000000000000000000000000000 DUP2 MSTORE PUSH1 0x4 ADD PUSH2 0xB51 SWAP1 PUSH2 0x19CE JUMP JUMPDEST PUSH1 0x40 MLOAD DUP1 SWAP2 SUB SWAP1 REVERT JUMPDEST PUSH1 0x0 PUSH20 0xFFFFFFFFFFFFFFFFFFFFFFFFFFFFFFFFFFFFFFFF AND DUP3 PUSH20 0xFFFFFFFFFFFFFFFFFFFFFFFFFFFFFFFFFFFFFFFF AND SUB PUSH2 0xBC9 JUMPI PUSH1 0x40 MLOAD PUSH32 0x8C379A000000000000000000000000000000000000000000000000000000000 DUP2 MSTORE PUSH1 0x4 ADD PUSH2 0xBC0 SWAP1 PUSH2 0x1A60 JUMP JUMPDEST PUSH1 0x40 MLOAD DUP1 SWAP2 SUB SWAP1 REVERT JUMPDEST DUP1 PUSH1 0x1 PUSH1 0x0 DUP6 PUSH20 0xFFFFFFFFFFFFFFFFFFFFFFFFFFFFFFFFFFFFFFFF AND PUSH20 0xFFFFFFFFFFFFFFFFFFFFFFFFFFFFFFFFFFFFFFFF AND DUP2 MSTORE PUSH1 0x20 ADD SWAP1 DUP2 MSTORE PUSH1 0x20 ADD PUSH1 0x0 KECCAK256 PUSH1 0x0 DUP5 PUSH20 0xFFFFFFFFFFFFFFFFFFFFFFFFFFFFFFFFFFFFFFFF AND PUSH20 0xFFFFFFFFFFFFFFFFFFFFFFFFFFFFFFFFFFFFFFFF AND DUP2 MSTORE PUSH1 0x20 ADD SWAP1 DUP2 MSTORE PUSH1 0x20 ADD PUSH1 0x0 KECCAK256 DUP2 SWAP1 SSTORE POP DUP2 PUSH20 0xFFFFFFFFFFFFFFFFFFFFFFFFFFFFFFFFFFFFFFFF AND DUP4 PUSH20 0xFFFFFFFFFFFFFFFFFFFFFFFFFFFFFFFFFFFFFFFF AND PUSH32 0x8C5BE1E5EBEC7D5BD14F71427D1E84F3DD0314C0F7B2291E5B200AC8C7C3B925 DUP4 PUSH1 0x40 MLOAD PUSH2 0xCA7 SWAP2 SWAP1 PUSH2 0x11F9 JUMP JUMPDEST PUSH1 0x40 MLOAD DUP1 SWAP2 SUB SWAP1 LOG3 POP POP POP JUMP JUMPDEST PUSH1 0x0 PUSH2 0xCC0 DUP5 DUP5 PUSH2 0xA2B JUMP JUMPDEST SWAP1 POP PUSH32 0xFFFFFFFFFFFFFFFFFFFFFFFFFFFFFFFFFFFFFFFFFFFFFFFFFFFFFFFFFFFFFFFF DUP2 EQ PUSH2 0xD3A JUMPI DUP2 DUP2 LT ISZERO PUSH2 0xD2C JUMPI PUSH1 0x40 MLOAD PUSH32 0x8C379A000000000000000000000000000000000000000000000000000000000 DUP2 MSTORE PUSH1 0x4 ADD PUSH2 0xD23 SWAP1 PUSH2 0x1ACC JUMP JUMPDEST PUSH1 0x40 MLOAD DUP1 SWAP2 SUB SWAP1 REVERT JUMPDEST PUSH2 0xD39 DUP5 DUP5 DUP5 DUP5 SUB PUSH2 0xAEB JUMP JUMPDEST JUMPDEST POP POP POP POP JUMP JUMPDEST PUSH1 0x0 PUSH20 0xFFFFFFFFFFFFFFFFFFFFFFFFFFFFFFFFFFFFFFFF AND DUP4 PUSH20 0xFFFFFFFFFFFFFFFFFFFFFFFFFFFFFFFFFFFFFFFF AND SUB PUSH2 0xDAF JUMPI PUSH1 0x40 MLOAD PUSH32 0x8C379A000000000000000000000000000000000000000000000000000000000 DUP2 MSTORE PUSH1 0x4 ADD PUSH2 0xDA6 SWAP1 PUSH2 0x1B5E JUMP JUMPDEST PUSH1 0x40 MLOAD DUP1 SWAP2 SUB SWAP1 REVERT JUMPDEST PUSH1 0x0 PUSH20 0xFFFFFFFFFFFFFFFFFFFFFFFFFFFFFFFFFFFFFFFF AND DUP3 PUSH20 0xFFFFFFFFFFFFFFFFFFFFFFFFFFFFFFFFFFFFFFFF AND SUB PUSH2 0xE1E JUMPI PUSH1 0x40 MLOAD PUSH32 0x8C379A000000000000000000000000000000000000000000000000000000000 DUP2 MSTORE PUSH1 0x4 ADD PUSH2 0xE15 SWAP1 PUSH2 0x1BF0 JUMP JUMPDEST PUSH1 0x40 MLOAD DUP1 SWAP2 SUB SWAP1 REVERT JUMPDEST PUSH2 0xE29 DUP4 DUP4 DUP4 PUSH2 0xFB6 JUMP JUMPDEST PUSH1 0x0 DUP1 PUSH1 0x0 DUP6 PUSH20 0xFFFFFFFFFFFFFFFFFFFFFFFFFFFFFFFFFFFFFFFF AND PUSH20 0xFFFFFFFFFFFFFFFFFFFFFFFFFFFFFFFFFFFFFFFF AND DUP2 MSTORE PUSH1 0x20 ADD SWAP1 DUP2 MSTORE PUSH1 0x20 ADD PUSH1 0x0 KECCAK256 SLOAD SWAP1 POP DUP2 DUP2 LT ISZERO PUSH2 0xEAF JUMPI PUSH1 0x40 MLOAD PUSH32 0x8C379A000000000000000000000000000000000000000000000000000000000 DUP2 MSTORE PUSH1 0x4 ADD PUSH2 0xEA6 SWAP1 PUSH2 0x1C82 JUMP JUMPDEST PUSH1 0x40 MLOAD DUP1 SWAP2 SUB SWAP1 REVERT JUMPDEST DUP2 DUP2 SUB PUSH1 0x0 DUP1 DUP7 PUSH20 0xFFFFFFFFFFFFFFFFFFFFFFFFFFFFFFFFFFFFFFFF AND PUSH20 0xFFFFFFFFFFFFFFFFFFFFFFFFFFFFFFFFFFFFFFFF AND DUP2 MSTORE PUSH1 0x20 ADD SWAP1 DUP2 MSTORE PUSH1 0x20 ADD PUSH1 0x0 KECCAK256 DUP2 SWAP1 SSTORE POP DUP2 PUSH1 0x0 DUP1 DUP6 PUSH20 0xFFFFFFFFFFFFFFFFFFFFFFFFFFFFFFFFFFFFFFFF AND PUSH20 0xFFFFFFFFFFFFFFFFFFFFFFFFFFFFFFFFFFFFFFFF AND DUP2 MSTORE PUSH1 0x20 ADD SWAP1 DUP2 MSTORE PUSH1 0x20 ADD PUSH1 0x0 KECCAK256 PUSH1 0x0 DUP3 DUP3 SLOAD ADD SWAP3 POP POP DUP2 SWAP1 SSTORE POP DUP3 PUSH20 0xFFFFFFFFFFFFFFFFFFFFFFFFFFFFFFFFFFFFFFFF AND DUP5 PUSH20 0xFFFFFFFFFFFFFFFFFFFFFFFFFFFFFFFFFFFFFFFF AND PUSH32 0xDDF252AD1BE2C89B69C2B068FC378DAA952BA7F163C4A11628F55A4DF523B3EF DUP5 PUSH1 0x40 MLOAD PUSH2 0xF9D SWAP2 SWAP1 PUSH2 0x11F9 JUMP JUMPDEST PUSH1 0x40 MLOAD DUP1 SWAP2 SUB SWAP1 LOG3 PUSH2 0xFB0 DUP5 DUP5 DUP5 PUSH2 0xFBB JUMP JUMPDEST POP POP POP POP JUMP JUMPDEST POP POP POP JUMP JUMPDEST POP POP POP JUMP JUMPDEST PUSH1 0x0 DUP2 MLOAD SWAP1 POP SWAP2 SWAP1 POP JUMP JUMPDEST PUSH1 0x0 DUP3 DUP3 MSTORE PUSH1 0x20 DUP3 ADD SWAP1 POP SWAP3 SWAP2 POP POP JUMP JUMPDEST PUSH1 0x0 JUMPDEST DUP4 DUP2 LT ISZERO PUSH2 0xFFA JUMPI DUP1 DUP3 ADD MLOAD DUP2 DUP5 ADD MSTORE PUSH1 0x20 DUP2 ADD SWAP1 POP PUSH2 0xFDF JUMP JUMPDEST PUSH1 0x0 DUP5 DUP5 ADD MSTORE POP POP POP POP JUMP JUMPDEST PUSH1 0x0 PUSH1 0x1F NOT PUSH1 0x1F DUP4 ADD AND SWAP1 POP SWAP2 SWAP1 POP JUMP JUMPDEST PUSH1 0x0 PUSH2 0x1022 DUP3 PUSH2 0xFC0 JUMP JUMPDEST PUSH2 0x102C DUP2 DUP6 PUSH2 0xFCB JUMP JUMPDEST SWAP4 POP PUSH2 0x103C DUP2 DUP6 PUSH1 0x20 DUP7 ADD PUSH2 0xFDC JUMP JUMPDEST PUSH2 0x1045 DUP2 PUSH2 0x1006 JUMP JUMPDEST DUP5 ADD SWAP2 POP POP SWAP3 SWAP2 POP POP JUMP JUMPDEST PUSH1 0x0 PUSH1 0x20 DUP3 ADD SWAP1 POP DUP2 DUP2 SUB PUSH1 0x0 DUP4 ADD MSTORE PUSH2 0x106A DUP2 DUP5 PUSH2 0x1017 JUMP JUMPDEST SWAP1 POP SWAP3 SWAP2 POP POP JUMP JUMPDEST PUSH1 0x0 DUP1 REVERT JUMPDEST PUSH1 0x0 DUP1 REVERT JUMPDEST PUSH1 0x0 PUSH20 0xFFFFFFFFFFFFFFFFFFFFFFFFFFFFFFFFFFFFFFFF DUP3 AND SWAP1 POP SWAP2 SWAP1 POP JUMP JUMPDEST PUSH1 0x0 PUSH2 0x10A7 DUP3 PUSH2 0x107C JUMP JUMPDEST SWAP1 POP SWAP2 SWAP1 POP JUMP JUMPDEST PUSH2 0x10B7 DUP2 PUSH2 0x109C JUMP JUMPDEST DUP2 EQ PUSH2 0x10C2 JUMPI PUSH1 0x0 DUP1 REVERT JUMPDEST POP JUMP JUMPDEST PUSH1 0x0 DUP2 CALLDATALOAD SWAP1 POP PUSH2 0x10D4 DUP2 PUSH2 0x10AE JUMP JUMPDEST SWAP3 SWAP2 POP POP JUMP JUMPDEST PUSH1 0x0 PUSH1 0x20 DUP3 DUP5 SUB SLT ISZERO PUSH2 0x10F0 JUMPI PUSH2 0x10EF PUSH2 0x1072 JUMP JUMPDEST JUMPDEST PUSH1 0x0 PUSH2 0x10FE DUP5 DUP3 DUP6 ADD PUSH2 0x10C5 JUMP JUMPDEST SWAP2 POP POP SWAP3 SWAP2 POP POP JUMP JUMPDEST PUSH1 0x0 PUSH1 0x40 DUP3 ADD SWAP1 POP DUP2 DUP2 SUB PUSH1 0x0 DUP4 ADD MSTORE PUSH2 0x1121 DUP2 DUP6 PUSH2 0x1017 JUMP JUMPDEST SWAP1 POP DUP2 DUP2 SUB PUSH1 0x20 DUP4 ADD MSTORE PUSH2 0x1135 DUP2 DUP5 PUSH2 0x1017 JUMP JUMPDEST SWAP1 POP SWAP4 SWAP3 POP POP POP JUMP JUMPDEST PUSH1 0x0 DUP2 SWAP1 POP SWAP2 SWAP1 POP JUMP JUMPDEST PUSH2 0x1151 DUP2 PUSH2 0x113E JUMP JUMPDEST DUP2 EQ PUSH2 0x115C JUMPI PUSH1 0x0 DUP1 REVERT JUMPDEST POP JUMP JUMPDEST PUSH1 0x0 DUP2 CALLDATALOAD SWAP1 POP PUSH2 0x116E DUP2 PUSH2 0x1148 JUMP JUMPDEST SWAP3 SWAP2 POP POP JUMP JUMPDEST PUSH1 0x0 DUP1 PUSH1 0x40 DUP4 DUP6 SUB SLT ISZERO PUSH2 0x118B JUMPI PUSH2 0x118A PUSH2 0x1072 JUMP JUMPDEST JUMPDEST PUSH1 0x0 PUSH2 0x1199 DUP6 DUP3 DUP7 ADD PUSH2 0x10C5 JUMP JUMPDEST SWAP3 POP POP PUSH1 0x20 PUSH2 0x11AA DUP6 DUP3 DUP7 ADD PUSH2 0x115F JUMP JUMPDEST SWAP2 POP POP SWAP3 POP SWAP3 SWAP1 POP JUMP JUMPDEST PUSH1 0x0 DUP2 ISZERO ISZERO SWAP1 POP SWAP2 SWAP1 POP JUMP JUMPDEST PUSH2 0x11C9 DUP2 PUSH2 0x11B4 JUMP JUMPDEST DUP3 MSTORE POP POP JUMP JUMPDEST PUSH1 0x0 PUSH1 0x20 DUP3 ADD SWAP1 POP PUSH2 0x11E4 PUSH1 0x0 DUP4 ADD DUP5 PUSH2 0x11C0 JUMP JUMPDEST SWAP3 SWAP2 POP POP JUMP JUMPDEST PUSH2 0x11F3 DUP2 PUSH2 0x113E JUMP JUMPDEST DUP3 MSTORE POP POP JUMP JUMPDEST PUSH1 0x0 PUSH1 0x20 DUP3 ADD SWAP1 POP PUSH2 0x120E PUSH1 0x0 DUP4 ADD DUP5 PUSH2 0x11EA JUMP JUMPDEST SWAP3 SWAP2 POP POP JUMP JUMPDEST PUSH1 0x0 DUP1 REVERT JUMPDEST PUSH1 0x0 DUP1 REVERT JUMPDEST PUSH1 0x0 DUP1 REVERT JUMPDEST PUSH1 0x0 DUP1 DUP4 PUSH1 0x1F DUP5 ADD SLT PUSH2 0x1239 JUMPI PUSH2 0x1238 PUSH2 0x1214 JUMP JUMPDEST JUMPDEST DUP3 CALLDATALOAD SWAP1 POP PUSH8 0xFFFFFFFFFFFFFFFF DUP2 GT ISZERO PUSH2 0x1256 JUMPI PUSH2 0x1255 PUSH2 0x1219 JUMP JUMPDEST JUMPDEST PUSH1 0x20 DUP4 ADD SWAP2 POP DUP4 PUSH1 0x1 DUP3 MUL DUP4 ADD GT ISZERO PUSH2 0x1272 JUMPI PUSH2 0x1271 PUSH2 0x121E JUMP JUMPDEST JUMPDEST SWAP3 POP SWAP3 SWAP1 POP JUMP JUMPDEST PUSH1 0x0 DUP1 PUSH1 0x0 DUP1 PUSH1 0x40 DUP6 DUP8 SUB SLT ISZERO PUSH2 0x1293 JUMPI PUSH2 0x1292 PUSH2 0x1072 JUMP JUMPDEST JUMPDEST PUSH1 0x0 DUP6 ADD CALLDATALOAD PUSH8 0xFFFFFFFFFFFFFFFF DUP2 GT ISZERO PUSH2 0x12B1 JUMPI PUSH2 0x12B0 PUSH2 0x1077 JUMP JUMPDEST JUMPDEST PUSH2 0x12BD DUP8 DUP3 DUP9 ADD PUSH2 0x1223 JUMP JUMPDEST SWAP5 POP SWAP5 POP POP PUSH1 0x20 DUP6 ADD CALLDATALOAD PUSH8 0xFFFFFFFFFFFFFFFF DUP2 GT ISZERO PUSH2 0x12E0 JUMPI PUSH2 0x12DF PUSH2 0x1077 JUMP JUMPDEST JUMPDEST PUSH2 0x12EC DUP8 DUP3 DUP9 ADD PUSH2 0x1223 JUMP JUMPDEST SWAP3 POP SWAP3 POP POP SWAP3 SWAP6 SWAP2 SWAP5 POP SWAP3 POP JUMP JUMPDEST PUSH1 0x0 DUP1 PUSH1 0x0 PUSH1 0x60 DUP5 DUP7 SUB SLT ISZERO PUSH2 0x1313 JUMPI PUSH2 0x1312 PUSH2 0x1072 JUMP JUMPDEST JUMPDEST PUSH1 0x0 PUSH2 0x1321 DUP7 DUP3 DUP8 ADD PUSH2 0x10C5 JUMP JUMPDEST SWAP4 POP POP PUSH1 0x20 PUSH2 0x1332 DUP7 DUP3 DUP8 ADD PUSH2 0x10C5 JUMP JUMPDEST SWAP3 POP POP PUSH1 0x40 PUSH2 0x1343 DUP7 DUP3 DUP8 ADD PUSH2 0x115F JUMP JUMPDEST SWAP2 POP POP SWAP3 POP SWAP3 POP SWAP3 JUMP JUMPDEST PUSH1 0x0 PUSH1 0xFF DUP3 AND SWAP1 POP SWAP2 SWAP1 POP JUMP JUMPDEST PUSH2 0x1363 DUP2 PUSH2 0x134D JUMP JUMPDEST DUP3 MSTORE POP POP JUMP JUMPDEST PUSH1 0x0 PUSH1 0x20 DUP3 ADD SWAP1 POP PUSH2 0x137E PUSH1 0x0 DUP4 ADD DUP5 PUSH2 0x135A JUMP JUMPDEST SWAP3 SWAP2 POP POP JUMP JUMPDEST PUSH1 0x4 DUP2 LT PUSH2 0x1391 JUMPI PUSH1 0x0 DUP1 REVERT JUMPDEST POP JUMP JUMPDEST PUSH1 0x0 DUP2 CALLDATALOAD SWAP1 POP PUSH2 0x13A3 DUP2 PUSH2 0x1384 JUMP JUMPDEST SWAP3 SWAP2 POP POP JUMP JUMPDEST PUSH1 0x0 DUP1 PUSH1 0x0 DUP1 PUSH1 0x0 PUSH1 0x60 DUP7 DUP9 SUB SLT ISZERO PUSH2 0x13C5 JUMPI PUSH2 0x13C4 PUSH2 0x1072 JUMP JUMPDEST JUMPDEST PUSH1 0x0 DUP7 ADD CALLDATALOAD PUSH8 0xFFFFFFFFFFFFFFFF DUP2 GT ISZERO PUSH2 0x13E3 JUMPI PUSH2 0x13E2 PUSH2 0x1077 JUMP JUMPDEST JUMPDEST PUSH2 0x13EF DUP9 DUP3 DUP10 ADD PUSH2 0x1223 JUMP JUMPDEST SWAP6 POP SWAP6 POP POP PUSH1 0x20 DUP7 ADD CALLDATALOAD PUSH8 0xFFFFFFFFFFFFFFFF DUP2 GT ISZERO PUSH2 0x1412 JUMPI PUSH2 0x1411 PUSH2 0x1077 JUMP JUMPDEST JUMPDEST PUSH2 0x141E DUP9 DUP3 DUP10 ADD PUSH2 0x1223 JUMP JUMPDEST SWAP4 POP SWAP4 POP POP PUSH1 0x40 PUSH2 0x1431 DUP9 DUP3 DUP10 ADD PUSH2 0x1394 JUMP JUMPDEST SWAP2 POP POP SWAP3 SWAP6 POP SWAP3 SWAP6 SWAP1 SWAP4 POP JUMP JUMPDEST PUSH1 0x0 PUSH1 0x20 DUP3 DUP5 SUB SLT ISZERO PUSH2 0x1454 JUMPI PUSH2 0x1453 PUSH2 0x1072 JUMP JUMPDEST JUMPDEST PUSH1 0x0 PUSH2 0x1462 DUP5 DUP3 DUP6 ADD PUSH2 0x1394 JUMP JUMPDEST SWAP2 POP POP SWAP3 SWAP2 POP POP JUMP JUMPDEST PUSH1 0x0 DUP1 PUSH1 0x40 DUP4 DUP6 SUB SLT ISZERO PUSH2 0x1482 JUMPI PUSH2 0x1481 PUSH2 0x1072 JUMP JUMPDEST JUMPDEST PUSH1 0x0 PUSH2 0x1490 DUP6 DUP3 DUP7 ADD PUSH2 0x10C5 JUMP JUMPDEST SWAP3 POP POP PUSH1 0x20 PUSH2 0x14A1 DUP6 DUP3 DUP7 ADD PUSH2 0x10C5 JUMP JUMPDEST SWAP2 POP POP SWAP3 POP SWAP3 SWAP1 POP JUMP JUMPDEST PUSH32 0x4E487B7100000000000000000000000000000000000000000000000000000000 PUSH1 0x0 MSTORE PUSH1 0x22 PUSH1 0x4 MSTORE PUSH1 0x24 PUSH1 0x0 REVERT JUMPDEST PUSH1 0x0 PUSH1 0x2 DUP3 DIV SWAP1 POP PUSH1 0x1 DUP3 AND DUP1 PUSH2 0x14F2 JUMPI PUSH1 0x7F DUP3 AND SWAP2 POP JUMPDEST PUSH1 0x20 DUP3 LT DUP2 SUB PUSH2 0x1505 JUMPI PUSH2 0x1504 PUSH2 0x14AB JUMP JUMPDEST JUMPDEST POP SWAP2 SWAP1 POP JUMP JUMPDEST PUSH1 0x0 DUP3 SWAP1 POP SWAP3 SWAP2 POP POP JUMP JUMPDEST PUSH32 0x4E487B7100000000000000000000000000000000000000000000000000000000 PUSH1 0x0 MSTORE PUSH1 0x41 PUSH1 0x4 MSTORE PUSH1 0x24 PUSH1 0x0 REVERT JUMPDEST PUSH1 0x0 DUP2 SWAP1 POP DUP2 PUSH1 0x0 MSTORE PUSH1 0x20 PUSH1 0x0 KECCAK256 SWAP1 POP SWAP2 SWAP1 POP JUMP JUMPDEST PUSH1 0x0 PUSH1 0x20 PUSH1 0x1F DUP4 ADD DIV SWAP1 POP SWAP2 SWAP1 POP JUMP JUMPDEST PUSH1 0x0 DUP3 DUP3 SHL SWAP1 POP SWAP3 SWAP2 POP POP JUMP JUMPDEST PUSH1 0x0 PUSH1 0x8 DUP4 MUL PUSH2 0x15A7 PUSH32 0xFFFFFFFFFFFFFFFFFFFFFFFFFFFFFFFFFFFFFFFFFFFFFFFFFFFFFFFFFFFFFFFF DUP3 PUSH2 0x156A JUMP JUMPDEST PUSH2 0x15B1 DUP7 DUP4 PUSH2 0x156A JUMP JUMPDEST SWAP6 POP DUP1 NOT DUP5 AND SWAP4 POP DUP1 DUP7 AND DUP5 OR SWAP3 POP POP POP SWAP4 SWAP3 POP POP POP JUMP JUMPDEST PUSH1 0x0 DUP2 SWAP1 POP SWAP2 SWAP1 POP JUMP JUMPDEST PUSH1 0x0 PUSH2 0x15EE PUSH2 0x15E9 PUSH2 0x15E4 DUP5 PUSH2 0x113E JUMP JUMPDEST PUSH2 0x15C9 JUMP JUMPDEST PUSH2 0x113E JUMP JUMPDEST SWAP1 POP SWAP2 SWAP1 POP JUMP JUMPDEST PUSH1 0x0 DUP2 SWAP1 POP SWAP2 SWAP1 POP JUMP JUMPDEST PUSH2 0x1608 DUP4 PUSH2 0x15D3 JUMP JUMPDEST PUSH2 0x161C PUSH2 0x1614 DUP3 PUSH2 0x15F5 JUMP JUMPDEST DUP5 DUP5 SLOAD PUSH2 0x1577 JUMP JUMPDEST DUP3 SSTORE POP POP POP POP JUMP JUMPDEST PUSH1 0x0 SWAP1 JUMP JUMPDEST PUSH2 0x1631 PUSH2 0x1624 JUMP JUMPDEST PUSH2 0x163C DUP2 DUP5 DUP5 PUSH2 0x15FF JUMP JUMPDEST POP POP POP JUMP JUMPDEST JUMPDEST DUP2 DUP2 LT ISZERO PUSH2 0x1660 JUMPI PUSH2 0x1655 PUSH1 0x0 DUP3 PUSH2 0x1629 JUMP JUMPDEST PUSH1 0x1 DUP2 ADD SWAP1 POP PUSH2 0x1642 JUMP JUMPDEST POP POP JUMP JUMPDEST PUSH1 0x1F DUP3 GT ISZERO PUSH2 0x16A5 JUMPI PUSH2 0x1676 DUP2 PUSH2 0x1545 JUMP JUMPDEST PUSH2 0x167F DUP5 PUSH2 0x155A JUMP JUMPDEST DUP2 ADD PUSH1 0x20 DUP6 LT ISZERO PUSH2 0x168E JUMPI DUP2 SWAP1 POP JUMPDEST PUSH2 0x16A2 PUSH2 0x169A DUP6 PUSH2 0x155A JUMP JUMPDEST DUP4 ADD DUP3 PUSH2 0x1641 JUMP JUMPDEST POP POP JUMPDEST POP POP POP JUMP JUMPDEST PUSH1 0x0 DUP3 DUP3 SHR SWAP1 POP SWAP3 SWAP2 POP POP JUMP JUMPDEST PUSH1 0x0 PUSH2 0x16C8 PUSH1 0x0 NOT DUP5 PUSH1 0x8 MUL PUSH2 0x16AA JUMP JUMPDEST NOT DUP1 DUP4 AND SWAP2 POP POP SWAP3 SWAP2 POP POP JUMP JUMPDEST PUSH1 0x0 PUSH2 0x16E1 DUP4 DUP4 PUSH2 0x16B7 JUMP JUMPDEST SWAP2 POP DUP3 PUSH1 0x2 MUL DUP3 OR SWAP1 POP SWAP3 SWAP2 POP POP JUMP JUMPDEST PUSH2 0x16FB DUP4 DUP4 PUSH2 0x150B JUMP JUMPDEST PUSH8 0xFFFFFFFFFFFFFFFF DUP2 GT ISZERO PUSH2 0x1714 JUMPI PUSH2 0x1713 PUSH2 0x1516 JUMP JUMPDEST JUMPDEST PUSH2 0x171E DUP3 SLOAD PUSH2 0x14DA JUMP JUMPDEST PUSH2 0x1729 DUP3 DUP3 DUP6 PUSH2 0x1664 JUMP JUMPDEST PUSH1 0x0 PUSH1 0x1F DUP4 GT PUSH1 0x1 DUP2 EQ PUSH2 0x1758 JUMPI PUSH1 0x0 DUP5 ISZERO PUSH2 0x1746 JUMPI DUP3 DUP8 ADD CALLDATALOAD SWAP1 POP JUMPDEST PUSH2 0x1750 DUP6 DUP3 PUSH2 0x16D5 JUMP JUMPDEST DUP7 SSTORE POP PUSH2 0x17B8 JUMP JUMPDEST PUSH1 0x1F NOT DUP5 AND PUSH2 0x1766 DUP7 PUSH2 0x1545 JUMP JUMPDEST PUSH1 0x0 JUMPDEST DUP3 DUP2 LT ISZERO PUSH2 0x178E JUMPI DUP5 DUP10 ADD CALLDATALOAD DUP3 SSTORE PUSH1 0x1 DUP3 ADD SWAP2 POP PUSH1 0x20 DUP6 ADD SWAP5 POP PUSH1 0x20 DUP2 ADD SWAP1 POP PUSH2 0x1769 JUMP JUMPDEST DUP7 DUP4 LT ISZERO PUSH2 0x17AB JUMPI DUP5 DUP10 ADD CALLDATALOAD PUSH2 0x17A7 PUSH1 0x1F DUP10 AND DUP3 PUSH2 0x16B7 JUMP JUMPDEST DUP4 SSTORE POP JUMPDEST PUSH1 0x1 PUSH1 0x2 DUP9 MUL ADD DUP9 SSTORE POP POP POP JUMPDEST POP POP POP POP POP POP POP JUMP JUMPDEST PUSH32 0x4E487B7100000000000000000000000000000000000000000000000000000000 PUSH1 0x0 MSTORE PUSH1 0x11 PUSH1 0x4 MSTORE PUSH1 0x24 PUSH1 0x0 REVERT JUMPDEST PUSH1 0x0 PUSH2 0x17FB DUP3 PUSH2 0x113E JUMP JUMPDEST SWAP2 POP PUSH2 0x1806 DUP4 PUSH2 0x113E JUMP JUMPDEST SWAP3 POP DUP3 DUP3 ADD SWAP1 POP DUP1 DUP3 GT ISZERO PUSH2 0x181E JUMPI PUSH2 0x181D PUSH2 0x17C1 JUMP JUMPDEST JUMPDEST SWAP3 SWAP2 POP POP JUMP JUMPDEST DUP3 DUP2 DUP4 CALLDATACOPY PUSH1 0x0 DUP4 DUP4 ADD MSTORE POP POP POP JUMP JUMPDEST PUSH1 0x0 PUSH2 0x183F DUP4 DUP6 PUSH2 0xFCB JUMP JUMPDEST SWAP4 POP PUSH2 0x184C DUP4 DUP6 DUP5 PUSH2 0x1824 JUMP JUMPDEST PUSH2 0x1855 DUP4 PUSH2 0x1006 JUMP JUMPDEST DUP5 ADD SWAP1 POP SWAP4 SWAP3 POP POP POP JUMP JUMPDEST PUSH1 0x0 PUSH1 0x40 DUP3 ADD SWAP1 POP DUP2 DUP2 SUB PUSH1 0x0 DUP4 ADD MSTORE PUSH2 0x187B DUP2 DUP7 DUP9 PUSH2 0x1833 JUMP JUMPDEST SWAP1 POP DUP2 DUP2 SUB PUSH1 0x20 DUP4 ADD MSTORE PUSH2 0x1890 DUP2 DUP5 DUP7 PUSH2 0x1833 JUMP JUMPDEST SWAP1 POP SWAP6 SWAP5 POP POP POP POP POP JUMP JUMPDEST PUSH32 0x4E487B7100000000000000000000000000000000000000000000000000000000 PUSH1 0x0 MSTORE PUSH1 0x21 PUSH1 0x4 MSTORE PUSH1 0x24 PUSH1 0x0 REVERT JUMPDEST PUSH32 0x45524332303A2064656372656173656420616C6C6F77616E63652062656C6F77 PUSH1 0x0 DUP3 ADD MSTORE PUSH32 0x207A65726F000000000000000000000000000000000000000000000000000000 PUSH1 0x20 DUP3 ADD MSTORE POP JUMP JUMPDEST PUSH1 0x0 PUSH2 0x1926 PUSH1 0x25 DUP4 PUSH2 0xFCB JUMP JUMPDEST SWAP2 POP PUSH2 0x1931 DUP3 PUSH2 0x18CA JUMP JUMPDEST PUSH1 0x40 DUP3 ADD SWAP1 POP SWAP2 SWAP1 POP JUMP JUMPDEST PUSH1 0x0 PUSH1 0x20 DUP3 ADD SWAP1 POP DUP2 DUP2 SUB PUSH1 0x0 DUP4 ADD MSTORE PUSH2 0x1955 DUP2 PUSH2 0x1919 JUMP JUMPDEST SWAP1 POP SWAP2 SWAP1 POP JUMP JUMPDEST PUSH32 0x45524332303A20617070726F76652066726F6D20746865207A65726F20616464 PUSH1 0x0 DUP3 ADD MSTORE PUSH32 0x7265737300000000000000000000000000000000000000000000000000000000 PUSH1 0x20 DUP3 ADD MSTORE POP JUMP JUMPDEST PUSH1 0x0 PUSH2 0x19B8 PUSH1 0x24 DUP4 PUSH2 0xFCB JUMP JUMPDEST SWAP2 POP PUSH2 0x19C3 DUP3 PUSH2 0x195C JUMP JUMPDEST PUSH1 0x40 DUP3 ADD SWAP1 POP SWAP2 SWAP1 POP JUMP JUMPDEST PUSH1 0x0 PUSH1 0x20 DUP3 ADD SWAP1 POP DUP2 DUP2 SUB PUSH1 0x0 DUP4 ADD MSTORE PUSH2 0x19E7 DUP2 PUSH2 0x19AB JUMP JUMPDEST SWAP1 POP SWAP2 SWAP1 POP JUMP JUMPDEST PUSH32 0x45524332303A20617070726F766520746F20746865207A65726F206164647265 PUSH1 0x0 DUP3 ADD MSTORE PUSH32 0x7373000000000000000000000000000000000000000000000000000000000000 PUSH1 0x20 DUP3 ADD MSTORE POP JUMP JUMPDEST PUSH1 0x0 PUSH2 0x1A4A PUSH1 0x22 DUP4 PUSH2 0xFCB JUMP JUMPDEST SWAP2 POP PUSH2 0x1A55 DUP3 PUSH2 0x19EE JUMP JUMPDEST PUSH1 0x40 DUP3 ADD SWAP1 POP SWAP2 SWAP1 POP JUMP JUMPDEST PUSH1 0x0 PUSH1 0x20 DUP3 ADD SWAP1 POP DUP2 DUP2 SUB PUSH1 0x0 DUP4 ADD MSTORE PUSH2 0x1A79 DUP2 PUSH2 0x1A3D JUMP JUMPDEST SWAP1 POP SWAP2 SWAP1 POP JUMP JUMPDEST PUSH32 0x45524332303A20696E73756666696369656E7420616C6C6F77616E6365000000 PUSH1 0x0 DUP3 ADD MSTORE POP JUMP JUMPDEST PUSH1 0x0 PUSH2 0x1AB6 PUSH1 0x1D DUP4 PUSH2 0xFCB JUMP JUMPDEST SWAP2 POP PUSH2 0x1AC1 DUP3 PUSH2 0x1A80 JUMP JUMPDEST PUSH1 0x20 DUP3 ADD SWAP1 POP SWAP2 SWAP1 POP JUMP JUMPDEST PUSH1 0x0 PUSH1 0x20 DUP3 ADD SWAP1 POP DUP2 DUP2 SUB PUSH1 0x0 DUP4 ADD MSTORE PUSH2 0x1AE5 DUP2 PUSH2 0x1AA9 JUMP JUMPDEST SWAP1 POP SWAP2 SWAP1 POP JUMP JUMPDEST PUSH32 0x45524332303A207472616E736665722066726F6D20746865207A65726F206164 PUSH1 0x0 DUP3 ADD MSTORE PUSH32 0x6472657373000000000000000000000000000000000000000000000000000000 PUSH1 0x20 DUP3 ADD MSTORE POP JUMP JUMPDEST PUSH1 0x0 PUSH2 0x1B48 PUSH1 0x25 DUP4 PUSH2 0xFCB JUMP JUMPDEST SWAP2 POP PUSH2 0x1B53 DUP3 PUSH2 0x1AEC JUMP JUMPDEST PUSH1 0x40 DUP3 ADD SWAP1 POP SWAP2 SWAP1 POP JUMP JUMPDEST PUSH1 0x0 PUSH1 0x20 DUP3 ADD SWAP1 POP DUP2 DUP2 SUB PUSH1 0x0 DUP4 ADD MSTORE PUSH2 0x1B77 DUP2 PUSH2 0x1B3B JUMP JUMPDEST SWAP1 POP SWAP2 SWAP1 POP JUMP JUMPDEST PUSH32 0x45524332303A207472616E7366657220746F20746865207A65726F2061646472 PUSH1 0x0 DUP3 ADD MSTORE PUSH32 0x6573730000000000000000000000000000000000000000000000000000000000 PUSH1 0x20 DUP3 ADD MSTORE POP JUMP JUMPDEST PUSH1 0x0 PUSH2 0x1BDA PUSH1 0x23 DUP4 PUSH2 0xFCB JUMP JUMPDEST SWAP2 POP PUSH2 0x1BE5 DUP3 PUSH2 0x1B7E JUMP JUMPDEST PUSH1 0x40 DUP3 ADD SWAP1 POP SWAP2 SWAP1 POP JUMP JUMPDEST PUSH1 0x0 PUSH1 0x20 DUP3 ADD SWAP1 POP DUP2 DUP2 SUB PUSH1 0x0 DUP4 ADD MSTORE PUSH2 0x1C09 DUP2 PUSH2 0x1BCD JUMP JUMPDEST SWAP1 POP SWAP2 SWAP1 POP JUMP JUMPDEST PUSH32 0x45524332303A207472616E7366657220616D6F756E7420657863656564732062 PUSH1 0x0 DUP3 ADD MSTORE PUSH32 0x616C616E63650000000000000000000000000000000000000000000000000000 PUSH1 0x20 DUP3 ADD MSTORE POP JUMP JUMPDEST PUSH1 0x0 PUSH2 0x1C6C PUSH1 0x26 DUP4 PUSH2 0xFCB JUMP JUMPDEST SWAP2 POP PUSH2 0x1C77 DUP3 PUSH2 0x1C10 JUMP JUMPDEST PUSH1 0x40 DUP3 ADD SWAP1 POP SWAP2 SWAP1 POP JUMP JUMPDEST PUSH1 0x0 PUSH1 0x20 DUP3 ADD SWAP1 POP DUP2 DUP2 SUB PUSH1 0x0 DUP4 ADD MSTORE PUSH2 0x1C9B DUP2 PUSH2 0x1C5F JUMP JUMPDEST SWAP1 POP SWAP2 SWAP1 POP JUMP INVALID LOG2 PUSH5 0x6970667358 0x22 SLT KECCAK256 0xC5 0xDF 0xF7 SWAP16 0x4E 0x4D 0xAE 0x5E 0xAB CALLDATASIZE PREVRANDAO DUP2 0xD9 0xAE PUSH5 0xBB1B91DBCE EXTCODESIZE DELEGATECALL PUSH22 0x3B025B431937D3449564736F6C634300081200330000 "
				},
				"gasEstimates": {
					"creation": {
						"codeDepositCost": "1476800",
						"executionCost": "infinite",
						"totalCost": "infinite"
					},
					"external": {
						"addPatient(string,string)": "infinite",
						"allowance(address,address)": "infinite",
						"approve(address,uint256)": "infinite",
						"balanceOf(address)": "2908",
						"decimals()": "410",
						"decreaseAllowance(address,uint256)": "infinite",
						"getCount(address)": "2872",
						"increaseAllowance(address,uint256)": "infinite",
						"name()": "infinite",
						"patients(address)": "infinite",
						"price(uint8)": "2788",
						"serve(string,string,uint8)": "infinite",
						"symbol()": "infinite",
						"totalSupply()": "2527",
						"transfer(address,uint256)": "infinite",
						"transferFrom(address,address,uint256)": "infinite",
						"visit(address,uint256)": "infinite"
					}
				},
				"methodIdentifiers": {
					"addPatient(string,string)": "239ee6c1",
					"allowance(address,address)": "dd62ed3e",
					"approve(address,uint256)": "095ea7b3",
					"balanceOf(address)": "70a08231",
					"decimals()": "313ce567",
					"decreaseAllowance(address,uint256)": "a457c2d7",
					"getCount(address)": "4f0cd27b",
					"increaseAllowance(address,uint256)": "39509351",
					"name()": "06fdde03",
					"patients(address)": "0869cfbc",
					"price(uint8)": "b7fafcd7",
					"serve(string,string,uint8)": "6ec74646",
					"symbol()": "95d89b41",
					"totalSupply()": "18160ddd",
					"transfer(address,uint256)": "a9059cbb",
					"transferFrom(address,address,uint256)": "23b872dd",
					"visit(address,uint256)": "ed69b3aa"
				}
			},
			"storageLayout": {
				"storage": [
					{
						"astId": 15,
						"contract": "contracts/Stom.sol:Stom",
						"label": "_balances",
						"offset": 0,
						"slot": "0",
						"type": "t_mapping(t_address,t_uint256)"
					},
					{
						"astId": 21,
						"contract": "contracts/Stom.sol:Stom",
						"label": "_allowances",
						"offset": 0,
						"slot": "1",
						"type": "t_mapping(t_address,t_mapping(t_address,t_uint256))"
					},
					{
						"astId": 23,
						"contract": "contracts/Stom.sol:Stom",
						"label": "_totalSupply",
						"offset": 0,
						"slot": "2",
						"type": "t_uint256"
					},
					{
						"astId": 25,
						"contract": "contracts/Stom.sol:Stom",
						"label": "_name",
						"offset": 0,
						"slot": "3",
						"type": "t_string_storage"
					},
					{
						"astId": 27,
						"contract": "contracts/Stom.sol:Stom",
						"label": "_symbol",
						"offset": 0,
						"slot": "4",
						"type": "t_string_storage"
					},
					{
						"astId": 765,
						"contract": "contracts/Stom.sol:Stom",
						"label": "price",
						"offset": 0,
						"slot": "5",
						"type": "t_mapping(t_enum(ServiceEnum)777,t_uint256)"
					},
					{
						"astId": 770,
						"contract": "contracts/Stom.sol:Stom",
						"label": "visit",
						"offset": 0,
						"slot": "6",
						"type": "t_mapping(t_address,t_array(t_uint256)dyn_storage)"
					},
					{
						"astId": 772,
						"contract": "contracts/Stom.sol:Stom",
						"label": "counter",
						"offset": 0,
						"slot": "7",
						"type": "t_uint256"
					},
					{
						"astId": 800,
						"contract": "contracts/Stom.sol:Stom",
						"label": "serviceEnum",
						"offset": 0,
						"slot": "8",
						"type": "t_enum(ServiceEnum)777"
					},
					{
						"astId": 805,
						"contract": "contracts/Stom.sol:Stom",
						"label": "patients",
						"offset": 0,
						"slot": "9",
						"type": "t_mapping(t_address,t_struct(Patient)782_storage)"
					}
				],
				"types": {
					"t_address": {
						"encoding": "inplace",
						"label": "address",
						"numberOfBytes": "20"
					},
					"t_array(t_uint256)dyn_storage": {
						"base": "t_uint256",
						"encoding": "dynamic_array",
						"label": "uint256[]",
						"numberOfBytes": "32"
					},
					"t_enum(ServiceEnum)777": {
						"encoding": "inplace",
						"label": "enum Stom.ServiceEnum",
						"numberOfBytes": "1"
					},
					"t_mapping(t_address,t_array(t_uint256)dyn_storage)": {
						"encoding": "mapping",
						"key": "t_address",
						"label": "mapping(address => uint256[])",
						"numberOfBytes": "32",
						"value": "t_array(t_uint256)dyn_storage"
					},
					"t_mapping(t_address,t_mapping(t_address,t_uint256))": {
						"encoding": "mapping",
						"key": "t_address",
						"label": "mapping(address => mapping(address => uint256))",
						"numberOfBytes": "32",
						"value": "t_mapping(t_address,t_uint256)"
					},
					"t_mapping(t_address,t_struct(Patient)782_storage)": {
						"encoding": "mapping",
						"key": "t_address",
						"label": "mapping(address => struct Stom.Patient)",
						"numberOfBytes": "32",
						"value": "t_struct(Patient)782_storage"
					},
					"t_mapping(t_address,t_uint256)": {
						"encoding": "mapping",
						"key": "t_address",
						"label": "mapping(address => uint256)",
						"numberOfBytes": "32",
						"value": "t_uint256"
					},
					"t_mapping(t_enum(ServiceEnum)777,t_uint256)": {
						"encoding": "mapping",
						"key": "t_enum(ServiceEnum)777",
						"label": "mapping(enum Stom.ServiceEnum => uint256)",
						"numberOfBytes": "32",
						"value": "t_uint256"
					},
					"t_string_storage": {
						"encoding": "bytes",
						"label": "string",
						"numberOfBytes": "32"
					},
					"t_struct(Patient)782_storage": {
						"encoding": "inplace",
						"label": "struct Stom.Patient",
						"members": [
							{
								"astId": 779,
								"contract": "contracts/Stom.sol:Stom",
								"label": "name",
								"offset": 0,
								"slot": "0",
								"type": "t_string_storage"
							},
							{
								"astId": 781,
								"contract": "contracts/Stom.sol:Stom",
								"label": "surName",
								"offset": 0,
								"slot": "1",
								"type": "t_string_storage"
							}
						],
						"numberOfBytes": "64"
					},
					"t_uint256": {
						"encoding": "inplace",
						"label": "uint256",
						"numberOfBytes": "32"
					}
				}
			},
			"userdoc": {
				"kind": "user",
				"methods": {},
				"version": 1
			}
		}
	}
}